:100000000C9446000C9466000C9466000C946600F8
:100010000C9466000C9466000C9466000C946600C8
:100020000C9466000C9491130C9466000C9466007A
:100030000C9466000C9466000C9466000C946600A8
:100040000C9466000C9466000C9466000C94660098
:100050000C9466000C9466000C9466000C94660088
:100060000C9466000C9466000C9466000C94660078
:100070000C9466000C9466000C9466000C94660068
:100080000C9466000C9466000C94660011241FBE4C
:10009000CFEFD0E1DEBFCDBF13E0A0E0B1E0EAEDED
:1000A000F3E500E00BBF02C007900D92A638B10740
:1000B000D9F71BBE18E0A6E8B3E001C01D92A93134
:1000C000B107E1F70E945B110C94EB290C9400003E
:1000D00086B1876886B987B1806C87B90895369AEA
:1000E0003699FECF84B195B10895CF92DF92EF9209
:1000F000FF92CF93DF938FEF93E0909395058093DA
:1001000094050E946F00909391058093900580E084
:1001100090E060E070E00E94A7036091900570910C
:10012000910580E090E00E942E2520E030E048EC30
:1001300052E40E94BC256B017C0160919405709192
:10014000950580E090E00E942E259B01AC01C7013F
:10015000B6010E949A240E940225DC01CB019093F3
:100160009305809392052DB73EB7285030400FB6C7
:10017000F8943EBF0FBE2DBF4DB75EB74F5F5F4FC8
:10018000C6E9D5E0EDB7FEB7D283C18324E030E005
:10019000FA013383228320E031E03583248397837F
:1001A00086830E94A0262DB73EB7285F3F4F0FB62B
:1001B000F8943EBF0FBE2DBFCE010E940304DF9115
:1001C000CF91FF90EF90DF90CF900895FC0185E3F1
:1001D000808381E081836283CF01039608952FEFAE
:1001E000FC012193CF010895CF93DF93EC0181E0CF
:1001F00088838983809193038A831B82809107017E
:1002000090910801A0910901B0910A018C839D830E
:10021000AE83BF831986188680E890E09B878A8723
:1002200080911B0690911C06A0911D06B0911E06A0
:100230008C879D87AE87BF87188A198A1A8A1B8A7E
:100240001C8A1D8A1E8A1F8A188E198E1A8E1B8E72
:10025000CE014C96E1E9F3E0608171814091930316
:10026000509194030E94622680919303909194038D
:1002700040E150E0481B590B4C968C0F9D1F60E0ED
:1002800070E00E946B26CE018C96E82FF92F80E457
:10029000DF011D928A95E9F7CE0184599F4FE82F1F
:1002A000F92F80E8DF011D928A95E9F7C451DF4FED
:1002B00080910B0190910C01A0910D01B0910E0164
:1002C00088839983AA83BB83DF91CF910895AF92EE
:1002D000BF92CF92DF92EF92FF920F931F93CF9333
:1002E000DF93C091CB05D091CC058881823009F095
:1002F000A3C0CE01049667E071E044E050E00E94A4
:100300005526282F392F2115310509F097C0609106
:100310009103709192034091930350919403CE0105
:100320004C960E945526282F392F2115310509F0AA
:1003300087C088899989AA89BB8980939D039093F6
:100340009E03A0939F03B093A003C051DF4F409141
:10035000C0055091C1054C0F5D1FC417D50708F0AB
:1003600069C080E00F2EF9E9AF2EF3E0BF2EF02D2B
:10037000A5E9B3E069EA73E00F2EF5EAEF2EF3E0AA
:10038000FF2EF02D0F2EF1EACF2EF3E0DF2EF02D11
:1003900098819333D9F1943338F49330B9F096308F
:1003A000F9F09130E1F508C0963331F19F3F09F43F
:1003B00048C09533A1F51EC00A811B812C813D8167
:1003C000F601008311832283338329C00A811B81B4
:1003D0002C813D81FB0100831183228333831FC065
:1003E0000A811B812C813D81F701008311832283C7
:1003F000338315C08A8113C00A811B812C813D8102
:100400000D931D932D933C93139709C00A811B8173
:100410002C813D81F501008311832283338329815F
:1004200030E02E5F3F4FC20FD31FC417D50708F42B
:10043000AFCF07C080E005C080E003C080E001C00E
:1004400080E0DF91CF911F910F91FF90EF90DF90AF
:10045000CF90BF90AF900895CF93DF9300D000D09E
:10046000CDB7DEB79093920380939103709394037A
:1004700060939303109288038FEF9FEF9A83898391
:100480009C838B83CE01019660E073E40E94371950
:1004900090938A0380938903009729F020E034E445
:1004A000FC013583248310928703109286030F90FA
:1004B0000F900F900F90DF91CF910895CF93DF931E
:1004C000809186039091870321E08131920709F49E
:1004D0004FC021E08231920718F4009761F0FBC011
:1004E00021E08532920709F4BCC021E082359207F1
:1004F00009F0F1C0E9C081E08093880388EE93E0C1
:100500009093900380938F03C091CB05D091CC053D
:10051000CE010E94F400CE0180519F4F61E00E9405
:10052000E600FC0187E3808383E0818391E092838E
:10053000838386E08483CF0105960E94EF0020919B
:10054000CB053091CC05BC01621B730BC9010E9425
:100550008A2160918F03709190038BE893E00E9451
:100560004E1681E191E09093870380938603B7C094
:100570008091C80581FD0BC08BE893E00E946E1648
:10058000009709F4ACC08091C80581FF07C00E94A4
:100590006701823019F48093880313C080918F0320
:1005A000909190032AEE8036920730F4880F991FBD
:1005B0009093900380938F0380918803823009F099
:1005C000A3CF88EE93E09093900380938F03C09124
:1005D000CB05D091CC05CE010E94F400CE01805114
:1005E0009F4F63E00E94E600FC0186E3808324E0E5
:1005F00021838091950390919603A0919703B091E8
:10060000980382839383A483B58382E386832783BD
:1006100040919D0350919E0360919F037091A003B0
:100620004087518762877387CF010C960E94EF0045
:100630002091CB053091CC05BC01621B730BC90125
:100640000E948A2160918F03709190038BE893E060
:100650000E944E1685E291E0909387038093860373
:100660003EC08091C80581FD0AC08BE893E00E94DE
:100670006E160097A1F18091C80581FF08C00E9405
:100680006701853021F483E08093880319C080914D
:100690008F039091900327E28131920760F4885193
:1006A0009C4F9093900380938F03809188038330B5
:1006B00009F08DCF05C010928703109286030FC0FA
:1006C00086E893E00E94750F82E591E0909387039E
:1006D0008093860304C01092870310928603DF91F3
:1006E000CF91089580918803882341F410921C06CD
:1006F00010921B0610921E0610921D060895D89A9D
:1007000090E19A95F1F700C09BB3937C9BBB9BB3A0
:10071000880F880F892B8BBBD89880E18A95F1F7D9
:1007200000C00895CF93C82F662311F4D99801C053
:10073000D99A8C2F82958F700E947F038C2F0E94F4
:100740007F03CF91089561E00E949203089562951E
:10075000660F660F607C860F806860E00E949203DF
:10076000089585EA9EE00197F1F700C0000083E05C
:100770000E947F0387EE93E00197F1F700C000002D
:1007800083E00E947F0391E29A95F1F7000083E0F5
:100790000E947F0389EF90E00197F1F700C000000D
:1007A00082E00E947F0389EF90E00197F1F700C09B
:1007B000000088E260E00E94920389EF90E00197D8
:1007C000F1F700C000008CE060E00E94920389EF26
:1007D00090E00197F1F700C0000086E060E00E9421
:1007E000920389EF90E00197F1F700C000000895AF
:1007F00081E060E00E94920386E791E00197F1F7C3
:1008000000C0000008950F931F93CF938C01FC014B
:100810008081882351F0C0E00E94A303CF5FF801DC
:10082000EC0FF11D80818823B9F7CF911F910F91B3
:1008300008959C01FB0140E050E0C9018F77907062
:10084000220F232F221F330B31952115310529F05B
:10085000806881934F5F5F4FF0CF640F751FFB017E
:100860008083CA0101960895FC018081918195835E
:100870008483178216820895EF92FF920F931F933D
:10088000CF93DF93EC018B019A01E881F9816A81B2
:100890007B81CB0101977F01E80EF91E8C819D8140
:1008A0004E815F812115310511F18E1B9F0B840F45
:1008B000951F0E941F26E80FF91FEE16FF0610F481
:1008C000E881F9818E819F81009729F08C819D813B
:1008D0008E179F0761F0D8018D918D0181938E81D4
:1008E0009F8101969F838E832150304031F7822F64
:1008F000932FDF91CF911F910F91FF90EF9008956B
:100900000F931F93CF93DF93EC01F62FE72F8A010C
:100910004C815D812A813B812150304088819981C1
:10092000BC01620F731F01151105E9F08E819F81D3
:100930000097E1F0AF2FBE2F20E030E0FA01E20F88
:10094000F31F80818D936417750710F448815981D6
:100950002F5F3F4F2017310759F08E819F81281755
:10096000390760F305C020E030E002C020E030E04D
:10097000822F932FDF91CF911F910F9108950F93A5
:100980001F93CF93DF93DC01F62FE72F8A01129696
:100990008D919C91139701972D913C911197B901DD
:1009A000680F791F41155105D1F116968D919C91D3
:1009B00017970097B9F1CF2FDE2F40E050E0149643
:1009C000ED91FC9115978081899314968D919C915E
:1009D00015979C012F5F3F4F15963C932E931497CC
:1009E00016968D919C911797019717969C938E93CD
:1009F00016976217730738F48D919C91119715968D
:100A00009C938E9314974F5F5F4F4017510761F08F
:100A100016968D919C911797009789F605C040E036
:100A200050E002C040E050E0842F952FDF91CF913D
:100A30001F910F910895FC0111A6178E168E138E2B
:100A4000128E158E148E81E090E091A380A30895FC
:100A5000EF92FF920F931F93CF93DF93CDB7DEB743
:100A600063970FB6F894DEBF0FBECDBF8C01DC01DB
:100A70005296EC9152975396FC91DF010D90002015
:100A8000E9F711977D01EE1AFF0A08960E943404D7
:100A9000802F912F0E943404F80111A6178E168E14
:100AA000138E128E158E148E81E090E091A380A398
:100AB00080E1898B1D8286E08E838DE48F8381E5C2
:100AC000888789E4898783E78A8784E68B8780E73C
:100AD0008C8783E08D8782E08E87808991899F87CC
:100AE000888B9E2D8F2D9B8B8A8B802F912FBE0103
:100AF0006F5E7F4F41E050E00E943C04C7010E96BC
:100B0000BE016F5F7F4F0E941904AC01802F912FAF
:100B1000BE016F5F7F4F0E943C04802F912FBE016A
:100B20006B5F7F4F4CE050E00E943C04802F912F80
:100B3000BE016E5E7F4F42E050E00E943C04D8014F
:100B400052966D917C915397802F912FA7010E940F
:100B50003C0481E0F80181A7008CF18DE02D3097F5
:100B600011F0C801099563960FB6F894DEBF0FBE69
:100B7000CDBFDF91CF911F910F91FF90EF9008951E
:100B8000CF92DF92EF92FF920F931F93CF93DF9359
:100B9000CDB7DEB72A970FB6F894DEBF0FBECDBF34
:100BA0008C01F62EE72EE62FF72FDF010D900020A7
:100BB000E9F711976D01CE1ADF0A1F8282E8888754
:100BC000D80190968D919C9191979D838E830196EB
:100BD00091969C938E9390979C2D8D2D9A878987C3
:100BE000802F912FBE01685F7F4F41E050E00E944F
:100BF0003C04C6010596BE016F5F7F4F0E94190439
:100C0000AC01802F912FBE016F5F7F4F0E943C048B
:100C1000802F912FBE016B5F7F4F42E050E00E941A
:100C20003C04802F912FBE01675F7F4F42E050E070
:100C30000E943C04802F912F6F2D7E2DA6010E94D3
:100C40003C04802F912FBE01695F7F4F41E050E04F
:100C50000E943C04F801848D958D0196958F848FB8
:100C6000008CF18DE02D309711F0C80109952A967E
:100C70000FB6F894DEBF0FBECDBFDF91CF911F91AD
:100C80000F91FF90EF90DF90CF9008958F929F92F9
:100C9000AF92BF92CF92DF92EF92FF920F931F938A
:100CA000CF93DF93CDB7DEB727970FB6F894DEBFAB
:100CB0000FBECDBF8C01F62EE72E4A015901A62F9B
:100CC000B72FFD0101900020E9F731976F01CA1A93
:100CD000DB0A80E38F83DD82CE82802F912FBE01DD
:100CE000695F7F4F41E050E00E943C04C5010296DD
:100CF0008C0D9D1DBE016F5F7F4F0E941904AC01DA
:100D0000802F912FBE016F5F7F4F0E943C04802F88
:100D1000912FBE016B5F7F4F42E050E00E943C0488
:100D2000802F912F6F2D7E2DA6010E943C04802FD5
:100D3000912FB401A5010E943C04D8015896ED9171
:100D4000FC915997309711F0C801099527960FB675
:100D5000F894DEBF0FBECDBFDF91CF911F910F91F1
:100D6000FF90EF90DF90CF90BF90AF909F908F90CB
:100D700008950F931F93CF93DF9300D0CDB7DEB7C5
:100D80008C0180EC89831A82C801BE016F5F7F4F9E
:100D900042E050E00E943C04D8015E968D919C9107
:100DA0005F9701965F969C938E935E975896ED9110
:100DB000FC915997309711F0C80109950F900F9049
:100DC000DF91CF911F910F9108952F923F924F92F3
:100DD0005F926F927F928F929F92AF92BF92CF92CB
:100DE000DF92EF92FF920F931F93CF93DF93CDB7D4
:100DF000DEB7CB5ED0400FB6F894DEBF0FBECDBFDE
:100E00003C01CC24DD246894C3F8C80ED91E0F2EF3
:100E1000F6E0AF2EBB24F02DAC0EBD1E8824992425
:100E20000F2EFEEF2F2EFFEF3F2EF02D88E690E0E5
:100E30008C0F9D1F0296C651DF4F99838883CA5E2F
:100E4000D0400F2EF7E24F2E5524F02D4C0E5D1E94
:100E5000E6C0C601BE016F5F7F4F42E050E00E94D6
:100E6000BF048A818823C4F40F2EF3E0EF2EFF2401
:100E7000F02DEC0EFD1E8701C601B70141E050E0E8
:100E80000E94BF040894E11CF11CD8018C918823B6
:100E90001CF4EA14FB0479F7E980DE011296840160
:100EA00041E050E0B4018D9190E08F779070849F85
:100EB0009001859F300D949F300D1124020F131F58
:100EC0005695542F4427579547956F5F7F4F59F399
:100ED000FD0131978081882334F30138110508F032
:100EE0009EC0C601BE0168597F4FA8010E94BF0481
:100EF0008E2D82958F70893059F18A3030F482308E
:100F000051F0833009F08BC035C08D3061F18E30E7
:100F100009F085C017C0AA968FADAA97882361F4FF
:100F200082E0F30181A70488F589E02D309709F468
:100F300076C0C301099573C0E3E0D3019996EC93A1
:100F400099976DC0E4E0D3019996EC93999767C0A7
:100F5000D3015C968D919C915D9701975D969C93D2
:100F60008E935C975CC0F301868D978D0197978F68
:100F7000868F55C0A996FFADA997C751DF4FF8835B
:100F8000C95ED040C851DF4F1882C85ED040AA96D3
:100F90008FADAA9790E0C851DF4FE880F980C85E16
:100FA000D040E82AF92A81E2E816F104C0F5C1012F
:100FB0008E199F09080F191F0134110580F58A2D1C
:100FC0009B2DC651DF4F6881CA5ED040C551DF4FAF
:100FD0007881CB5ED0404E2D5F2D0E946226F501B8
:100FE000EE0DFF1D1082B7016E5F7F4FA8E6B0E0E7
:100FF000AC0FBD1F6A0F7B1F842D952D402F512FE5
:101000000E946226F201E00FF11F1082D301569672
:10101000ED91FC915797C301B501A2010995F30128
:10102000868597858230910508F013CFC551DF4F33
:101030000FB6F894DEBF0FBECDBFDF91CF911F91E9
:101040000F91FF90EF90DF90CF90BF90AF909F9067
:101050008F907F906F905F904F903F902F9008956A
:1010600024E0FC0121A70895CF92DF92EF92FF9236
:101070000F931F93CF93DF93CDB7DEB7C058D04007
:101080000FB6F894DEBF0FBECDBFE091CD05F09155
:10109000CE05048D158DC288D388F801F680E780CF
:1010A0004091C805842F90E09C0120733070211579
:1010B000310511F444233CF4C8010E94300880E15A
:1010C0008093C80528C041FF0FC06091CB05709187
:1010D000CC054091C0055091C105C80108960E94F9
:1010E0003C04C8010E94E5068091C805897099F00A
:1010F0004F2D5E2DC416D50608F4A601C801BE0109
:101100006F5F7F4F0E94BF04BC01009721F0CE01AA
:1011100001960E948A21C058DF4F0FB6F894DEBFB7
:101120000FBECDBFDF91CF911F910F91FF90EF9038
:10113000DF90CF900895CF93DF93EC01E62FF72F48
:10114000DF010D900020E9F71197AD014E1B5F0BF9
:10115000460F571F88818823A1F16417750798F5FA
:101160002196DB019A01BA01615070409C919F3237
:1011700019F48F3229F028C08B3231F08332C1F05C
:10118000891711F58B32A9F4CD01019684179507C3
:1011900080F411968C9111978F3259F0FD0132969F
:1011A0001196E217F30729F081918F32C9F701C038
:1011B000DB0111968991882339F0A417B507B0F2A5
:1011C00003C0DB0101C0DB01A417B50741F421E036
:1011D00030E0882311F020E030E0C90102C080E057
:1011E00090E0DF91CF910895009741F0E9EFF0E0B2
:1011F0003197F1F700C000000197C1F708953798C3
:101200001BBA8FEF8ABB84B38F6384BBE4E6F0E044
:1012100080818360808385B3807C85BBE5E6F0E0D8
:1012200080818C7F808384B3806C84BB85B38F7313
:1012300085BB0895CF93DF9380E090E060E070E09D
:101240000E94A703CFE0D1E0CE010E94030480E01A
:1012500090E060E070E00E94A70380E291E00E94CD
:1012600003048FE39DE0A3E081509040A040E1F7AC
:1012700000C00000CE010E94030480E090E061E025
:1012800070E00E94A70381E391E00E9403048FEDC8
:1012900093E9A4E081509040A040E1F700C0000035
:1012A00080E090E060E070E00E94A703CE010E9421
:1012B000030480E090E061E070E00E94A70382E414
:1012C00091E00E940304DF91CF91089580E090E0C7
:1012D00061E070E00E94A70382E491E00E940304B1
:1012E00012BA10926500089580E090E061E070E02D
:1012F0000E94A70383E591E00E9403048FED93E928
:10130000A4E081509040A040E1F700C0000080E0E0
:1013100090E060E070E00E94A70384E691E00E9404
:10132000030480E090E061E070E00E94A70386E79C
:1013300091E00E940304A7EAB1E61197F1F700C01B
:1013400000008FE39DE0A3E081509040A040E1F7D2
:1013500000C0000085B3806385BBAF9A8FE997EF2B
:10136000A3E081509040A040E1F700C00000AE9A99
:10137000A3EDB0E31197F1F700C0000085B38F73C0
:1013800085BB8FE79AE1A6E081509040A040E1F74D
:1013900000C0000085B38F7C85BB0E94900D08952E
:1013A00080E090E061E070E00E94A70387E891E0B0
:1013B0000E9403048FED93E9A4E081509040A04087
:1013C000E1F700C0000080E090E060E070E00E9483
:1013D000A70388E991E00E94030480E090E061E0C7
:1013E00070E00E94A70386E791E00E940304A7EA49
:1013F000B1E61197F1F700C000008FE39DE0A3E094
:1014000081509040A040E1F700C0000082B38063AB
:1014100082BBE5E6F0E08081816080838FE997EF11
:10142000A3E081509040A040E1F700C0000080811F
:1014300082608083A3EDB0E31197F1F700C0000054
:1014400080818C7F80838FE79AE1A6E08150904075
:10145000A040E1F700C0000082B38F7382BB0E94FE
:10146000DB0D089580E090E061E070E00E94A7034A
:1014700089EA91E00E9403048FED93E9A4E0815092
:101480009040A040E1F700C0000080E090E060E004
:1014900070E00E94A7038AEB91E00E94030480E0C1
:1014A00090E061E070E00E94A70386E791E00E946F
:1014B0000304A7EAB1E61197F1F700C000008FE33B
:1014C0009DE0A3E081509040A040E1F700C0000003
:1014D00082B38C6082BBE5E6F0E08081816080832E
:1014E0008FE997EFA3E081509040A040E1F700C062
:1014F0000000808182608083A3EDB0E31197F1F753
:1015000000C0000080818C7F80838FE79AE1A6E095
:1015100081509040A040E1F700C0000082B38F737B
:1015200082BB0E94260E089580E090E061E070E0AA
:101530000E94A7038CEC91E00E9403048FED93E9D5
:10154000A4E081509040A040E1F700C0000080E09E
:1015500090E060E070E00E94A7038DED91E00E94B2
:10156000030480E090E061E070E00E94A70386E75A
:1015700091E00E940304A7EAB1E61197F1F700C0D9
:10158000000082B3836082BBE5E6F0E08081816089
:1015900080838FE997EFA3E081509040A040E1F76E
:1015A00000C00000808182608083A3EDB0E31197CA
:1015B000F1F700C0000080818C7F80838FE79AE183
:1015C000A6E081509040A040E1F700C0000082B347
:1015D0008F7382BB0E94710E0895989B03C00E9476
:1015E000740908959A9B03C00E94D0090895999B9D
:1015F00003C00E94320A08959B9B02C00E94940A75
:101600000895CF93C62FC098962F9F71892B0E9463
:10161000EE1180E00E94EE11CC231CF480E00E94C9
:10162000EE11C09ACF910895CF93C42FC0986F71D7
:10163000862B0E94EE118C2F0E94EE11C09ACF9142
:1016400008950F931F93CF93DF93EC018B01C09804
:101650008AE30E94EE11209741F080E00E94EE1193
:10166000F80181938F012197C1F7C09ADF91CF9143
:101670001F910F9108950F931F93CF93DF93EC0168
:101680008B01C0988AE70E94EE11209739F0F8018B
:1016900081918F010E94EE112197C9F7C09ADF91C5
:1016A000CF911F910F9108951F93CF93DF93182F20
:1016B000C82FD0E0C076D07080919C0590E0C8170C
:1016C000D907B9F080EA6FE143E00E94140BAE0144
:1016D00055954795559547955595479555954795F2
:1016E0005595479580E86FE10E94140B1076109392
:1016F0009C05DF91CF911F910895CF93C82F0E9431
:10170000540B80E06C2F0E94010BCF9108951F9322
:10171000CF93DF93182F0E947D0BC82FD0E0812F2D
:101720008F5F0E947D0B382F20E0C22BD32B8C2F94
:101730009D2FDF91CF911F910895CF93DF93C82FF5
:10174000D62F0E94540B80E46C2F4D2F0E94140B57
:10175000DF91CF910895CF93DF93C82FD72F0E94A9
:101760009D0B8C2F8F5F6D2F0E949D0BDF91CF9172
:101770000895CF93DF93682F84ED0E949D0B82ED37
:1017800061E00E949D0B8AEE0E947D0B80FDFBCFE5
:1017900082ED60E00E949D0B88ED0E947D0BD82FAA
:1017A00080E0C82F89ED0E947D0B90E0C82BD92BDB
:1017B0008C2F9D2FDF91CF910895CF93DF93982F9A
:1017C000D62FC72F84ED692F0E949D0B86ED6D2FBC
:1017D0000E949D0B87ED6C2F0E949D0B8AEE0E944C
:1017E0007D0B80FDFBCFDF91CF9108958FEF60E0FF
:1017F0004FEF0E94140B81E090E00E94F4080895DE
:101800001F93CF93DF93EC01162FB89AC09ABC9A1E
:10181000C49A0E94E5110E94F60B10929B0510924B
:101820009A0588E060E070E00E94AB0B8CE060E01D
:1018300070E00E94AB0B8AE06EEF7FE00E94AB0B82
:1018400084E06FEF7FE00E94AB0B88E361EA0E94C7
:101850009D0B80EC6DE00E949D0B81EC60E00E948E
:101860009D0B80E862EC42E30E94140B86EC62E17F
:101870000E949D0B87EC6CE00E949D0B84EC62E162
:101880000E949D0B8AEC62EA71E00E94AB0B84EE31
:1018900068810E949D0B85EE69810E949D0B82EEFE
:1018A0006A810E949D0B83EE6B810E949D0B80EEEE
:1018B0006C810E949D0B81EE6D810E949D0B80E1E9
:1018C00060E071E00E94DD0B84E166E774E00E9455
:1018D000DD0B8BE160EC0E949D0B8FE164E00E94C8
:1018E0009D0B80EA6FE14CE00E94140B112399F0EC
:1018F00080E00E94B90BBC017E7F80E00E94DD0B7E
:1019000082EC0E947D0B682F70E06E7F82EC0E945B
:101910009D0B65E101C062E184EC0E949D0B80E8B3
:101920006FE144E00E94140BDF91CF911F91089565
:1019300082E70E947D0B089581E10E94B90B21E0AE
:10194000009709F420E0822F0895089580E86FE160
:1019500040E80E94140B80EA6FE140E80E94140BFB
:1019600080EA6CE142E00E94140B08950F931F93EC
:10197000CF93DF938C01EB010E94A60C82E06FEF06
:101980007FE00E94AB0BBE016150704F86E00E9469
:10199000AB0B8AE760E040E00E94140BCE01B80177
:1019A0000E943B0B80E86FE148E00E94140BDF913E
:1019B000CF911F910F9108958FE10E947D0B887048
:1019C000089508950F931F93CF93DF9389E30E94A7
:1019D0007D0B882309F441C060919A0570919B05A5
:1019E00080E00E94AB0B8AE360E00E94010B8093D1
:1019F0009A0510929B058AE360E00E94010B382F44
:101A000020E080919A0590919B05282B392B3093EB
:101A10009B0520939A058AE360E00E94010B182F32
:101A20008AE360E00E94010B082F8AE360E00E94D5
:101A3000010BC82FD0E08AE360E00E94010B382F31
:101A400020E0C22BD32BC7FF0BC0812F90E0302F9B
:101A500020E0822B932B049705C080E090E002C029
:101A600080E090E0DF91CF911F910F9108959C014C
:101A7000CB01B9010E94210B089560919A057091E4
:101A80009B05615070408FE06F3F780730F08CE02D
:101A90006EEF7FE00E94AB0B03C08CE00E94AB0BAB
:101AA00080E86EE140E40E94140B089508950895C3
:101AB0008091B3039091B40301969093B403809303
:101AC000B3030895CF93DF93EB018DEE91E00E9475
:101AD0009B08882311F00E94740984E092E0BE0103
:101AE0000E949B08882311F00E94D0098BE192E0AC
:101AF000BE010E949B08882311F00E94320A82E3F3
:101B000092E0BE010E949B08882311F00E94940A73
:101B1000DF91CF9108958091B3039091B40308951C
:101B20000F931F93CF93DF93CDB7DEB76E970FB6AA
:101B3000F894DEBF0FBECDBF2091B2032F5F20937C
:101B4000B20300D000D000D0EDB7FEB731968E01C1
:101B50000F5F1F4FADB7BEB712961C930E93119730
:101B600089E492E093838283248315820E94DD2698
:101B7000F80101900020E9F79F0121503040201B1F
:101B8000310B8DB79EB706960FB6F8949EBF0FBE69
:101B90008DBF84E393E06CE472E0A8010E944606E6
:101BA0006E960FB6F894DEBF0FBECDBFDF91CF911A
:101BB0001F910F9108950F931F93CF93DF93CDB78C
:101BC000DEB76E970FB6F894DEBF0FBECDBF209183
:101BD000B1032F5F2093B10300D000D000D0EDB748
:101BE000FEB731968E010F5F1F4FADB7BEB712968D
:101BF0001C930E93119789E492E09383828324834C
:101C000015820E94DD26F80101900020E9F79F016E
:101C100021503040201B310B8DB79EB706960FB672
:101C2000F8949EBF0FBE8DBF84E393E06EE572E033
:101C3000A8010E9446066E960FB6F894DEBF0FBE4E
:101C4000CDBFDF91CF911F910F9108950F931F93F7
:101C5000CF93DF93CDB7DEB76E970FB6F894DEBFA4
:101C60000FBECDBF2091B0032F5F2093B00300D0F3
:101C700000D000D0EDB7FEB731968E010F5F1F4F39
:101C8000ADB7BEB712961C930E93119789E492E0FC
:101C900093838283248315820E94DD26F8010190BC
:101CA0000020E9F79F0121503040201B310B8DB7F8
:101CB0009EB706960FB6F8949EBF0FBE8DBF84E305
:101CC00093E06FE672E0A8010E9446066E960FB69A
:101CD000F894DEBF0FBECDBFDF91CF911F910F9162
:101CE00008950F931F93CF93DF93CDB7DEB76E9711
:101CF0000FB6F894DEBF0FBECDBF2091AF032F5FAC
:101D00002093AF0300D000D000D0EDB7FEB73196DE
:101D10008E010F5F1F4FADB7BEB712961C930E9387
:101D2000119789E492E093838283248315820E9431
:101D3000DD26F80101900020E9F79F012150304095
:101D4000201B310B8DB79EB706960FB6F8949EBF39
:101D50000FBE8DBF84E393E060E872E0A8010E94AB
:101D600046066E960FB6F894DEBF0FBECDBFDF916C
:101D7000CF911F910F9108958EEA95E00E946E1603
:101D8000009769F08EEA95E00E945A1680E060E0C4
:101D900070E00E94A70381E992E00E940304089585
:101DA000CF93DF93CDB7DEB760970FB6F894DEBF61
:101DB0000FBECDBF86EA95E00E946E16009709F42B
:101DC0007CC086EA95E00E945A1620911B068091FD
:101DD0001C0620932A0380932B0380911D0690916B
:101DE0001E0690932D0380932C03222381F58DB73B
:101DF0009EB70C970FB6F8949EBF0FBE8DBFEDB780
:101E0000FEB73196CE010196ADB7BEB712969C9340
:101E10008E93119782EA92E09383828315821482D3
:101E200080912B038683178280912C0380871186F3
:101E300080912D03828713860E94DD268DB79EB781
:101E40000C960FB6F8949EBF0FBE8DBF2DC0ADB7D8
:101E5000BEB71C970FB6F894BEBF0FBEADBFEDB7AF
:101E6000FEB73196CE01019612969C938E931197F0
:101E700087EB92E0938382832483158280912B03E6
:101E80008683178280912C038087118680912D0391
:101E9000828713860E94DD268DB79EB70C960FB6FB
:101EA000F8949EBF0FBE8DBF80E060E070E00E949E
:101EB000A703CE0101960E94030460960FB6F89422
:101EC000DEBF0FBECDBFDF91CF91089568EE73E006
:101ED00080E090E048E55DE00E941D131092B4039D
:101EE0001092B3030E948A130895FC018789908D94
:101EF00090931C0680931B06818D928D90931E06F5
:101F000080931D06838D948D9093180680931706F9
:101F1000858D968D90931A068093190683A194A1BE
:101F2000909314068093130685A196A190931606AC
:101F3000809315060895EF92FF920F931F93CF930E
:101F4000DF9300D000D0CDB7DEB78C0185E09DE2F5
:101F50009A83898382E798E09C838B83CE010196E4
:101F600067E07BE50E9467187C010097C9F08EE16D
:101F700090E0F801918B808B87EC92E0938B828BC1
:101F8000C8010E941B05C8010E943404C8010896BC
:101F90000E943404C8010E942805F701158F048FA0
:101FA0000F900F900F900F90DF91CF911F910F9195
:101FB000FF90EF900895CF93DF93CDB7DEB79E01EA
:101FC000265F3F4F8D819E816F8170E048855985E6
:101FD0000E940C27DF91CF9108950F931F93CF9309
:101FE000DF93CDB7DEB7E1970FB6F894DEBF0FBE33
:101FF000CDBF0E94C9139093C1058093C00500977F
:1020000039F180912B0690912C068830910579F456
:1020100081E00E94F5198091C0059091C10500975B
:1020200009F427C10E9481230E94851622C126E05F
:102030008830920709F01DC10E94C8228091C00516
:102040009091C105009709F414C10E94C01311C1F9
:102050008AEA95E00E946E16009709F45CC08AEA4D
:1020600095E00E945A168FEC95E09093CE058093F0
:10207000CD0582E00E94F5198091C0059091C105BF
:10208000009721F00E9481230E9485168FEE95E033
:102090009093CE058093CD0582E00E94F519809142
:1020A000C0059091C105009721F00E9481230E94F4
:1020B000851683EB97E09093CA058093C90585E068
:1020C0000E94F5198091C0059091C105009721F0FB
:1020D0000E9481230E94C01383EE97E09093CA056B
:1020E0008093C90585E00E94F5198091C005909103
:1020F000C105009721F00E9481230E94C0138DE941
:1021000095E00E946E16009731F08DE995E00E94EF
:102110005A160E9492220E949C0C882319F480E295
:102120008093C80582EB95E00E946E16009741F0FF
:1021300082EB95E00E945A1684E393E00E94B90670
:1021400080915D038230A1F081EA95E00E946E16D5
:10215000009771F081EA95E00E945A1604E313E0BB
:10216000C8010E949B0FC8016BED72E00E94C00580
:1021700086EB95E00E946E16009709F47AC086EB14
:1021800095E00E945A16DE015196E1E0F3E08DE100
:1021900001900D928150E1F71EA61FA618AA19AA58
:1021A00080911B0690911C0690932B0380932A0329
:1021B00080911D0690911E0690932D0380932C0311
:1021C0008DB79EB70D970FB6F8949EBF0FBE8DBF0B
:1021D000EDB7FEB73196CE010196ADB7BEB71296F8
:1021E0009C938E93119780E182838EED92E094838D
:1021F000838380912A038583168280912B038783B2
:10220000108680912C038187128680912D0383870D
:1022100014860E94DB0FEDB7FEB73D960FB6F8941B
:10222000FEBF0FBEEDBF181624F5AE014F5F5F4F26
:10223000DA010D900020E9F79D0121503040241B68
:10224000350B04E313E0C8016AEE72E00E94460613
:10225000AE014F5E5F4FFA0101900020E9F79F0148
:1022600021503040241B350BC80163EF72E00E94FF
:10227000460685E08093A5050FC08091A5058823BB
:1022800059F48091AD039091AE0301969093AE0303
:102290008093AD030E94A60C0E94E513882369F782
:1022A000E1960FB6F894DEBF0FBECDBFDF91CF91A0
:1022B0001F910F9108950E94FF080E94B103EEE262
:1022C000F3E0A5EBB3E0CF01069621912D93E8173B
:1022D000F907D9F78EE293E00E94BC130E941A0915
:1022E0008091B50380931E058091B60380931F05EE
:1022F0008091B703809320058091B80380932105D6
:102300008091B903809322058091BA0380932305BD
:102310000E9449180E9473220E94660F10921C06A8
:1023200010921B0610921E0610921D06109218069F
:102330001092170610921A0610921906109214069F
:1023400010921306109216061092150685EB93E074
:1023500066E070E00E942C020E9472038AEA95E017
:1023600064EF71E00E944E168DE995E060E177E23E
:102370000E944E1682EB95E060E375E70E944E16D0
:1023800081EA95E068EB7BE00E944E1686EB95E0D3
:1023900060E177E20E944E168EEA95E068E97AE302
:1023A0000E944E1686EA95E068EC7FEA0E944E167F
:1023B0000E9468000E94ED0F0E9466090E94BC0EF8
:1023C0000E94D00E0E947500F5CF87B3876087BB4F
:1023D000BB98C39A8DB180658DB9089591E09093B3
:1023E00019058FB9779BFECF109219058FB108950B
:1023F000CF93DF930F92CDB7DEB7DC01FB010097DF
:1024000011F43097F1F041155105D9F081E0809336
:10241000190580E090E03FEF109711F02D9101C079
:10242000232F2FB9779BFECF309719F02FB121932F
:1024300002C02FB1298301968417950769F710927E
:1024400019050F90DF91CF9108959C01AB0180E0B9
:1024500090E0B9010E94F8110895AB0160E070E0CE
:102460000E94F8110895CF93DF930F92CDB7DEB796
:10247000009719F46115710521F14115510509F114
:102480003093BD052093BC0521E02093190590935E
:102490001B0580931A0570931D0560931C055093CE
:1024A000BB054093BA056F9A2EB12983009739F086
:1024B000FC018191F0931B05E0931A0501C08FEF99
:1024C0008FB90F90DF91CF9108959C01FB01DA0144
:1024D00080E090E0B901AF019D010E9433120895A0
:1024E0009B01FA0160E070E0A9019F010E94331294
:1024F0000895CF93DF930F92CDB7DEB7E0911C051F
:10250000F0911D05309739F08FB18193F0931D053F
:10251000E0931C0502C08FB189838091BA05909128
:10252000BB0501979093BB058093BA05009779F09E
:10253000E0911A05F0911B05309731F08191F093ED
:102540001B05E0931A0501C08FEF8FB90AC01092E6
:1025500019056F98E091BC05F091BD05309709F021
:1025600009950F90DF91CF91089521E020931905EF
:102570006115710591F0E82FF92F80E090E0DF01FF
:1025800021812FB9779BFECF32962C912FB9779B63
:10259000FECF01968617970791F7109219050895B7
:1025A000FC0181E08093190561157105B9F020E007
:1025B00030E0AFEFAFB9779BFECF8FB1582F40E03F
:1025C000AFB9779BFECF8FB190E0842B952B819391
:1025D00091932F5F3F4F2617370761F71092190528
:1025E000089580349105E9F08134910550F48830E4
:1025F000910509F18032910591F081309105C9F47E
:102600000CC021E08030920781F024E080309207F6
:1026100071F08038910569F406C081E0089583E087
:10262000089584E0089585E0089586E0089587E0A0
:10263000089580E0089582E008956F927F928F92CE
:102640009F92AF92BF92CF92DF92EF92FF920F9341
:102650001F93CF93DF938B019C01F8945093BF0598
:102660004093BE0515BC15BC85B5886085BD85B594
:10267000806885BD60E070E185EA94EDA90198016C
:102680000E943326822E932EA42EB52E8FEF88160D
:102690009104A104B104E1F0D8F0C0E6D3E00F2E1C
:1026A000FCE06F2E7724F02D6C0E7D1E09911991A0
:1026B000980140E050E0C501B4010E943326690151
:1026C0007A012F3F31054105510509F050F403C04F
:1026D000C22E01E010E0C8010E94F11280936C0349
:1026E00003C0C615D70511F7CA94C3BC80EC86BFDA
:1026F00080E887BF7894DF91CF911F910F91FF9071
:10270000EF90DF90CF90BF90AF909F908F907F9091
:102710006F90089514BC80916C0385BD089515BC1D
:1027200008951F920F920FB60F920BB60F921124BD
:102730002F933F934F935F936F937F938F939F93C9
:10274000AF93BF93EF93FF93E091BE05F091BF0568
:102750000995FF91EF91BF91AF919F918F917F91DB
:102760006F915F914F913F912F910F900BBE0F9002
:102770000FBE0F901F90189561E00E94000C089505
:102780006091C0057091C1058FE196E00E94B60C82
:102790000895CF93DF930E94E20CEC01009781F043
:1027A00081E0C139D80728F00E943D0DC0E0D0E09B
:1027B00007C08FE196E0BE010E94370D0E943D0DDB
:1027C0008C2F9D2FDF91CF9108950E94DC0C0895EE
:1027D000FC0171836083538342830895FC018489E3
:1027E000863059F58091C80580FF29C08285938580
:1027F000A091CD05B091CE0552962D913C91539765
:102800002817390778F4821B930B9387828784817A
:10281000958152962D913C915397820F931F9583EA
:10282000848308C024813581820F931F958384831C
:102830001386128681E0848B089580E0089580E0FD
:102840000895CF93DF93EC018C89863021F4809139
:10285000C80582FF19C02A853B85E091CD05F0911E
:10286000CE05628973896217730728F48C819D8174
:102870000E948A2105C08C819D81B9010E948A2114
:1028800086E08C8B81E001C080E0DF91CF910895DC
:102890001F93CF93DF93EC018A819B81009721F0F6
:1028A0008C3D9105E1F40DC041155105E1F07D83AA
:1028B0006C835B874A871C8A0DC08CED90E09B83FC
:1028C0008A83CE010E94EE13182FCE010E9421149C
:1028D000812359F08A859B85009779F71C8A1B8292
:1028E0001A8282E003C081E001C080E0DF91CF91D5
:1028F0001F910895CF92DF92EF92FF920F931F9353
:10290000CF938C017B016A01FC0182819381009746
:1029100021F08D3F910561F51CC06115710569F1CC
:10292000CA01FB010995F801938782878091CB0545
:102930009091CC0595838483148A8091C80582FF89
:1029400003C0C601F70109958DEF90E0F80193836C
:102950008283C8010E94EE13C82FC8010E9421146F
:102960008C2369F0F80182859385009731F7148AEA
:10297000F8011382128282E003C081E001C080E08E
:10298000CF911F910F91FF90EF90DF90CF9008951E
:10299000FC018289938920893189821B930B0895D8
:1029A000FC0184859585009771F48489823021F437
:1029B00083E0848B80E008959091C80581E091FDCB
:1029C00003C080E0089581E00895FF920F931F9364
:1029D000CF93DF938C01F62EDC0112968D919C91A2
:1029E0001397009731F0B1E084339B0709F08BC057
:1029F00016C0F8016085718542895389C8010E9619
:102A00000E94E813D8011C968D919C911D97009708
:102A1000D9F484E391E013969C938E931297C801A6
:102A20000E94D014882309F475C082E0F801848BD9
:102A30008091CB059091CC05978386838091C005CA
:102A40009091C10595878487E8012E96A8014A5F79
:102A50005F4FB801645F7F4F22C0A881B981FA013E
:102A600080819181FC0120812C93DA018D919C91D0
:102A70001197019611969C938E9388819981019666
:102A800099838883FB018081918101979183808361
:102A90008A819B8101979B838A83F21649F18A81FF
:102AA0009B81009731F0DB018D919C9111970097EC
:102AB000A1F6F80184859585009799F4A3CFDA01F2
:102AC000ED91FC91119720810197FB019183808307
:102AD0008D919C911197019611969C938E93F2166D
:102AE00039F0DB018D919C911197009741F78ACFC6
:102AF000C8010E94C814009731F4F801148A1382A7
:102B0000128280E008C0D80113961C921E92129780
:102B100082E001C080E0DF91CF911F910F91FF9083
:102B20000895CF93DF93EC018A819B81009731F068
:102B300021E08235920709F08FC010C06885798541
:102B40004A895B89CE010E960E94E8138C859D858B
:102B50000097E1F482E591E09B838A83CE010E9495
:102B6000D014882309F47CC08DE693E00E9472267D
:102B700082E08C8B8091CB059091CC059F838E83D6
:102B80008091C0059091C1059D878C872C853D85DE
:102B90004889598924173507F8F46E817F818E851D
:102BA0009F85422F532F0E9462268C859D852E85FE
:102BB0003F85280F391F3F872E8728893989281B91
:102BC000390B398B288B2E813F81820F931F9F8376
:102BD0008E831D861C86BACF24173507D9F46E81E3
:102BE0007F818E859F85422F532F0E9462268C8580
:102BF0009D852E853F85280F391F3F872E87198A8F
:102C0000188A2E813F81820F931F9F838E831D869A
:102C10001C862AC06E817F818E859F850E946226D8
:102C2000888999892E853F85280F391F3F872E87F0
:102C30002C853D85281B390B3D872C872E813F81B4
:102C4000820F931F9F838E83198A188A0DC01C8A56
:102C50001B821A8280E005C01B821A8282E001C0BA
:102C600080E0DF91CF910895CE010E94C8140097B3
:102C700099F7EDCFCF93DF93EC011C8A1D861C865C
:102C8000798768875B8B4A8B0E960E94E8131982BE
:102C900018821B821A82DF91CF910895CF93DF9320
:102CA000EC017B836A830E948B0D99838883DF917B
:102CB000CF910895FC018081918122813381820F1F
:102CC000931F918380830895CF93DF93EC010E943B
:102CD0008B0D99838883DF91CF910895CF93DF93F4
:102CE000EC010E948B0D28813981AC01421B530BF2
:102CF0009A0181E090E04A815B812417350710F446
:102D000080E090E0DF91CF91089580913606863083
:102D100009F03EC08091C0059091C10581349105B4
:102D2000B8F10E94C01301C000000E94E51388237F
:102D3000D9F788E290E09093C1058093C005109286
:102D40002F0688E2809330061092520610925106A8
:102D50000E941E188095909590935206809351067C
:102D600010923806109237060E940D1880959095A3
:102D700090933806809337068091C0059091C105E5
:102D80000E969093C1058093C0050E94C0130895CC
:102D90000E94C01308950F931F93CF93DF938091E8
:102DA0003606863009F098C08091C0059091C10523
:102DB0008134910508F490C0C697EC01D695C7956B
:102DC0009E01220F331F2817390720F48E010F5F51
:102DD0001F4F01C08E01CE0188969093C10580934C
:102DE000C00590932F0680933006109252061092E1
:102DF00051060E941E1880959095909352068093DC
:102E0000510610923806109237060E940D188095D0
:102E1000909590933806809337068091C0059091E5
:102E2000C1050E969093C1058093C0050E94C01302
:102E300001C000000E94E5138823D9F7C8018896D5
:102E40009093C1058093C00590932F068093300620
:102E50008091CB059091CC05BC016C0F7D1F402F5C
:102E6000512F0E94622685E496E0BE010E94B117B0
:102E70008091C405809345068091C50580934606E0
:102E80008091C605809347068091C70580934806C8
:102E900010925206109251060E941E18809590952D
:102EA000909352068093510610923806109237067E
:102EB0000E940D1880959095909338068093370660
:102EC0008091C0059091C1050E969093C1058093A5
:102ED000C0050E94C01302C00E94C013DF91CF91B1
:102EE0001F910F910895CF93DF939C014150504063
:102EF000460F571F64177507E0F4FB01B081A0E08F
:102F00008181ED01C80FD11D2C0F3D1F2C173D07EE
:102F100010F42F5F3F4F3296E417F50778F3CB019B
:102F200080959095840F951F8E7F0296860F971F30
:102F300001C0CB018417950751F4FC01508140E09A
:102F4000240F351F2417350710F42F5F3F4F822FB2
:102F5000932FDF91CF9108959093250580932405B9
:102F60000895FC018381860F8093C705872F9927D9
:102F70002281280F2093C60541814093C5055081C9
:102F80005093C40530E02817390740F44F5F409351
:102F9000C505442319F45F5F5093C4058091C705AC
:102FA00090E070708617970798F48091C6058F5F40
:102FB0008093C605882361F48091C5058F5F809357
:102FC000C505882329F48091C4058F5F8093C405CB
:102FD0000895BC018091CD059091CE0508960E9480
:102FE000B117E091CD05F091CE058091C4058087A1
:102FF0008091C50581878091C60582878091C7052C
:10300000838708959C01AB0180E090E0B9010E94A4
:103010007317982789279827089580E090E06DE23C
:1030200076E044E150E00E947317009721F0982762
:103030008927982708958FEF9FEF08950F931F9387
:10304000CF93DF93CFE2D6E010912F0600E080917E
:103050003006080F111DBE01665F7F4FC8010E9735
:1030600048E050E00E947317BE016E5E7F4FA801DA
:10307000445150400E947317009721F098278927E8
:10308000982702C08FEF9FEFDF91CF911F910F9193
:1030900008951092100610920F06109212061092C8
:1030A00011061092E8051092080680E094E09093D3
:1030B0002805809327051092B8071092B707109241
:1030C000E8071092E70782E08093260508952F9283
:1030D0003F924F925F926F927F928F929F92AF92A8
:1030E000BF92CF92DF92EF92FF920F931F93CF93F5
:1030F000DF933C012B012091270530912805CC243A
:10310000DD246894D4F86FEC75E0DB0159960F2E3E
:10311000FFEE2F2EF5E03F2EF02D0F2EF9E1EF2ED2
:10312000FF24F02DE20CF31C0F2EF3EF8F2EF5E0B1
:103130009F2EF02D0F2EF3EDAF2EF5E0BF2EF02DCC
:103140002F5F3F4F8DE72030380708F47CC0960191
:103150007AC0E401888199818417950789F33093B7
:10316000280520932705109226058091E8058823DD
:10317000F9F0873011F0E0E0F0E080910806882354
:1031800029F481E080932605F80112C0873069F4A4
:10319000309741F0D8015A969C915A97828D8917A1
:1031A00018F003C0F80101C0F80182E08093260501
:1031B0003097A1F182E0818F8091290584878091E9
:1031C0002A05858780912B05868780912C05878726
:1031D0008AE591E0938B828B958B848B81E090E0E4
:1031E000918B808B138E81E0828F83E0808F168A93
:1031F00080E1878B80912705909128059827892762
:1032000098279583848357824682E3018881998138
:10321000918380838A819B81938382838E2F9F2FCA
:10322000DF91CF911F910F91FF90EF90DF90CF90A2
:10323000BF90AF909F908F907F906F905F904F90D6
:103240003F902F900895522F432FFB018C9188239C
:1032500039F0E501888199818417950709F470CFC9
:103260008101E7018881882309F073CF78CFCF935C
:10327000DF93DC01EB014091B7075091B807E09173
:10328000E707F091E807209127053091280560E0D5
:1032900070E12F5F3F4F8DE72030380708F09B012A
:1032A000922F832F48175907A1F352C03093280556
:1032B00020932705109226058091B7079091B807B3
:1032C0000097E1F580E001C081E090E020E330E08C
:1032D000829FA001839F500D929F500D1124FA01EF
:1032E000ED54F84F39F425C082E080932605E0E0E4
:1032F000F0E01FC080912705909128059827892725
:10330000982795838483D783C683109729F41082E6
:103310001182128213820BC08D919C91119791831F
:10332000808312968D919C9113979383828380E47E
:1033300080878E2F9F2FDF91CF91089581E080931A
:1033400026058091E7079091E807009769F6BCCFC2
:10335000E817F90709F49DCFA9CF1092260520910F
:103360000F06309110062817390781F4E0E0F0E0ED
:1033700002C0E1E0F0E0EE0FFF1FE15FF94F1182C4
:103380001082089582E080932605089521E020931D
:10339000260520911106309112062817390791F75A
:1033A000E8CF1092260520910F06309110062115C6
:1033B000310581F4E0E0F0E002C0E1E0F0E0EE0F82
:1033C000FF1FE15FF94F91838083089582E080932E
:1033D0002605089521E020932605209111063091BD
:1033E00012062115310591F7E8CFDF92EF92FF9297
:1033F0000F931F93CF93DF93C091CD05D091CE054E
:10340000843009F4CBC125E536E03093CC05209318
:10341000CB053093C3052093C205833081F4898D99
:103420008F70833009F068C788899989009709F0FF
:1034300063C788E08093C8050E943408E9C58230DC
:1034400009F093C080912C058F5F80932C05882311
:1034500099F480912B058F5F80932B05882361F46D
:1034600080912A058F5F80932A05882329F4809113
:1034700029058F5F809329051092C1051092C00520
:103480001092B2071092B107498D473011F04530C4
:1034900041F48A8D8F5F8A8F883709F02DC7198E86
:1034A0002BC7442309F428C788899989009709F410
:1034B00052C08A8D982F91509A8F882309F01CC78B
:1034C0008B8D883031F0942F9150923060F485309C
:1034D00051F4198E80E88093C8050E94340884E175
:1034E00080934E066FC6853048F423E030E0082E06
:1034F00002C0220F331F0A94E2F701C020E32A8F93
:103500008F5F8B8F842F90E08F7090708330910548
:10351000E1F0843091054CF48130910509F44DC3FC
:103520008230910509F0E8C60DC08630910509F496
:1035300012C58830910509F40EC58430910509F053
:10354000DBC609C510924E063BC384E08093C805D4
:103550000E943408A0C54F70433009F0CDC688E002
:103560008093C8050E94340853C5853029F5E09141
:10357000C905F091CA0584819581009709F4BCC6FC
:103580001092CE051092CD0589E496E09093CC057B
:103590008093CB059093C3058093C2051092B20728
:1035A0001092B1071092C1051092C00588E0809377
:1035B000C8050E945E02F2C080912D06853409F094
:1035C0009BC610912F0600E080913006080F111D58
:1035D0008091C0059091C1058017910708F48CC6B1
:1035E0001093C1050093C0058091330690E08F735E
:1035F0009070009709F080C680913406882309F006
:103600007BC6C0911B06D0911C06209731F4809197
:103610001D0690911E060097A1F080913D069091A5
:103620003E06C817D90709F067C620913F063091BA
:10363000400680911D0690911E062817390709F053
:103640005BC60E940D182FEF8F3F920709F054C6FA
:1036500080913606863009F4F8C0813191F18130CD
:1036600009F04AC680914106883009F045C610929B
:1036700041068091430690914406EFEF873F9E07F5
:1036800030F00996909344068093430605C008964F
:103690009093440680934306EFE1F6E0828D938D8C
:1036A00090933E0680933D06848D958D91A380A3D3
:1036B000D38FC28F80911D0690911E06958F848FA7
:1036C00018C60C5110401093C1050093C00583EB40
:1036D00097E09093CA058093C905F8E083319F076E
:1036E00008F00AC66091430670914406A091410615
:1036F000B0914206EFE1F6E0C28DD38D048D158DB9
:10370000FC0123E138E084819581009739F1861727
:10371000970721F586819781009719F08A179B07F3
:10372000E9F4408151814115510529F48281938149
:10373000009761F41CC08FEF4F3F580739F4E280C7
:10374000F3808FEFE8168FEFF80689F04C175D07CE
:1037500029F4828193810817190749F0F096F093B4
:10376000CA05E093C905E217F30768F2C5C51092D0
:10377000CE051092CD0582E08093C80589E496E0DD
:103780009093CC058093CB059093C3058093C2059D
:103790001092B2071092B1070E945E028091B107A9
:1037A0009091B207009709F4A7C59C01245E3F4F92
:1037B0003093C1052093C00530932F062093300627
:1037C000E091C905F091CA0520852093350621E1D5
:1037D00020933606089698278927982790934606BF
:1037E0008093450610924806109247068481958181
:1037F0009093420680934106868197819093440678
:103800008093430680911B0690911C0690933A0684
:103810008093390680911D0690911E0690933C0678
:1038200080933B068081918190933E0680933D0674
:10383000828193819093400680933F0685E596E0D0
:103840009093CC058093CB0532C50E941E18EFEFF4
:103850008F3F9E0709F050C52091430630914406E2
:103860004091410650914206EFE1F6E0628D738D82
:10387000048CF58DE02DCFECD5E0AFEEB5E019C0AE
:10388000D98CDD20A9F08C819D812817390781F41E
:103890008E819F814817590759F48881998168174B
:1038A000790731F48A819B81E817F90709F4A3C1EC
:1038B000A096AC17BD0720F780914E068F7382301B
:1038C000B1F430932E0520932D0540E0E42FF0E075
:1038D000EE0FFF1FE15FF94F8081918128173907B3
:1038E00009F477C04F5F423088F3409326058091FA
:1038F0004E0682FD01C584E180934E0688E290E089
:103900009093C1058093C0058EE496E020E5209356
:103910004D06FC0136973081EC01229728812083E7
:10392000DC0117972C91FC01339740814C93208345
:10393000DC0118975C91FC01349740814C935083D3
:10394000FC013997408140932605DC0115978C9145
:1039500080834C933F5F3883332371F42F5F209330
:103960004B06222349F4852F8F5F80934A068823D4
:1039700019F44F5F409349068091410690914206A9
:1039800090932E0580932D05209143063091440697
:103990003093420620934106909344068093430659
:1039A000EFE1F6E0828D938D90933E0680933D0685
:1039B000848D958D91A380A380911B0690911C0608
:1039C000938F828F80911D0690911E06958F848F14
:1039D00053C41092260530E020E0C0E0D0E04FEC68
:1039E00055E001C0322F822F90E0FC01EE0FFF1F47
:1039F000E295F295F07FFE27E07FFE27E40FF51FAA
:103A0000618D662379F4309326059C01E901CC0F82
:103A1000DD1FC295D295D07FDC27C07FDC27C15344
:103A2000DA4F25C06730E9F4209779F0880F991FA5
:103A300082959295907F9827807F9827FA01E80FCA
:103A4000F91F928D8A8D891760F4C22FD0E0CC0FB8
:103A5000DD1FC295D295D07FDC27C07FDC27C15304
:103A6000DA4F2F5F223008F4BDCF20932605209730
:103A700009F442C4D093CE05C093CD0583E08A8F6C
:103A8000888F1E8A84E08F8B1B8E809143069091D5
:103A900044069D838C8380914106909142069F83CA
:103AA0008E830FE116E0F801828D938D99838883D0
:103AB000848D958D9B838A8381E0898F80912905F0
:103AC0008C8780912A058D8780912B058E87809128
:103AD0002C058F8781E090E0998B888B81A58B875F
:103AE00080A58A8787A1898786A1888781E090E061
:103AF0000E94E917F80126A5822F90E0807F907040
:103B0000813591050CF459C022952F70422F50E059
:103B100045505040440F551F440F551F70912F05BD
:103B200060E0980140C0F901E80FF91F76A97723FA
:103B300029F46093260570932F053FC0713011F46E
:103B40006F5F31C0723019F5F901E80FF91FE7A96D
:103B5000E430E9F46093260522E020932F05FC0170
:103B6000E15EF94F30AD20E081AD90E0822B932BE8
:103B700090932E0580932D05F1E08B359F0710F073
:103B80008AE591E09B8B8A8B9D8B8C8B16C0820F74
:103B9000931FFC0187A9882329F46093260570935D
:103BA0002F050BC0680F862F90E0841795070CF443
:103BB000BACF6093260570932F0580E180934E065F
:103BC00080914E06826080934E0682E08093550677
:103BD00084E08093560681E0809357068AE58093BF
:103BE00058068CE290E09093C1058093C00580E672
:103BF00080934D06F0C27E01D093CE05C093CD05D3
:103C00001092C80520914E0630E022FF07C0198EA1
:103C100080E28093C8050E9434086EC380914D06EF
:103C200082958F70880F880F80932605081B1109D5
:103C3000045110401093C1050093C0058D2D8F7065
:103C4000823031F4C9018F7390708231910509F18E
:103C50000115110529F4C901837090700097C9F00E
:103C600090914506F7018085981709F0A8C29091B8
:103C700046068185981709F0A2C290914706828571
:103C8000981709F09CC2909148068385981709F00F
:103C900096C224FF4FC0F7016089718961157105D3
:103CA00009F448C0C7010C960E94B117309149062B
:103CB0008091C4053817F1F520914A068091C50519
:103CC0002817C1F590914B068091C605981791F57C
:103CD00080914C064091C705841761F5F701348740
:103CE000258796878787838D8823E1F49689808D41
:103CF000228D821B292F269526952695821B282FFB
:103D0000980F968B88230CF42195F7018789382F1B
:103D100036953695831B820F878B9695969596954B
:103D2000890F808F81E08093C805F701808D828F95
:103D3000118A108AF701418D50E0CA018F7090708E
:103D40008430910509F4DCC18530910564F482303A
:103D50009105C1F1833091050CF0D2C081309105FD
:103D600009F0CAC211C08630910509F41FC286301D
:103D700091050CF4FAC18730910509F420C288300E
:103D8000910509F0B9C2B0C18091C80580FFB4C2E5
:103D900083E0F701818F80E48093C805118A108A3F
:103DA0008091C0059091C105009729F022E42093ED
:103DB000C8050E94E9171092B2071092B1070E943D
:103DC000340826C18091C80580FF8FC080914E06BF
:103DD0008F73823109F089C020914D06822F90E0C7
:103DE000807F9070813591050CF45BC022952F7017
:103DF000622F70E065507040660F771F660F771F67
:103E000030912F0520E04FE156E041C0FA01E80F64
:103E1000F91F36A9332329F42093260530932F0563
:103E200040C0313011F42F5F32C0323021F5FA0139
:103E3000E80FF91FE7A9E430F1F42093260522E00A
:103E400020932F05FC01E15EF94F30AD20E081ADFC
:103E500090E0822B932B90932E0580932D05F1E01B
:103E60008B359F0710F08AE591E0F701938B828BE9
:103E7000958B848B16C0FA01E80FF91F87A9882358
:103E800029F42093260530932F050BC0280F822F8D
:103E900090E0861797070CF4B9CF2093260530934E
:103EA0002F0583E0F701818F8091450680878091FF
:103EB00046068187809147068287809148068387DE
:103EC00081E090E00E94E91782E48093C805F70141
:103ED000118A108A1092C1051092C0051092B20783
:103EE0001092B1070E94340893C080E28093C80505
:103EF0000E943408E091CD05F091CE05118EF7CCEB
:103F000080914E0680FF2BC044FD29C0F7018089B7
:103F10009189009709F0F0C18091C0059091C10589
:103F200001960E94E9172091C80520612093C805D9
:103F30008091C0059091C105009719F022602093EF
:103F4000C8050E94340881E090E0F701918B808BD6
:103F500088E0818F138E81E180934E0633C185FF07
:103F60001CC03091530620E08091540690E0282B2D
:103F7000392B8091CB059091CC05820F931F9093A4
:103F8000CC058093CB058091C0059091C105821B23
:103F9000930B9093C1058093C0058091C0059091CB
:103FA000C105009749F044FD07C02091C805226073
:103FB0002093C8050E94E91790914F0680E0209158
:103FC0005006820F911D90932E0580932D05F701C9
:103FD000248935892817390710F0009721F4309388
:103FE0002E0520932D0580912D0590912E05F7012A
:103FF000938B828B8091C80590E0837090700097BE
:1040000009F47AC11092B2071092B1070E943408E5
:104010002091C80525FF09C01092B2071092B10780
:10402000198E84E180934E06CDC024FF0FC01092FC
:10403000B2071092B10781E090E0998B888B84E001
:10404000898F1B8E81E180934E06BCC08091B107A1
:104050009091B2070097F1F020FF03C0198A188AE7
:1040600005C0288939892115310581F42A893B89C0
:104070002817390720F43093B2072093B1078091B5
:10408000B1079091B207998B888B04C03093B20727
:104090002093B1071B8E8091C2059091C305909328
:1040A000CC058093CB058091B1079091B207009722
:1040B00069F088899989009749F088969093C1059D
:1040C0008093C00588E180934E0682C08091C80528
:1040D00081FF12C188E290E09093C1058093C005F2
:1040E00080E180934E0674C08091C80580FF04C1B2
:1040F000F701118E80E18093C8050E943408FCC04E
:104100008091C0059091C105009711F00E94E917B8
:1041100080914E0680FF18C08091C80580FF07C0BF
:1041200087E0F701818F128E118A108A03C086E022
:10413000F701818F81E090E00E94E91780E1809390
:10414000C8050E9434083BC08091C80580FF06C0A6
:1041500085E0F701818F118A108ACEC08091C00559
:104160009091C105009759F5C7C08091C005909105
:10417000C105009711F00E94E91780914E0680FF5B
:104180000EC087E0F701818F128E81E090E00E94DF
:10419000E91780E18093C8050E94340810C080911F
:1041A000C0059091C105009751F4A6C08091C80543
:1041B00080FFA2C087E0F701818F128E9DC080E151
:1041C00080934E0688E290E09093C1058093C005ED
:1041D00080E580934D068885809349068985809384
:1041E0004A068A8580934B068B8580934C068C8586
:1041F000809345068D85809346068E85809347067D
:104200008F858093480686E0809336068C819D8159
:1042100090934206809341068E819F81909344063D
:104220008093430680911B0690911C0690933A065A
:104230008093390680911D0690911E0690933C064E
:1042400080933B068881998190933E0680933D063A
:104250008A819B819093400680933F06898D84FFDD
:1042600005C01092500610924F0606C081E0809360
:104270004F068AE58093500680E48093350680914E
:10428000C0059091C10590932F068093300610923F
:1042900054061092530610925206109251060E9434
:1042A0001E1880959095909352068093510685E450
:1042B00080932D0610922E0610923406109233062B
:1042C0008091240590912505019690932505809372
:1042D000240590933106809332061092380610928E
:1042E00037060E940D18809590959093380680931C
:1042F00037061092C80506C01092C1051092C0057D
:104300001092C805DF91CF911F910F91FF90EF9010
:10431000DF9008959C01161617068CF4462F572F30
:104320006093B1077093B2078091C2059091C30565
:104330002817390721F0622F732F0E9462260895F3
:10434000EF92FF920F931F93CF93DF938C01F62E82
:10435000E72E1092300540E050E0A0E09A01220FD5
:10436000331FCA01880F991F880F991F880F991F43
:10437000F901E80FF91FE40FF51FEF5CFA4F808198
:1043800091810097F9F06281738161157105D1F017
:10439000E8012881398182179307A1F48A819B81E2
:1043A0006817790779F4A0933005DF011496CF2DB3
:1043B000DE2D86E009900D928150E1F7809189050C
:1043C00082878AC0A42FAF5F4F5F5F4F483051058F
:1043D00029F640E050E070E0642F9A01220F331F6D
:1043E000CA01880F991F880F991F880F991FF9011B
:1043F000E80FF91FE40FF51FEF5CFA4F8081918100
:10440000009741F482819381009721F470933005E5
:10441000742F09C0762F7F5F4F5F5F4F4830510583
:10442000D9F670933005783009F042C0B091890513
:10443000CB2FD0E060E0A0E040E050E0CA01880F60
:10444000991F9A01220F331F220F331F220F331F90
:10445000FC01E20FF31FE40FF51FEF5CFA4FE2855A
:10446000CE018E1B9109262F30E0281739071CF446
:104470006B2F6E1BA42F4F5F5F4F48305105F1F635
:1044800060938A05A0938B05A09330052A2F30E016
:10449000F901EE0FFF1FC901880F991F880F991F9F
:1044A000880F991FE80FF91FE20FF31FEF5CFA4F17
:1044B000D8014D915D916D917C91DF014D935D939C
:1044C0006D937D93CF2DDE2D86E009900D92815066
:1044D000E1F7809189058287DF91CF911F910F913C
:1044E000FF90EF90089580E090E0FC01EE0FFF1F39
:1044F0009C01220F331F220F331F220F331FE20FA5
:10450000F31FE80FF91FEF5CFA4F1082118212823D
:104510001382282F2F5F2093300501968830910554
:1045200021F70895809189058F5F80938905109206
:10453000300580E090E0FC01EE0FFF1F9C01220F90
:10454000331F220F331F220F331FE20FF31FE80F19
:10455000F91FEF5CFA4F8281938120813181822B98
:10456000932B009769F08091890590E02285821B4A
:1045700091098837910524F01082118212821382EA
:10458000809130058F5F80933005883098F20895D0
:104590000F931F93CF93DF938091C0059091C10536
:1045A0008A32910528F41092C1051092C005A4C06A
:1045B0001092C1051092C005809133069091340687
:1045C00021E08030920731F022E08030920709F03C
:1045D00093C075C0209145063091460680911B0618
:1045E00090911C062817390709F086C020914706CC
:1045F0003091480680911D0690911E0628173907B4
:1046000009F07AC0CBE3D6E08E0106501040CE010F
:10461000B8010E94A02180E092E09093340680933C
:1046200033062496F80186E0019009928150E1F763
:10463000A5E3B6E0EEE1F5E086E001900D92815051
:10464000E1F7A5E2B6E0EEE1F5E086E001900D923B
:104650008150E1F7EFE1F6E0DF01B09686E00190EE
:104660000D928150E1F7A5E4B6E0FD013A97808113
:104670009181909346068093450618978D919C9161
:104680001197909348068093470680911B0690915E
:104690001C069183808380911D0690911E061196C1
:1046A0009C938E9388E096E090932C0680932B0643
:1046B0008AE290E09093C1058093C0051DC02091CF
:1046C00045063091460680911B0690911C062817DE
:1046D000390791F4209147063091480680911D06D4
:1046E00090911E062817390739F48BE396E0BC0138
:1046F000665070400E94A021DF91CF911F910F91D1
:104700000895CF93DF9340913D0650913E062FEFE1
:104710004F3F520791F480913F0690914006AFEFD2
:104720008F3F9A0751F4AFE1B6E0E0E8F3E086E0AE
:1047300001900D928150E1F7E2C080911B069091AB
:104740001C0684279527209117063091180682238E
:104750009323009791F460913F0670914006209159
:104760001D0630911E062627372780911906909145
:104770001A0682239323009789F080911306909163
:10478000140690938D0580938C0580911506909169
:10479000160690938F0580938E0508C050938D0563
:1047A00040938C0570938F0560938E05A0918C05C6
:1047B000B0918D05C0918E05D0918F0540E050E0FD
:1047C00070E0642FCA01880F991F9A01220F331FCE
:1047D000220F331F220F331FFC01E20FF31FE40FE0
:1047E000F51FEF5CFA4F80819181A817B90749F452
:1047F00082819381C817D90721F470933005742FF3
:1048000009C0762F7F5F4F5F5F4F48305105C9F673
:1048100070933005783009F06AC0CFE1D6E0CE0160
:104820006FEF70E046E050E00E946B26FE01B0960C
:1048300086E0DF011D928A95E9F72696EEE1F5E024
:1048400086E0019009928150E1F7A5E3B6E0EEE140
:10485000F5E086E001900D928150E1F780918C05A2
:1048600090918D05909346068093450680918E0524
:1048700090918F05909348068093470680911B0680
:1048800090911C0690933C0680933B0680911D06F8
:1048900090911E0690933E0680933D0680E091E045
:1048A000909334068093330690932E0680932D06C2
:1048B00088E090E09093300680932F0686E0809306
:1048C000310684E08093320688E096E090932C06CF
:1048D00080932B0685E596E09093CC058093CB05DD
:1048E0008AE290E09093C1058093C00520C0AFE1BB
:1048F000B6E0349686E001900D928150E1F7A5E292
:10490000B6E0EEE1F5E086E001900D928150E1F72E
:1049100088E090E090932C0680932B068091C00550
:104920009091C1050E969093C1058093C005DF91CB
:10493000CF9108950CD0E6C0DED040F0D5D030F055
:1049400021F45F3F19F0C7C0511110C1CAC0EBD0AC
:1049500098F39923C9F35523B1F3951B550BBB2746
:10496000AA2762177307840738F09F5F5F4F220FF3
:10497000331F441FAA1FA9F333D00E2E3AF0E0E8EC
:1049800030D091505040E695001CCAF729D0FE2F38
:1049900027D0660F771F881FBB1F261737074807CA
:1049A000AB07B0E809F0BB0B802DBF01FF27935880
:1049B0005F4F2AF09E3F510568F08DC0D7C05F3F22
:1049C000ECF3983EDCF3869577956795B795F79568
:1049D0009F5FC9F7880F911D9695879597F9089560
:1049E000E1E0660F771F881FBB1F621773078407FC
:1049F000BA0720F0621B730B840BBA0BEE1F88F70B
:104A0000E095089598D088F09F5790F0B92F992796
:104A1000B751A0F0D1F0660F771F881F991F1AF0C9
:104A2000BA95C9F712C0B13081F09FD0B1E00895B6
:104A30009CC0672F782F8827B85F39F0B93FCCF337
:104A4000869577956795B395D9F73EF490958095BF
:104A5000709561957F4F8F4F9F4F0895E89409C0DF
:104A600097FB3EF490958095709561957F4F8F4FA1
:104A70009F4F9923A9F0F92F96E9BB279395F695B7
:104A8000879577956795B795F111F8CFFAF4BB0F35
:104A900011F460FF1BC06F5F7F4F8F4F9F4F16C099
:104AA000882311F096E911C0772321F09EE8872F23
:104AB000762F05C0662371F096E8862F70E060E0DF
:104AC0002AF09A95660F771F881FDAF7880F969558
:104AD000879597F9089597F99F6780E870E060E0FF
:104AE00008959FEF80EC089500240A941616170687
:104AF00018060906089500240A94121613061406CF
:104B000005060895092E0394000C11F4882352F031
:104B1000BB0F40F4BF2B11F460FF04C06F5F7F4FE9
:104B20008F4F9F4F089557FD9058440F551F59F0D0
:104B30005F3F71F04795880F97FB991F61F09F3F8A
:104B400079F087950895121613061406551FF2CFB3
:104B50004695F1DF08C0161617061806991FF1CF03
:104B600086957105610508940895E894BB2766272A
:104B70007727CB0197F908950BD0C4CFB5DF28F084
:104B8000BADF18F0952309F0A6CFABCF1124EECFF2
:104B9000CADFA0F3959FD1F3950F50E0551F629F98
:104BA000F001729FBB27F00DB11D639FAA27F00D86
:104BB000B11DAA1F649F6627B00DA11D661F829FAD
:104BC0002227B00DA11D621F739FB00DA11D621F92
:104BD000839FA00D611D221F749F3327A00D611DAF
:104BE000231F849F600D211D822F762F6A2F112491
:104BF0009F5750408AF0E1F088234AF0EE0FFF1FE4
:104C0000BB1F661F771F881F91505040A9F79E3F1A
:104C1000510570F060CFAACF5F3FECF3983EDCF314
:104C2000869577956795B795F795E7959F5FC1F757
:104C3000FE2B880F911D9695879597F90895AA1BCD
:104C4000BB1B51E107C0AA1FBB1FA617B70710F077
:104C5000A61BB70B881F991F5A95A9F780959095A9
:104C6000BC01CD010895A1E21A2EAA1BBB1BFD01B8
:104C70000DC0AA1FBB1FEE1FFF1FA217B307E4073B
:104C8000F50720F0A21BB30BE40BF50B661F771F93
:104C9000881F991F1A9469F7609570958095909573
:104CA0009B01AC01BD01CF010895FB01DC0104C0F3
:104CB0008D910190801921F441505040C8F7881B14
:104CC000990B0895FB01DC0102C001900D92415047
:104CD0005040D8F70895DC0101C06D934150504019
:104CE000E0F708950F931F93CF93DF938C01E0912A
:104CF0001508F0911608838181FF1AC0C0E0D0E04A
:104D000005C00995009711F0CFEFDFEFF801819111
:104D10008F016091150870911608DB011896ED91CE
:104D2000FC911997882369F78AE00995009711F09B
:104D3000CFEFDFEFCE01DF91CF911F910F9108955B
:104D40000F931F93CF93DF93CDB7DEB72E970FB698
:104D5000F894DEBF0FBECDBF0D891E898F89988D57
:104D600026E02C831A83098397FF02C080E090E835
:104D700001979E838D83AE01455E5F4FCE01019604
:104D8000698D7A8D0E9444274D815E8157FD0AC04E
:104D90002F813885421753070CF49A01020F131F15
:104DA000F80110822E960FB6F894DEBF0FBECDBF6D
:104DB000DF91CF911F910F9108950F931F93CF9380
:104DC000DF93CDB7DEB72E970FB6F894DEBF0FBED8
:104DD000CDBF0D891E8986E08C831A8309838FEFEE
:104DE0009FE79E838D83AE01475E5F4FCE010196A4
:104DF0006F89788D0E944427EF81F885E00FF11FBD
:104E000010822E960FB6F894DEBF0FBECDBFDF9195
:104E1000CF911F910F9108950F931F93CF93DF931D
:104E2000CDB7DEB72E970FB6F894DEBF0FBECDBF5D
:104E30008C0186E08C831A83098377FF02C060E0CF
:104E400070E8615070407E836D83CE010196BA0197
:104E5000A9010E9444274D815E8157FD0AC02F8120
:104E60003885421753070CF49A01020F131FF801FB
:104E700010822E960FB6F894DEBF0FBECDBFDF9125
:104E8000CF911F910F9108952F923F924F925F9271
:104E90006F927F928F929F92AF92BF92CF92DF924A
:104EA000EF92FF920F931F93CF93DF93CDB7DEB7AF
:104EB0002D970FB6F894DEBF0FBECDBF3C017D87A6
:104EC0006C875A01FC0117821682838181FFC8C159
:104ED0002E010894411C511CF3019381EC85FD8542
:104EE00093FD859193FF8191FD87EC87882309F4D9
:104EF000B3C1853241F493FD859193FF8191FD8784
:104F0000EC87853229F490E0B3010E946129E4CF57
:104F1000FF24EE2410E01032B0F48B3269F08C32B2
:104F200028F4803251F0833271F40BC08D3239F0A5
:104F3000803349F411602CC01260146029C01860DD
:104F400027C0106125C017FD2EC0282F20532A30FE
:104F500098F416FF08C08F2D880FF82EFF0CFF0C59
:104F6000F80EF20E15C08E2D880FE82EEE0CEE0C0A
:104F7000E80EE20E10620CC08E3221F416FD6CC1F8
:104F8000106406C08C3611F4106802C0883659F4DB
:104F9000EC85FD8593FD859193FF8191FD87EC87DD
:104FA000882309F0B8CF982F9554933018F0905279
:104FB000933038F424E030E0A20EB31E3FE339838F
:104FC0000FC0833631F0833781F0833509F05AC042
:104FD00022C0F5018081898322E030E0A20EB31E59
:104FE00021E0C22ED12C420114C092E0292E312C96
:104FF0002A0C3B1CF5018080918016FF03C06F2DA9
:1050000070E002C06FEF7FEFC4010E9456296C016F
:1050100051011F7715C082E0282E312C2A0C3B1C31
:10502000F5018080918016FF03C06F2D70E002C0F3
:105030006FEF7FEFC4010E944B296C011068510192
:1050400013FD1CC006C080E290E0B3010E946129FC
:10505000EA948E2D90E0C816D906A8F30FC0F4018B
:1050600017FD859117FF81914F0190E0B3010E94D8
:105070006129E110EA940894C108D108C114D1044F
:1050800071F7E7C0843611F0893651F5F50117FF45
:1050900007C080819181A281B38124E030E008C003
:1050A00080819181AA2797FDA095BA2F22E030E058
:1050B000A20EB31E012F0F76B7FF08C0B095A095C2
:1050C000909581959F4FAF4FBF4F0068BC01CD01B8
:1050D000A2012AE030E00E948D29D82ED4183FC0CA
:1050E000853721F41F7E2AE030E020C0197F8F36FB
:1050F000A9F0803720F4883509F0AEC00BC08037A6
:1051000021F0883709F0A8C001C0106114FF09C060
:10511000146007C014FF08C0166006C028E030E025
:1051200005C020E130E002C020E132E0F50117FFC8
:1051300007C0608171818281938144E050E006C0A4
:105140006081718180E090E042E050E0A40EB51EE5
:10515000A2010E948D29D82ED418012F0F7706FFA7
:1051600009C00E7FDF1430F404FF06C002FD04C046
:105170000F7E02C01D2D01C01F2D802F90E004FF67
:105180000CC0FE01ED0DF11D2081203311F4097ECC
:1051900009C002FF06C01E5F05C0867890700097A8
:1051A00009F01F5F802E992403FD12C000FF0DC07F
:1051B000FD2C1E1550F4FE0CF11A1E2D06C080E2C7
:1051C00090E0B3010E9461291F5F1E15C0F304C067
:1051D0001E1510F4E11A01C0EE2484FE0FC080E316
:1051E00090E0B3010E94612982FE1FC081FE03C0CE
:1051F00088E590E010C088E790E00DC0C401867893
:105200009070009791F081FC02C080E201C08BE2B7
:1052100007FD8DE290E0B3010E94612906C080E3A2
:1052200090E0B3010E946129FA94DF14C0F3DA948C
:10523000F201ED0DF11D808190E0B3010E94612922
:10524000DD20A9F706C080E290E0B3010E94612949
:10525000EA94EE20C1F740CEF3018681978102C027
:105260008FEF9FEF2D960FB6F894DEBF0FBECDBF28
:10527000DF91CF911F910F91FF90EF90DF90CF9032
:10528000BF90AF909F908F907F906F905F904F9066
:105290003F902F900895FC010590615070400110DF
:1052A000D8F7809590958E0F9F1F0895FC0161504F
:1052B000704001900110D8F7809590958E0F9F1F38
:1052C00008950F931F93CF93DF938C01EB018B8194
:1052D00081FF1BC082FF0DC02E813F818C819D818B
:1052E0002817390764F4E881F9810193F983E88389
:1052F00006C0E885F985802F0995009731F48E81E5
:105300009F8101969F838E8302C00FEF1FEFC8011C
:10531000DF91CF911F910F910895FA01AA272830AC
:1053200051F1203181F1E8946F936E7F6E5F7F4F72
:105330008F4F9F4FAF4FB1E03ED0B4E03CD0670FEE
:10534000781F891F9A1FA11D680F791F8A1F911D41
:10535000A11D6A0F711D811D911DA11D20D009F491
:1053600068943F912AE0269F11243019305D3193D3
:10537000DEF6CF010895462F4770405D4193B3E0BC
:105380000FD0C9F7F6CF462F4F70405D4A3318F063
:10539000495D31FD4052419302D0A9F7EACFB4E014
:1053A000A6959795879577956795BA95C9F70097CC
:1053B0006105710508959B01AC010A2E069457956D
:1053C000479537952795BA95C9F7620F731F841FC4
:0A53D000951FA01D0895F894FFCF6B
:1053DA0025642525202000ADDE1223638253632035
:1053EA002020202045434F544953202020202000CC
:1053FA00536D617274546F6E657253797374656D0F
:10540A00004C6F6164696E672053797374656D2E01
:10541A002E00204B3A4620433A46204D3A46205920
:10542A003A4600204B3A4C20433A46204D3A462011
:10543A00593A4600204C6F7720746F6E657220428D
:10544A006C61636B20004C6F6164696E6720746FD6
:10545A006E65722E2E2E00204B3A4620433A4C207F
:10546A004D3A4620593A4600204C6F7720746F6EA9
:10547A006572204379616E2000204B3A4620433AF8
:10548A0046204D3A4C20593A46004C6F7720746FAB
:10549A006E6572204D6167656E746100204B3A46F5
:1054AA0020433A46204D3A4620593A4C004C6F77F1
:1054BA0020746F6E65722059656C6F77002F53796F
:1054CA007374656D312F746F6E65725F737570706A
:1054DA006C7931002F53797374656D312F746F6E47
:1054EA0065725F737570706C7932002F53797374BB
:1054FA00656D312F746F6E65725F737570706C793C
:10550A0033002F53797374656D312F746F6E657222
:10551A005F737570706C7934002564002F5379734A
:10552A0074656D312F626B5F636F756E74002F53F4
:10553A00797374656D312F635F636F756E74002FB5
:10554A0053797374656D312F6D5F636F756E740077
:10555A002F53797374656D312F795F636F756E742C
:10556A0000202020202045636F54697320202020CA
:10557A00200049503A2025642E25642E25642E25C4
:10558A006420202020200049503A25642E25642ECC
:10559A0025642E25642000656E6332386A36305FD2
:1055AA006176725F636C69656E74002F23002564EF
:1055BA002E25642E25642E2564002F537973746575
:1055CA006D31002F53797374656D312F696E666F73
:1055DA000045636F7469735F53797374656D5F53C4
:1055EA002F4E3A33343631323336313233000000FB
:1055FA000000C0A80101FFFFFF00C0A8013200BDE2
:10560A003B330572BB039600000000005104C8003A
:10561A0000000000000000000000620D0000000011
:10562A00000000000000000000000000000001006F
:10563A000800200040008000000100040157616951
:10564A0074656420666F72206E65776461746100A8
:06565A00FFFFFFFFFFFF50
:00000001FF
