:100000000C9446000C9466000C9466000C946600F8
:100010000C9466000C9466000C9466000C946600C8
:100020000C9466000C945D130C9466000C946600AE
:100030000C9466000C9466000C9466000C946600A8
:100040000C9466000C9466000C9466000C94660098
:100050000C9466000C9466000C9466000C94660088
:100060000C9466000C9466000C9466000C94660078
:100070000C9466000C9466000C9466000C94660068
:100080000C9466000C9466000C94660011241FBE4C
:10009000CFEFD0E1DEBFCDBF13E0A0E0B1E0EEEEE8
:1000A000FFE400E00BBF02C007900D92A038B1073B
:1000B000D9F71BBE18E0A0E8B3E001C01D92A9303B
:1000C000B107E1F70E94EA100C94F5270C940000A8
:1000D00086B1876886B987B1806C87B90895369AEA
:1000E0003699FECF84B195B10895FC0185E38083F4
:1000F00081E081836283CF01039608952FEFFC0195
:100100002193CF010895CF93DF93EC0181E08883A1
:10011000898380918D038A831B8280910001909155
:100120000101A0910201B09103018C839D83AE83F4
:10013000BF831986188680E890E09B878A87809124
:100140000B0690910C06A0910D06B0910E068C87BF
:100150009D87AE87BF87188A198A1A8A1B8A1C8ACC
:100160001D8A1E8A1F8A188E198E1A8E1B8ECE012A
:100170004C96EBE8F3E06081718140918D035091E2
:100180008E030E94A92480918D0390918E0340E1FB
:1001900050E0481B590B4C968C0F9D1F60E070E09F
:1001A0000E94B224CE018C96E82FF92F80E4DF0163
:1001B0001D928A95E9F7CE0184599F4FE82FF92FB8
:1001C00080E8DF011D928A95E9F7C451DF4F8091E5
:1001D000040190910501A0910601B0910701888367
:1001E0009983AA83BB83DF91CF910895AF92BF9289
:1001F000CF92DF92EF92FF920F931F93CF93DF93F3
:10020000C091BB05D091BC058881823009F0A3C0A4
:10021000CE01049660E071E044E050E00E949C242E
:10022000282F392F2115310509F097C060918B03D4
:1002300070918C0340918D0350918E03CE014C96AA
:100240000E949C24282F392F2115310509F087C0E1
:1002500088899989AA89BB89809397039093980389
:10026000A0939903B0939A03C051DF4F4091B0051A
:100270005091B1054C0F5D1FC417D50708F069C038
:1002800080E00F2EF3E9AF2EF3E0BF2EF02DAFE8A4
:10029000B3E063EA73E00F2EFFE9EF2EF3E0FF2EE9
:1002A000F02D0F2EFBE9CF2EF3E0DF2EF02D9881FD
:1002B0009333D9F1943338F49330B9F09630F9F0A0
:1002C0009130E1F508C0963331F19F3F09F448C001
:1002D0009533A1F51EC00A811B812C813D81F60159
:1002E000008311832283338329C00A811B812C81DF
:1002F0003D81FB0100831183228333831FC00A8168
:100300001B812C813D81F70100831183228333837C
:1003100015C08A8113C00A811B812C813D810D93F8
:100320001D932D933C93139709C00A811B812C8147
:100330003D81F5010083118322833383298130E0DD
:100340002E5F3F4FC20FD31FC417D50708F4AFCF9E
:1003500007C080E005C080E003C080E001C080E00D
:10036000DF91CF911F910F91FF90EF90DF90CF9091
:10037000BF90AF900895CF93DF9300D000D0CDB75A
:10038000DEB790938C0380938B0370938E036093FE
:100390008D03109282038FEF9FEF9A8389839C8352
:1003A0008B83CE01019660E073E40E940319909361
:1003B000840380938303009729F020E034E4FC0158
:1003C0003583248310928103109280030F900F9045
:1003D0000F900F90DF91CF910895CF93DF9380918D
:1003E00080039091810321E08131920709F44FC08D
:1003F00021E08231920718F4009761F0FBC021E000
:100400008532920709F4BCC021E08235920709F0D9
:10041000F1C0E9C081E08093820388EE93E090937D
:100420008A0380938903C091BB05D091BC05CE019E
:100430000E948300CE0180519F4F61E00E947500B1
:10044000FC0187E3808383E0818391E0928383834F
:1004500086E08483CF0105960E947E002091BB0533
:100460003091BC05BC01621B730BC9010E9456216F
:100470006091890370918A0385E893E00E941A16BF
:1004800081E191E09093810380938003B7C08091D4
:10049000B80581FD0BC085E893E00E943A160097ED
:1004A00009F4ACC08091B80581FF07C00E94F60036
:1004B000823019F48093820313C080918903909154
:1004C0008A032AEE8036920730F4880F991F9093A2
:1004D0008A038093890380918203823009F0A3CF3D
:1004E00088EE93E090938A0380938903C091BB05C3
:1004F000D091BC05CE010E948300CE0180519F4F58
:1005000063E00E947500FC0186E3808324E0218380
:1005100080918F0390919003A0919103B0919203E9
:1005200082839383A483B58382E386832783409168
:100530009703509198036091990370919A034087B3
:10054000518762877387CF010C960E947E002091AD
:10055000BB053091BC05BC01621B730BC9010E9435
:1005600056216091890370918A0385E893E00E9487
:100570001A1685E291E090938103809380033EC038
:100580008091B80581FD0AC085E893E00E943A1683
:100590000097A1F18091B80581FF08C00E94F60084
:1005A000853021F483E08093820319C08091890310
:1005B00090918A0327E28131920760F488519C4F21
:1005C00090938A038093890380918203833009F09A
:1005D0008DCF05C010928103109280030FC080E878
:1005E00093E00E94040F82E591E090938103809351
:1005F000800304C01092810310928003DF91CF9199
:10060000089580918203882341F410920C06109281
:100610000B0610920E0610920D060895D89A90E1DE
:100620009A95F1F700C09BB3937C9BBB9BB3880F5B
:10063000880F892B8BBBD89880E18A95F1F700C091
:100640000895CF93C82F662311F4D99801C0D99A81
:100650008C2F82958F700E940E038C2F0E940E03A8
:10066000CF91089561E00E94210308956295660F7D
:10067000660F607C860F806860E00E942103089509
:1006800085EA9EE00197F1F700C0000083E00E9438
:100690000E0387EE93E00197F1F700C0000083E0BE
:1006A0000E940E0391E29A95F1F7000083E00E9408
:1006B0000E0389EF90E00197F1F700C0000082E09F
:1006C0000E940E0389EF90E00197F1F700C000004F
:1006D00088E260E00E94210389EF90E00197F1F742
:1006E00000C000008CE060E00E94210389EF90E0F0
:1006F0000197F1F700C0000086E060E00E9421034E
:1007000089EF90E00197F1F700C00000089581E0C3
:1007100060E00E94210386E791E00197F1F700C0B5
:10072000000008950F931F93CF938C01FC018081EB
:10073000882351F0C0E00E943203CF5FF801EC0F34
:10074000F11D80818823B9F7CF911F910F910895F2
:100750009C01FB0140E050E0C9018F779070220FAF
:10076000232F221F330B31952115310529F0806885
:1007700081934F5F5F4FF0CF640F751FFB01808344
:10078000CA0101960895FC0180819181958384833B
:10079000178216820895EF92FF920F931F93CF93C3
:1007A000DF93EC018B019A01E881F9816A817B81F9
:1007B000CB0101977F01E80EF91E8C819D814E814E
:1007C0005F812115310511F18E1B9F0B840F951F41
:1007D0000E946624E80FF91FEE16FF0610F4E88168
:1007E000F9818E819F81009729F08C819D818E17E0
:1007F0009F0761F0D8018D918D0181938E819F813A
:1008000001969F838E832150304031F7822F932FA2
:10081000DF91CF911F910F91FF90EF9008950F936B
:100820001F93CF93DF93EC01F62FE72F8A014C81C2
:100830005D812A813B812150304088819981BC01B2
:10084000620F731F01151105E9F08E819F810097DA
:10085000E1F0AF2FBE2F20E030E0FA01E20FF31FEE
:1008600080818D936417750710F4488159812F5F3B
:100870003F4F2017310759F08E819F812817390784
:1008800060F305C020E030E002C020E030E0822FBD
:10089000932FDF91CF911F910F9108950F931F9385
:1008A000CF93DF93DC01F62FE72F8A0112968D910B
:1008B0009C91139701972D913C911197B901680F65
:1008C000791F41155105D1F116968D919C9117977D
:1008D0000097B9F1CF2FDE2F40E050E01496ED9154
:1008E000FC9115978081899314968D919C91159711
:1008F0009C012F5F3F4F15963C932E9314971696AD
:100900008D919C911797019717969C938E931697AC
:100910006217730738F48D919C91119715969C93EB
:100920008E9314974F5F5F4F4017510761F01696F3
:100930008D919C911797009789F605C040E050E093
:1009400002C040E050E0842F952FDF91CF911F919E
:100950000F910895FC0111A6178E168E138E128E1C
:10096000158E148E81E090E091A380A30895EF92FC
:10097000FF920F931F93CF93DF93CDB7DEB76397AB
:100980000FB6F894DEBF0FBECDBF8C01DC015296CE
:10099000EC9152975396FC91DF010D900020E9F7FE
:1009A00011977D01EE1AFF0A08960E94C303802F5B
:1009B000912F0E94C303F80111A6178E168E138E75
:1009C000128E158E148E81E090E091A380A380E1B9
:1009D000898B1D8286E08E838DE48F8381E58887F5
:1009E00089E4898783E78A8784E68B8780E78C8719
:1009F00083E08D8782E08E87808991899F87888BAD
:100A00009E2D8F2D9B8B8A8B802F912FBE016F5E29
:100A10007F4F41E050E00E94CB03C7010E96BE011C
:100A20006F5F7F4F0E94A803AC01802F912FBE0102
:100A30006F5F7F4F0E94CB03802F912FBE016B5FB2
:100A40007F4F4CE050E00E94CB03802F912FBE01DE
:100A50006E5E7F4F42E050E00E94CB03D801529679
:100A60006D917C915397802F912FA7010E94CB030A
:100A700081E0F80181A7008CF18DE02D309711F015
:100A8000C801099563960FB6F894DEBF0FBECDBFBF
:100A9000DF91CF911F910F91FF90EF900895CF922A
:100AA000DF92EF92FF920F931F93CF93DF93CDB717
:100AB000DEB72A970FB6F894DEBF0FBECDBF8C010C
:100AC000F62EE72EE62FF72FDF010D900020E9F735
:100AD00011976D01CE1ADF0A1F8282E88887D8013C
:100AE00090968D919C9191979D838E83019691967E
:100AF0009C938E9390979C2D8D2D9A878987802F1C
:100B0000912FBE01685F7F4F41E050E00E94CB0310
:100B1000C6010596BE016F5F7F4F0E94A803AC011E
:100B2000802F912FBE016F5F7F4F0E94CB03802FDC
:100B3000912FBE016B5F7F4F42E050E00E94CB03DC
:100B4000802F912FBE01675F7F4F42E050E00E94EF
:100B5000CB03802F912F6F2D7E2DA6010E94CB03FA
:100B6000802F912FBE01695F7F4F41E050E00E94CE
:100B7000CB03F801848D958D0196958F848F008C21
:100B8000F18DE02D309711F0C80109952A960FB626
:100B9000F894DEBF0FBECDBFDF91CF911F910F91B3
:100BA000FF90EF90DF90CF9008958F929F92AF9239
:100BB000BF92CF92DF92EF92FF920F931F93CF934A
:100BC000DF93CDB7DEB727970FB6F894DEBF0FBE21
:100BD000CDBF8C01F62EE72E4A015901A62FB72F63
:100BE000FD0101900020E9F731976F01CA1ADB0A75
:100BF00080E38F83DD82CE82802F912FBE01695FDB
:100C00007F4F41E050E00E94CB03C50102968C0D5E
:100C10009D1DBE016F5F7F4F0E94A803AC01802F16
:100C2000912FBE016F5F7F4F0E94CB03802F912FCA
:100C3000BE016B5F7F4F42E050E00E94CB03802FEC
:100C4000912F6F2D7E2DA6010E94CB03802F912F17
:100C5000B401A5010E94CB03D8015896ED91FC91F7
:100C60005997309711F0C801099527960FB6F89457
:100C7000DEBF0FBECDBFDF91CF911F910F91FF90CF
:100C8000EF90DF90CF90BF90AF909F908F9008959E
:100C90000F931F93CF93DF9300D0CDB7DEB78C01B6
:100CA00080EC89831A82C801BE016F5F7F4F42E0EA
:100CB00050E00E94CB03D8015E968D919C915F9786
:100CC00001965F969C938E935E975896ED91FC915A
:100CD0005997309711F0C80109950F900F90DF9147
:100CE000CF911F910F9108952F923F924F925F9253
:100CF0006F927F928F929F92AF92BF92CF92DF922C
:100D0000EF92FF920F931F93CF93DF93CDB7DEB790
:100D1000CB5ED0400FB6F894DEBF0FBECDBF3C0116
:100D2000CC24DD246894C3F8C80ED91E0F2EF6E03B
:100D3000AF2EBB24F02DAC0EBD1E882499240F2E9F
:100D4000FEEF2F2EFFEF3F2EF02D88E690E08C0F68
:100D50009D1F0296C651DF4F99838883CA5ED0409B
:100D60000F2EF7E24F2E5524F02D4C0E5D1EE6C0DF
:100D7000C601BE016F5F7F4F42E050E00E944E040B
:100D80008A818823C4F40F2EF3E0EF2EFF24F02D88
:100D9000EC0EFD1E8701C601B70141E050E00E9444
:100DA0004E040894E11CF11CD8018C9188231CF49A
:100DB000EA14FB0479F7E980DE011296840141E030
:100DC00050E0B4018D9190E08F779070849F9001F6
:100DD000859F300D949F300D1124020F131F5695DF
:100DE000542F4427579547956F5F7F4F59F3FD0167
:100DF00031978081882334F30138110508F09EC0B3
:100E0000C601BE0168597F4FA8010E944E048E2D75
:100E100082958F70893059F18A3030F4823051F0E8
:100E2000833009F08BC035C08D3061F18E3009F010
:100E300085C017C0AA968FADAA97882361F482E077
:100E4000F30181A70488F589E02D309709F476C075
:100E5000C301099573C0E3E0D3019996EC93999788
:100E60006DC0E4E0D3019996EC93999767C0D301E4
:100E70005C968D919C915D9701975D969C938E9366
:100E80005C975CC0F301868D978D0197978F868F55
:100E900055C0A996FFADA997C751DF4FF883C95E2A
:100EA000D040C851DF4F1882C85ED040AA968FAD9F
:100EB000AA9790E0C851DF4FE880F980C85ED04023
:100EC000E82AF92A81E2E816F104C0F5C1018E1979
:100ED0009F09080F191F0134110580F58A2D9B2DDC
:100EE000C651DF4F6881CA5ED040C551DF4F78815F
:100EF000CB5ED0404E2D5F2D0E94A924F501EE0D52
:100F0000FF1D1082B7016E5F7F4FA8E6B0E0AC0F07
:100F1000BD1F6A0F7B1F842D952D402F512F0E94DE
:100F2000A924F201E00FF11F1082D3015696ED9132
:100F3000FC915797C301B501A2010995F30186857C
:100F400097858230910508F013CFC551DF4F0FB65A
:100F5000F894DEBF0FBECDBFDF91CF911F910F91EF
:100F6000FF90EF90DF90CF90BF90AF909F908F90C9
:100F70007F906F905F904F903F902F90089524E066
:100F8000FC0121A70895CF92DF92EF92FF920F9379
:100F90001F93CF93DF93CDB7DEB7C058D0400FB6C5
:100FA000F894DEBF0FBECDBFE091BD05F091BE0548
:100FB000048D158DC288D388F801F680E7804091B2
:100FC000B805842F90E09C01207330702115310505
:100FD00011F444233CF4C8010E94BF0780E18093D0
:100FE000B80528C041FF0FC06091BB057091BC05DA
:100FF0004091B0055091B105C80108960E94CB03FD
:10100000C8010E9474068091B805897099F04F2D2F
:101010005E2DC416D50608F4A601C801BE016F5F97
:101020007F4F0E944E04BC01009721F0CE01019633
:101030000E945621C058DF4F0FB6F894DEBF0FBE96
:10104000CDBFDF91CF911F910F91FF90EF90DF9077
:10105000CF900895CF93DF93EC01E62FF72FDF01B8
:101060000D900020E9F71197AD014E1B5F0B460F65
:10107000571F88818823A1F16417750798F5219679
:10108000DB019A01BA01615070409C919F3219F4C2
:101090008F3229F028C08B3231F08332C1F08917AA
:1010A00011F58B32A9F4CD0101968417950780F4D0
:1010B00011968C9111978F3259F0FD01329611964D
:1010C000E217F30729F081918F32C9F701C0DB01E4
:1010D00011968991882339F0A417B507B0F203C09F
:1010E000DB0101C0DB01A417B50741F421E030E0CA
:1010F000882311F020E030E0C90102C080E090E0D8
:10110000DF91CF910895009741F0E9EFF0E031973A
:10111000F1F700C000000197C1F7089537981BBA96
:101120008FEF8ABB84B38F6384BBE4E6F0E08081F9
:101130008360808385B3807C85BBE5E6F0E08081B9
:101140008C7F808384B3806C84BB85B38F7385BBB5
:101150000895CF93DF9380E090E060E070E00E941C
:101160003603C8E0D1E0CE010E94920380E090E017
:1011700060E070E00E94360389E191E00E949203F2
:101180008FE39DE0A3E081509040A040E1F700C0D4
:101190000000CE010E94920380E090E061E070E0E8
:1011A0000E9436038AE291E00E9492038FED93E958
:1011B000A4E081509040A040E1F700C0000080E032
:1011C00090E060E070E00E943603CE010E9492033E
:1011D00080E090E061E070E00E9436038BE391E0F4
:1011E0000E949203DF91CF91089580E090E061E04A
:1011F00070E00E9436038BE391E00E94920312BAE2
:1012000010926500089580E090E061E070E00E9437
:1012100036038CE491E00E9492038FED93E9A4E001
:1012200081509040A040E1F700C0000080E090E0D5
:1012300060E070E00E9436038DE591E00E94920329
:1012400080E090E061E070E00E9436038FE691E07C
:101250000E949203A7EAB1E61197F1F700C00000DF
:101260008FE39DE0A3E081509040A040E1F700C0F3
:10127000000085B3806385BBAF9A8FE997EFA3E049
:1012800081509040A040E1F700C00000AE9AA3ED6D
:10129000B0E31197F1F700C0000085B38F7385BBF1
:1012A0008FE79AE1A6E081509040A040E1F700C0AE
:1012B000000085B38F7C85BB0E941F0D089580E0E0
:1012C00090E061E070E00E94360380E891E00E94C7
:1012D00092038FED93E9A4E081509040A040E1F7A4
:1012E00000C0000080E090E060E070E00E94360303
:1012F00081E991E00E94920380E090E061E070E07B
:101300000E9436038FE691E00E949203A7EAB1E6BD
:101310001197F1F700C000008FE39DE0A3E081503A
:101320009040A040E1F700C0000082B3806382BB20
:10133000E5E6F0E08081816080838FE997EFA3E0AC
:1013400081509040A040E1F700C0000080818260A1
:101350008083A3EDB0E31197F1F700C00000808116
:101360008C7F80838FE79AE1A6E081509040A04077
:10137000E1F700C0000082B38F7382BB0E946A0D48
:10138000089580E090E061E070E00E94360382EA18
:1013900091E00E9492038FED93E9A4E08150904088
:1013A000A040E1F700C0000080E090E060E070E065
:1013B0000E94360383EB91E00E94920380E090E06C
:1013C00061E070E00E9436038FE691E00E94920394
:1013D000A7EAB1E61197F1F700C000008FE39DE0A6
:1013E000A3E081509040A040E1F700C0000082B32C
:1013F0008C6082BBE5E6F0E08081816080838FE9CC
:1014000097EFA3E081509040A040E1F700C00000BA
:10141000808182608083A3EDB0E31197F1F700C073
:10142000000080818C7F80838FE79AE1A6E0815065
:101430009040A040E1F700C0000082B38F7382BBF0
:101440000E94B50D089580E090E061E070E00E9498
:10145000360385EC91E00E9492038FED93E9A4E0BE
:1014600081509040A040E1F700C0000080E090E093
:1014700060E070E00E94360386ED91E00E949203E6
:1014800080E090E061E070E00E9436038FE691E03A
:101490000E949203A7EAB1E61197F1F700C000009D
:1014A00082B3836082BBE5E6F0E080818160808367
:1014B0008FE997EFA3E081509040A040E1F700C092
:1014C0000000808182608083A3EDB0E31197F1F783
:1014D00000C0000080818C7F80838FE79AE1A6E0C6
:1014E00081509040A040E1F700C0000082B38F73AC
:1014F00082BB0E94000E0895989B03C00E940309BE
:1015000008959A9B03C00E945F090895999B03C0A8
:101510000E94C10908959B9B02C00E94230A08955E
:10152000CF93C62FC098962F9F71892B0E94BA1116
:1015300080E00E94BA11CC231CF480E00E94BA1112
:10154000C09ACF910895CF93C42FC0986F71862B06
:101550000E94BA118C2F0E94BA11C09ACF9108959F
:101560000F931F93CF93DF93EC018B01C0988AE315
:101570000E94BA11209741F080E00E94BA11F80150
:1015800081938F012197C1F7C09ADF91CF911F916D
:101590000F9108950F931F93CF93DF93EC018B016D
:1015A000C0988AE70E94BA11209739F0F80181911A
:1015B0008F010E94BA112197C9F7C09ADF91CF918C
:1015C0001F910F9108951F93CF93DF93182FC82F6A
:1015D000D0E0C076D07080918C0590E0C817D90714
:1015E000B9F080EA6FE143E00E94A30AAE0155958D
:1015F00047955595479555954795559547955595D3
:10160000479580E86FE10E94A30A107610938C053D
:10161000DF91CF911F910895CF93C82F0E94E30AC5
:1016200080E06C2F0E94900ACF9108951F93CF9372
:10163000DF93182F0E940C0BC82FD0E0812F8F5FF3
:101640000E940C0B382F20E0C22BD32B8C2F9D2F08
:10165000DF91CF911F910895CF93DF93C82FD62F9D
:101660000E94E30A80E46C2F4D2F0E94A30ADF91B1
:10167000CF910895CF93DF93C82FD72F0E942C0BC3
:101680008C2F8F5F6D2F0E942C0BDF91CF910895CF
:10169000CF93DF93682F84ED0E942C0B82ED61E0E5
:1016A0000E942C0B8AEE0E940C0B80FDFBCF82ED7A
:1016B00060E00E942C0B88ED0E940C0BD82F80E07C
:1016C000C82F89ED0E940C0B90E0C82BD92B8C2FD2
:1016D0009D2FDF91CF910895CF93DF93982FD62F31
:1016E000C72F84ED692F0E942C0B86ED6D2F0E9471
:1016F0002C0B87ED6C2F0E942C0B8AEE0E940C0B9A
:1017000080FDFBCFDF91CF9108958FEF60E04FEF29
:101710000E94A30A81E090E00E94830808951F932D
:10172000CF93DF93EC01162FB89AC09ABC9AC49A53
:101730000E94B1110E94850B10928B0510928A05B0
:1017400088E060E070E00E943A0B8CE060E070E0BE
:101750000E943A0B8AE06EEF7FE00E943A0B84E031
:101760006FEF7FE00E943A0B88E361EA0E942C0B46
:1017700080EC6DE00E942C0B81EC60E00E942C0B51
:1017800080E862EC42E30E94A30A86EC62E10E94D8
:101790002C0B87EC6CE00E942C0B84EC62E10E9425
:1017A0002C0B8AEC62EA71E00E943A0B84EE6881AD
:1017B0000E942C0B85EE69810E942C0B82EE6A81BF
:1017C0000E942C0B83EE6B810E942C0B80EE6C81AF
:1017D0000E942C0B81EE6D810E942C0B80E160E059
:1017E00071E00E946C0B84E166E774E00E946C0B70
:1017F0008BE160EC0E942C0B8FE164E00E942C0BCB
:1018000080EA6FE14CE00E94A30A112399F080E086
:101810000E94480BBC017E7F80E00E946C0B82EC32
:101820000E940C0B682F70E06E7F82EC0E942C0BE4
:1018300065E101C062E184EC0E942C0B80E86FE15D
:1018400044E00E94A30ADF91CF911F91089582E79F
:101850000E940C0B089581E10E94480B21E0009743
:1018600009F420E0822F0895089580E86FE140E8B0
:101870000E94A30A80EA6FE140E80E94A30A80EA7E
:101880006CE142E00E94A30A08950F931F93CF9347
:10189000DF938C01EB010E94350C82E06FEF7FE05B
:1018A0000E943A0BBE016150704F86E00E943A0BD5
:1018B0008AE760E040E00E94A30ACE01B8010E94DE
:1018C000CA0A80E86FE148E00E94A30ADF91CF9145
:1018D0001F910F9108958FE10E940C0B887008955D
:1018E00008950F931F93CF93DF9389E30E940C0B0E
:1018F000882309F441C060918A0570918B0580E0CE
:101900000E943A0B8AE360E00E94900A80938A0565
:1019100010928B058AE360E00E94900A382F20E045
:1019200080918A0590918B05282B392B30938B055C
:1019300020938A058AE360E00E94900A182F8AE3C8
:1019400060E00E94900A082F8AE360E00E94900AFB
:10195000C82FD0E08AE360E00E94900A382F20E090
:10196000C22BD32BC7FF0BC0812F90E0302F20E07C
:10197000822B932B049705C080E090E002C080E0AA
:1019800090E0DF91CF911F910F9108959C01CB01C1
:10199000B9010E94B00A089560918A0570918B0583
:1019A000615070408FE06F3F780730F08CE06EEF51
:1019B0007FE00E943A0B03C08CE00E943A0B80E863
:1019C0006EE140E40E94A30A08950895089580916D
:1019D000AD039091AE0301969093AE038093AD0357
:1019E0000895CF93DF93EB0186EE91E00E942A08E1
:1019F000882311F00E9403098DEF91E0BE010E943F
:101A00002A08882311F00E945F0984E192E0BE0158
:101A10000E942A08882311F00E94C1098BE292E0FB
:101A2000BE010E942A08882311F00E94230ADF9138
:101A3000CF9108958091AD039091AE0308950F93D7
:101A40001F93CF93DF93CDB7DEB76E970FB6F894A1
:101A5000DEBF0FBECDBF2091AC032F5F2093AC0340
:101A600000D000D000D0EDB7FEB731968E010F5FE9
:101A70001F4FADB7BEB712961C930E93119782E419
:101A800092E093838283248315820E94E724F801E5
:101A900001900020E9F79F0121503040201B310BBD
:101AA0008DB79EB706960FB6F8949EBF0FBE8DBF3A
:101AB0008DE293E065E472E0A8010E94D5056E9680
:101AC0000FB6F894DEBF0FBECDBFDF91CF911F914F
:101AD0000F9108950F931F93CF93DF93CDB7DEB788
:101AE0006E970FB6F894DEBF0FBECDBF2091AB034B
:101AF0002F5F2093AB0300D000D000D0EDB7FEB72E
:101B000031968E010F5F1F4FADB7BEB712961C9373
:101B10000E93119782E492E093838283248315824B
:101B20000E94E724F80101900020E9F79F0121506D
:101B30003040201B310B8DB79EB706960FB6F89438
:101B40009EBF0FBE8DBF8DE293E067E572E0A801F6
:101B50000E94D5056E960FB6F894DEBF0FBECDBFBE
:101B6000DF91CF911F910F9108950F931F93CF9302
:101B7000DF93CDB7DEB76E970FB6F894DEBF0FBE1A
:101B8000CDBF2091AA032F5F2093AA0300D000D0DD
:101B900000D0EDB7FEB731968E010F5F1F4FADB786
:101BA000BEB712961C930E93119782E492E0938332
:101BB0008283248315820E94E724F801019000208B
:101BC000E9F79F0121503040201B310B8DB79EB7A4
:101BD00006960FB6F8949EBF0FBE8DBF8DE293E0C0
:101BE00068E672E0A8010E94D5056E960FB6F894DB
:101BF000DEBF0FBECDBFDF91CF911F910F91089532
:101C00000F931F93CF93DF93CDB7DEB76E970FB6C9
:101C1000F894DEBF0FBECDBF2091A9032F5F2093A4
:101C2000A90300D000D000D0EDB7FEB731968E01E9
:101C30000F5F1F4FADB7BEB712961C930E9311974F
:101C400082E492E093838283248315820E94E724B6
:101C5000F80101900020E9F79F0121503040201B3E
:101C6000310B8DB79EB706960FB6F8949EBF0FBE88
:101C70008DBF8DE293E069E772E0A8010E94D5056F
:101C80006E960FB6F894DEBF0FBECDBFDF91CF9139
:101C90001F910F9108958EE995E00E943A160097E2
:101CA00069F08EE995E00E94261680E060E070E021
:101CB0000E9436038AE892E00E9492030895CF932F
:101CC000DF93CDB7DEB760970FB6F894DEBF0FBED7
:101CD000CDBF86E995E00E943A16009709F47CC0D2
:101CE00086E995E00E94261620910B0680910C064D
:101CF000209323038093240380910D0690910E0678
:101D00009093260380932503222381F58DB79EB7F8
:101D10000C970FB6F8949EBF0FBE8DBFEDB7FEB700
:101D20003196CE010196ADB7BEB712969C938E93B5
:101D300011978BE992E093838283158214828091BC
:101D400024038683178280912503808711868091E2
:101D50002603828713860E94E7248DB79EB70C96D0
:101D60000FB6F8949EBF0FBE8DBF2DC0ADB7BEB7E6
:101D70001C970FB6F894BEBF0FBEADBFEDB7FEB750
:101D80003196CE01019612969C938E93119780EB1B
:101D900092E0938382832483158280912403868337
:101DA0001782809125038087118680912603828780
:101DB00013860E94E7248DB79EB70C960FB6F89451
:101DC0009EBF0FBE8DBF80E060E070E00E943603D2
:101DD000CE0101960E94920360960FB6F894DEBF82
:101DE0000FBECDBFDF91CF91089568EE73E080E024
:101DF00090E047EE5CE00E94E9121092AE03109270
:101E0000AD030E9456130895FC018789908D90932D
:101E10000C0680930B06818D928D90930E06809315
:101E20000D06838D948D9093080680930706858D0B
:101E3000968D90930A068093090683A194A19093AE
:101E400004068093030685A196A1909306068093CD
:101E500005060895EF92FF920F931F93CF93DF93A0
:101E600000D000D0CDB7DEB78C0185E09DE29A832B
:101E7000898382E798E09C838B83CE01019667E09B
:101E80007BE50E9433187C010097C9F08EE190E059
:101E9000F801918B808B80EC92E0938B828BC80150
:101EA0000E94AA04C8010E94C303C80108960E94A8
:101EB000C303C8010E94B704F701158F048F0F9068
:101EC0000F900F900F90DF91CF911F910F91FF9086
:101ED000EF900895CF93DF93CDB7DEB79E01265FD5
:101EE0003F4F8D819E816F8170E0488559850E94AA
:101EF0001625DF91CF9108950F931F93CF93DF9312
:101F0000CDB7DEB7E1970FB6F894DEBF0FBECDBFF9
:101F10000E9495139093B1058093B005009739F115
:101F200080911B0690911C068830910579F481E020
:101F30000E94C1198091B0059091B105009709F4F4
:101F400027C10E944D230E94511622C126E08830ED
:101F5000920709F01DC10E9494228091B0059091D2
:101F6000B105009709F414C10E948C1311C18AE9CC
:101F700095E00E943A16009709F45CC08AE995E062
:101F80000E9426168FEB95E09093BE058093BD05C9
:101F900082E00E94C1198091B0059091B10500972F
:101FA00021F00E944D230E9451168FED95E09093F1
:101FB000BE058093BD0582E00E94C1198091B005E5
:101FC0009091B105009721F00E944D230E94511677
:101FD00083EA97E09093BA058093B90585E00E9463
:101FE000C1198091B0059091B105009721F00E9430
:101FF0004D230E948C1383ED97E09093BA05809354
:10200000B90585E00E94C1198091B0059091B10594
:10201000009721F00E944D230E948C138DE895E0DB
:102020000E943A16009731F08DE895E00E9426163E
:102030000E945E220E942B0C882319F480E2809378
:10204000B80582EA95E00E943A16009741F082EACC
:1020500095E00E9426168DE293E00E94480680914A
:1020600056038230A1F081E995E00E943A1600976C
:1020700071F081E995E00E9426160DE213E0C80197
:102080000E942A0FC80164ED72E00E944F0586EAA3
:1020900095E00E943A16009709F47AC086EA95E026
:1020A0000E942616DE015196EAEFF2E08DE10190E2
:1020B0000D928150E1F71EA61FA618AA19AA8091B9
:1020C0000B0690910C069093240380932303809138
:1020D0000D0690910E0690932603809325038DB7ED
:1020E0009EB70D970FB6F8949EBF0FBE8DBFEDB78C
:1020F000FEB73196CE010196ADB7BEB712969C934E
:102100008E93119780E1828387ED92E0948383839D
:102110008091230385831682809124038783108610
:1021200080912503818712868091260383871486F8
:102130000E946A0FEDB7FEB73D960FB6F894FEBF4A
:102140000FBEEDBF181624F5AE014F5F5F4FDA01E9
:102150000D900020E9F79D0121503040241B350BE4
:102160000DE213E0C80163EE72E00E94D505AE01F6
:102170004F5E5F4FFA0101900020E9F79F01215067
:102180003040241B350BC8016CEE72E00E94D5056F
:1021900085E0809395050FC080919505882359F4BB
:1021A0008091A7039091A80301969093A803809330
:1021B000A7030E94350C0E94B113882369F7E196AA
:1021C0000FB6F894DEBF0FBECDBFDF91CF911F9148
:1021D0000F9108950E948E080E944003E7E2F3E009
:1021E000AFEAB3E0CF01069621912D93E817F907E6
:1021F000D9F787E293E00E9488130E94A908809192
:10220000AF03809318058091B003809319058091E6
:10221000B10380931A058091B20380931B058091CE
:10222000B30380931C058091B40380931D050E9425
:1022300015180E943F220E94F50E10920C06109273
:102240000B0610920E0610920D06109208061092C0
:10225000070610920A0610920906109204061092C0
:10226000030610920606109205068FEA93E066E0D8
:1022700070E00E94BB010E9401038AE995E064EFCF
:1022800071E00E941A168DE895E060E177E20E9405
:102290001A1682EA95E060E375E70E941A1681E952
:1022A00095E068EB7BE00E941A1686EA95E060E113
:1022B00077E20E941A168EE995E068E97AE30E94B7
:1022C0001A1686E995E068EC7FEA0E941A160E94C9
:1022D00068000F2EF8EEAF2EF3E0BF2EF02D0F2E7C
:1022E000F4E6EF2EFF24F02D0F2EFAE0CF2EDD24A2
:1022F000F02D0E947C0F0E94F5080E944B0E0E9458
:102300005F0E0E946F00C82FD92F80E060E070E060
:102310000E9436038C2F9D2FB5010E9466248C01EC
:10232000CB01C0960E943203C801B7010E94662407
:10233000CB01C0960E9432038C2F9D2FB7010E94C3
:102340006624B6010E946624CB01C0960E94320327
:102350008C2F9D2FB6010E946624C0960E943203E6
:10236000C8CF87B3876087BBBB98C39A8DB18065A0
:102370008DB9089591E0909313058FB9779BFECFA7
:10238000109213058FB10895CF93DF930F92CDB7BD
:10239000DEB7DC01FB01009711F43097F1F0411535
:1023A0005105D9F081E08093130580E090E03FEF84
:1023B000109711F02D9101C0232F2FB9779BFECFDD
:1023C000309719F02FB1219302C02FB129830196C4
:1023D0008417950769F7109213050F90DF91CF913D
:1023E00008959C01AB0180E090E0B9010E94C41106
:1023F0000895AB0160E070E00E94C4110895CF938E
:10240000DF930F92CDB7DEB7009719F46115710510
:1024100021F14115510509F13093AD052093AC052B
:1024200021E0209313059093150580931405709374
:102430001705609316055093AB054093AA056F9A54
:102440002EB12983009739F0FC018191F093150595
:10245000E093140501C08FEF8FB90F90DF91CF91FA
:1024600008959C01FB01DA0180E090E0B901AF0121
:102470009D010E94FF1108959B01FA0160E070E048
:10248000A9019F010E94FF110895CF93DF930F923E
:10249000CDB7DEB7E0911605F0911705309739F00A
:1024A0008FB18193F0931705E093160502C08FB1A9
:1024B00089838091AA059091AB0501979093AB0514
:1024C0008093AA05009779F0E0911405F091150525
:1024D000309731F08191F0931505E093140501C018
:1024E0008FEF8FB90AC0109213056F98E091AC0579
:1024F000F091AD05309709F009950F90DF91CF91DC
:10250000089521E0209313056115710591F0E82FDE
:10251000F92F80E090E0DF0121812FB9779BFECF7A
:1025200032962C912FB9779BFECF0196861797078D
:1025300091F7109213050895FC0181E08093130533
:1025400061157105B9F020E030E0AFEFAFB9779BCE
:10255000FECF8FB1582F40E0AFB9779BFECF8FB140
:1025600090E0842B952B819391932F5F3F4F2617FB
:10257000370761F710921305089580349105E9F04B
:102580008134910550F48830910509F1803291052C
:1025900091F081309105C9F40CC021E080309207A0
:1025A00081F024E08030920771F08038910569F461
:1025B00006C081E0089583E0089584E0089585E0F1
:1025C000089586E0089587E0089580E0089582E008
:1025D00008956F927F928F929F92AF92BF92CF9207
:1025E000DF92EF92FF920F931F93CF93DF938B01B4
:1025F0009C01F8945093AF054093AE0515BC15BCF3
:1026000085B5886085BD85B5806885BD60E070E171
:1026100085EA94EDA90198010E947A24822E932ED6
:10262000A42EB52E8FEF88169104A104B104E1F019
:10263000D8F0C9E5D3E00F2EFCE06F2E7724F02D03
:102640006C0E7D1E09911991980140E050E0C50182
:10265000B4010E947A2469017A012F3F31054105B6
:10266000510509F050F403C0C22E01E010E0C8018A
:102670000E94BD128093650303C0C615D70511F7EC
:10268000CA94C3BC80EC86BF80E887BF7894DF9192
:10269000CF911F910F91FF90EF90DF90CF90BF905F
:1026A000AF909F908F907F906F90089514BC809111
:1026B000650385BD089515BC08951F920F920FB64E
:1026C0000F920BB60F9211242F933F934F935F936A
:1026D0006F937F938F939F93AF93BF93EF93FF93EA
:1026E000E091AE05F091AF050995FF91EF91BF9193
:1026F000AF919F918F917F916F915F914F913F919A
:102700002F910F900BBE0F900FBE0F901F9018953A
:1027100061E00E948F0B08956091B0057091B10542
:102720008FE096E00E94450C0895CF93DF930E94BE
:10273000710CEC01009781F081E0C139D80728F0D5
:102740000E94CC0CC0E0D0E007C08FE096E0BE0154
:102750000E94C60C0E94CC0C8C2F9D2FDF91CF9134
:1027600008950E946B0C0895FC017183608353836C
:1027700042830895FC018489863059F58091B8051B
:1027800080FF29C082859385A091BD05B091BE05CB
:1027900052962D913C9153972817390778F4821B54
:1027A000930B938782878481958152962D913C91DA
:1027B0005397820F931F9583848308C024813581AA
:1027C000820F931F958384831386128681E0848B06
:1027D000089580E0089580E00895CF93DF93EC01A1
:1027E0008C89863021F48091B80582FF19C02A8532
:1027F0003B85E091BD05F091BE0562897389621742
:10280000730728F48C819D810E94562105C08C811C
:102810009D81B9010E94562186E08C8B81E001C028
:1028200080E0DF91CF9108951F93CF93DF93EC0168
:102830008A819B81009721F08C3D9105E1F40DC0C8
:1028400041155105E1F07D836C835B874A871C8AC3
:102850000DC08CED90E09B838A83CE010E94BA1359
:10286000182FCE010E94ED13812359F08A859B8594
:10287000009779F71C8A1B821A8282E003C081E0EC
:1028800001C080E0DF91CF911F910895CF92DF9238
:10289000EF92FF920F931F93CF938C017B016A01FC
:1028A000FC0182819381009721F08D3F910561F5B4
:1028B0001CC06115710569F1CA01FB010995F80198
:1028C000938782878091BB059091BC059583848313
:1028D000148A8091B80582FF03C0C601F7010995EB
:1028E0008DEF90E0F80193838283C8010E94BA13B0
:1028F000C82FC8010E94ED138C2369F0F80182856E
:102900009385009731F7148AF8011382128282E0CE
:1029100003C081E001C080E0CF911F910F91FF9033
:10292000EF90DF90CF900895FC01828993892089F0
:102930003189821B930B0895FC018485958500974E
:1029400071F48489823021F483E0848B80E00895DF
:102950009091B80581E091FD03C080E0089581E089
:102960000895FF920F931F93CF93DF938C01F62E60
:10297000DC0112968D919C911397009731F0B1E094
:1029800084339B0709F08BC016C0F8016085718500
:1029900042895389C8010E960E94B413D8011C962F
:1029A0008D919C911D970097D9F484E391E0139643
:1029B0009C938E931297C8010E949C14882309F45B
:1029C00075C082E0F801848B8091BB059091BC05B5
:1029D000978386838091B0059091B1059587848710
:1029E000E8012E96A8014A5F5F4FB801645F7F4FF0
:1029F00022C0A881B981FA0180819181FC012081E6
:102A00002C93DA018D919C911197019611969C93CC
:102A10008E9388819981019699838883FB018081B7
:102A200091810197918380838A819B8101979B8308
:102A30008A83F21649F18A819B81009731F0DB018C
:102A40008D919C9111970097A1F6F8018485958549
:102A5000009799F4A3CFDA01ED91FC9111972081B1
:102A60000197FB01918380838D919C911197019631
:102A700011969C938E93F21639F0DB018D919C9107
:102A80001197009741F78ACFC8010E9494140097CC
:102A900031F4F801148A1382128280E008C0D80150
:102AA00013961C921E92129782E001C080E0DF9183
:102AB000CF911F910F91FF900895CF93DF93EC0179
:102AC0008A819B81009731F021E08235920709F0DD
:102AD0008FC010C0688579854A895B89CE010E96C2
:102AE0000E94B4138C859D850097E1F482E591E006
:102AF0009B838A83CE010E949C14882309F47CC0A6
:102B000086E693E00E94B92482E08C8B8091BB051D
:102B10009091BC059F838E838091B0059091B10503
:102B20009D878C872C853D854889598924173507D1
:102B3000F8F46E817F818E859F85422F532F0E94EE
:102B4000A9248C859D852E853F85280F391F3F87B9
:102B50002E8728893989281B390B398B288B2E81A0
:102B60003F81820F931F9F838E831D861C86BACF61
:102B700024173507D9F46E817F818E859F85422F7A
:102B8000532F0E94A9248C859D852E853F85280F73
:102B9000391F3F872E87198A188A2E813F81820F1D
:102BA000931F9F838E831D861C862AC06E817F8122
:102BB0008E859F850E94A924888999892E853F85C5
:102BC000280F391F3F872E872C853D85281B390B01
:102BD0003D872C872E813F81820F931F9F838E8399
:102BE000198A188A0DC01C8A1B821A8280E005C0CF
:102BF0001B821A8282E001C080E0DF91CF910895AC
:102C0000CE010E949414009799F7EDCFCF93DF93F4
:102C1000EC011C8A1D861C86798768875B8B4A8B32
:102C20000E960E94B413198218821B821A82DF91B9
:102C3000CF910895CF93DF93EC017B836A830E9449
:102C40001A0D99838883DF91CF910895FC018081CB
:102C5000918122813381820F931F91838083089514
:102C6000CF93DF93EC010E941A0D99838883DF9143
:102C7000CF910895CF93DF93EC010E941A0D288124
:102C80003981AC01421B530B9A0181E090E04A81EB
:102C90005B812417350710F480E090E0DF91CF913D
:102CA000089580912606863009F03EC08091B005D7
:102CB0009091B10581349105B8F10E948C1301C047
:102CC00000000E94B1138823D9F788E290E0909326
:102CD000B1058093B00510921F0688E2809320060C
:102CE00010924206109241060E94EA178095909534
:102CF0009093420680934106109228061092270670
:102D00000E94D91780959095909328068093270666
:102D10008091B0059091B1050E969093B105809386
:102D2000B0050E948C1308950E948C1308950F9390
:102D30001F93CF93DF9380912606863009F098C0C9
:102D40008091B0059091B1058134910508F490C04F
:102D5000C697EC01D695C7959E01220F331F281701
:102D6000390720F48E010F5F1F4F01C08E01CE0185
:102D700088969093B1058093B00590931F06809339
:102D8000200610924206109241060E94EA17809592
:102D900090959093420680934106109228061092D7
:102DA00027060E94D91780959095909328068093C6
:102DB00027068091B0059091B1050E969093B105CC
:102DC0008093B0050E948C1301C000000E94B113D3
:102DD0008823D9F7C80188969093B1058093B005F0
:102DE00090931F06809320068091BB059091BC05AF
:102DF000BC016C0F7D1F402F512F0E94A92485E339
:102E000096E0BE010E947D178091B405809335063F
:102E10008091B505809336068091B605809337067C
:102E20008091B705809338061092420610924106B1
:102E30000E94EA17809590959093420680934106F0
:102E400010922806109227060E94D9178095909517
:102E500090932806809327068091B0059091B10544
:102E60000E969093B1058093B0050E948C1302C01A
:102E70000E948C13DF91CF911F910F910895CF93F2
:102E8000DF939C0141505040460F571F6417750750
:102E9000E0F4FB01B081A0E08181ED01C80FD11DFC
:102EA0002C0F3D1F2C173D0710F42F5F3F4F32961C
:102EB000E417F50778F3CB0180959095840F951F63
:102EC0008E7F0296860F971F01C0CB01841795074E
:102ED00051F4FC01508140E0240F351F24173507C1
:102EE00010F42F5F3F4F822F932FDF91CF910895E2
:102EF00090931F0580931E050895FC018381860F22
:102F00008093B705872F99272281280F2093B60534
:102F100041814093B50550815093B40530E02817A6
:102F2000390740F44F5F4093B505442319F45F5FC0
:102F30005093B4058091B70590E07070861797079D
:102F400098F48091B6058F5F8093B605882361F46D
:102F50008091B5058F5F8093B505882329F4809112
:102F6000B4058F5F8093B4050895BC018091BD05C1
:102F70009091BE0508960E947D17E091BD05F091E5
:102F8000BE058091B40580878091B50581878091C9
:102F9000B60582878091B705838708959C01AB01B0
:102FA00080E090E0B9010E943F1798278927982771
:102FB000089580E090E06DE176E044E150E00E9409
:102FC0003F17009721F098278927982708958FEFBA
:102FD0009FEF08950F931F93CF93DF93CFE1D6E038
:102FE00010911F0600E080912006080F111DBE0100
:102FF000665F7F4FC8010E9748E050E00E943F1780
:10300000BE016E5E7F4FA801445150400E943F17A1
:10301000009721F098278927982702C08FEF9FEF0C
:10302000DF91CF911F910F91089510920006109299
:10303000FF0510920206109201061092D805109218
:10304000F80580E094E0909322058093210510928A
:10305000A8071092A7071092D8071092D70782E00E
:103060008093200508952F923F924F925F926F9226
:103070007F928F929F92AF92BF92CF92DF92EF9208
:10308000FF920F931F93CF93DF933C012B0120916D
:10309000210530912205CC24DD246894D4F86FEB0F
:1030A00075E0DB0159960F2EFFED2F2EF5E03F2E38
:1030B000F02D0F2EF9E1EF2EFF24F02DE20CF31C82
:1030C0000F2EF3EE8F2EF5E09F2EF02D0F2EF3EC4A
:1030D000AF2EF5E0BF2EF02D2F5F3F4F8DE7203054
:1030E000380708F47CC096017AC0E4018881998190
:1030F0008417950789F330932205209321051092B8
:1031000020058091D8058823F9F0873011F0E0E0A0
:10311000F0E08091F805882329F481E08093200570
:10312000F80112C0873069F4309741F0D8015A96FF
:103130009C915A97828D891718F003C0F80101C03D
:10314000F80182E0809320053097A1F182E0818F21
:1031500080912305848780912405858780912505AA
:1031600086878091260587878AE591E0938B828BFD
:10317000958B848B81E090E0918B808B138E81E026
:10318000828F83E0808F168A80E1878B8091210572
:1031900090912205982789279827958384835782C1
:1031A0004682E30188819981918380838A819B8112
:1031B000938382838E2F9F2FDF91CF911F910F9149
:1031C000FF90EF90DF90CF90BF90AF909F908F9047
:1031D0007F906F905F904F903F902F900895522F67
:1031E000432FFB018C91882339F0E5018881998177
:1031F0008417950709F470CF8101E701888188233E
:1032000009F073CF78CFCF93DF93DC01EB014091CE
:10321000A7075091A807E091D707F091D807209110
:1032200021053091220560E070E12F5F3F4F8DE76F
:103230002030380708F09B01922F832F4817590739
:10324000A1F352C03093220520932105109220054E
:103250008091A7079091A8070097E1F580E001C051
:1032600081E090E020E330E0829FA001839F500D39
:10327000929F500D1124FA01ED55F84F39F425C0F5
:1032800082E080932005E0E0F0E01FC080912105FE
:103290009091220598278927982795838483D7833F
:1032A000C683109729F410821182128213820BC0F8
:1032B0008D919C9111979183808312968D919C9111
:1032C00013979383828380E480878E2F9F2FDF91D3
:1032D000CF91089581E0809320058091D707909148
:1032E000D807009769F6BCCFE817F90709F49DCF16
:1032F000A9CF109220052091FF05309100062817D4
:10330000390781F4E0E0F0E002C0E1E0F0E0EE0F28
:10331000FF1FE150FA4F11821082089582E08093DE
:103320002005089521E02093200520910106309189
:1033300002062817390791F7E8CF1092200520914F
:10334000FF05309100062115310581F4E0E0F0E041
:1033500002C0E1E0F0E0EE0FFF1FE150FA4F918371
:103360008083089582E080932005089521E02093D2
:10337000200520910106309102062115310591F7B3
:10338000E8CFDF92EF92FF920F931F93CF93DF93DB
:10339000C091BD05D091BE05843009F4CBC125E4B0
:1033A00036E03093BC052093BB053093B3052093E2
:1033B000B205833081F4898D8F70833009F068C73E
:1033C00088899989009709F063C788E08093B805D8
:1033D0000E94C307E9C5823009F093C08091260599
:1033E0008F5F80932605882399F4809125058F5F50
:1033F00080932505882361F4809124058F5F809355
:103400002405882329F4809123058F5F8093230569
:103410001092B1051092B0051092A2071092A10768
:10342000498D473011F0453041F48A8D8F5F8A8F86
:10343000883709F02DC7198E2BC7442309F428C7F4
:1034400088899989009709F452C08A8D982F9150E4
:103450009A8F882309F01CC78B8D883031F0942F08
:103460009150923060F4853051F4198E80E8809349
:10347000B8050E94C30784E180933E066FC685307D
:1034800048F423E030E0082E02C0220F331F0A94D4
:10349000E2F701C020E32A8F8F5F8B8F842F90E0AB
:1034A0008F70907083309105E1F0843091054CF479
:1034B0008130910509F44DC38230910509F0E8C6C9
:1034C0000DC08630910509F412C58830910509F4C4
:1034D0000EC58430910509F0DBC609C510923E0681
:1034E0003BC384E08093B8050E94C307A0C54F701A
:1034F000433009F0CDC688E08093B8050E94C30729
:1035000053C5853029F5E091B905F091BA0584815C
:103510009581009709F4BCC61092BE051092BD05B6
:1035200089E396E09093BC058093BB059093B30527
:103530008093B2051092A2071092A1071092B105D4
:103540001092B00588E08093B8050E94ED01F2C0AA
:1035500080911D06853409F09BC610911F0600E07E
:1035600080912006080F111D8091B0059091B10542
:103570008017910708F48CC61093B1050093B0052D
:103580008091230690E08F739070009709F080C6B9
:1035900080912406882309F07BC6C0910B06D09148
:1035A0000C06209731F480910D0690910E0600973D
:1035B000A1F080912D0690912E06C817D90709F029
:1035C00067C620912F063091300680910D069091AC
:1035D0000E062817390709F05BC60E94D9172FEF8E
:1035E0008F3F920709F054C680912606863009F471
:1035F000F8C0813191F1813009F04AC680913106DD
:10360000883009F045C610923106809133069091BA
:103610003406EFEF873F9E0730F00996909334060B
:103620008093330605C00896909334068093330642
:10363000EFE0F6E0828D938D90932E0680932D0619
:10364000848D958D91A380A3D38FC28F80910D0619
:1036500090910E06958F848F18C60C5110401093D0
:10366000B1050093B00583EA97E09093BA05809383
:10367000B905F8E083309F0708F00AC66091330669
:1036800070913406A0913106B0913206EFE0F6E079
:10369000C28DD38D048D158DFC0123E038E084812B
:1036A0009581009739F18617970721F586819781D3
:1036B000009719F08A179B07E9F440815181411561
:1036C000510529F482819381009761F41CC08FEF2A
:1036D0004F3F580739F4E280F3808FEFE8168FEF01
:1036E000F80689F04C175D0729F482819381081749
:1036F000190749F0F096F093BA05E093B905E2177F
:10370000F30768F2C5C51092BE051092BD0582E0B0
:103710008093B80589E396E09093BC058093BB0540
:103720009093B3058093B2051092A2071092A1075F
:103730000E94ED018091A1079091A207009709F4E2
:10374000A7C59C01245E3F4F3093B1052093B0057F
:1037500030931F0620932006E091B905F091BA0539
:1037600020852093250621E1209326060896982798
:10377000892798279093360680933506109238064D
:10378000109237068481958190933206809331069A
:1037900086819781909334068093330680910B063F
:1037A00090910C0690932A068093290680910D062D
:1037B00090910E0690932C0680932B068081918128
:1037C00090932E0680932D068281938190933006EC
:1037D00080932F0685E496E09093BC058093BB050B
:1037E00032C50E94EA17EFEF8F3F9E0709F050C5E0
:1037F00020913306309134064091310650913206C3
:10380000EFE0F6E0628D738D048CF58DE02DCFEB4B
:10381000D5E0AFEDB5E019C0D98CDD20A9F08C81E1
:103820009D812817390781F48E819F814817590798
:1038300059F4888199816817790731F48A819B81CD
:10384000E817F90709F4A3C1A096AC17BD0720F744
:1038500080913E068F738230B1F430932805209317
:10386000270540E0E42FF0E0EE0FFF1FE150FA4F94
:10387000808191812817390709F477C04F5F423062
:1038800088F34093200580913E0682FD01C584E1C6
:1038900080933E0688E290E09093B1058093B00556
:1038A0008EE396E020E520933D06FC0136973081BB
:1038B000EC01229728812083DC0117972C91FC01D1
:1038C000339740814C932083DC0118975C91FC0175
:1038D000349740814C935083FC0139974081409349
:1038E0002005DC0115978C9180834C933F5F3883D2
:1038F000332371F42F5F20933B06222349F4852F55
:103900008F5F80933A06882319F44F5F40933906FE
:103910008091310690913206909328058093270577
:1039200020913306309134063093320620933106CD
:103930009093340680933306EFE0F6E0828D938D0A
:1039400090932E0680932D06848D958D91A380A350
:1039500080910B0690910C06938F828F80910D06BB
:1039600090910E06958F848F53C41092200530E0FD
:1039700020E0C0E0D0E04FEB55E001C0322F822FB5
:1039800090E0FC01EE0FFF1FE295F295F07FFE271D
:10399000E07FFE27E40FF51F618D662379F43093F5
:1039A00020059C01E901CC0FDD1FC295D295D07F87
:1039B000DC27C07FDC27C154DA4F25C06730E9F42B
:1039C000209779F0880F991F82959295907F98277C
:1039D000807F9827FA01E80FF91F928D8A8D891749
:1039E00060F4C22FD0E0CC0FDD1FC295D295D07FFE
:1039F000DC27C07FDC27C154DA4F2F5F223008F468
:103A0000BDCF20932005209709F442C4D093BE0572
:103A1000C093BD0583E08A8F888F1E8A84E08F8BD8
:103A20001B8E80913306909134069D838C83809108
:103A30003106909132069F838E830FE016E0F801E5
:103A4000828D938D99838883848D958D9B838A83C2
:103A500081E0898F809123058C87809124058D8753
:103A6000809125058E87809126058F8781E090E0E3
:103A7000998B888B81A58B8780A58A8787A1898769
:103A800086A1888781E090E00E94B517F80126A5FD
:103A9000822F90E0807F9070813591050CF459C0A1
:103AA00022952F70422F50E045505040440F551F33
:103AB000440F551F7091290560E0980140C0F9013D
:103AC000E80FF91F76A9772329F4609320057093F6
:103AD00029053FC0713011F46F5F31C0723019F5A4
:103AE000F901E80FF91FE7A9E430E9F46093200534
:103AF00022E020932905FC01E15FF94F30AD20E081
:103B000081AD90E0822B932B90932805809327051D
:103B1000F1E08B359F0710F08AE591E09B8B8A8B53
:103B20009D8B8C8B16C0820F931FFC0187A9882365
:103B300029F460932005709329050BC0680F862F28
:103B400090E0841795070CF4BACF6093200570932A
:103B5000290580E180933E0680913E068260809335
:103B60003E0682E08093450684E08093460681E02D
:103B7000809347068AE5809348068CE290E0909314
:103B8000B1058093B00580E680933D06F0C27E01CA
:103B9000D093BE05C093BD051092B80520913E0696
:103BA00030E022FF07C0198E80E28093B8050E94A2
:103BB000C3076EC380913D0682958F70880F880F72
:103BC00080932005081B1109045110401093B10582
:103BD0000093B0058D2D8F70823031F4C9018F7341
:103BE00090708231910509F10115110529F4C9017F
:103BF000837090700097C9F090913506F701808529
:103C0000981709F0A8C2909136068185981709F097
:103C1000A2C2909137068285981709F09CC29091B4
:103C200038068385981709F096C224FF4FC0F70124
:103C3000608971896115710509F448C0C7010C9646
:103C40000E947D17309139068091B4053817F1F53F
:103C500020913A068091B5052817C1F590913B0651
:103C60008091B605981791F580913C064091B70573
:103C7000841761F5F7013487258796878787838DB9
:103C80008823E1F49689808D228D821B292F269529
:103C900026952695821B282F980F968B88230CF447
:103CA0002195F7018789382F36953695831B820F2A
:103CB000878B969596959695890F808F81E0809356
:103CC000B805F701808D828F118A108AF701418D26
:103CD00050E0CA018F7090708430910509F4DCC106
:103CE0008530910564F482309105C1F183309105EE
:103CF0000CF0D2C08130910509F0CAC211C08630E3
:103D0000910509F41FC2863091050CF4FAC1873081
:103D1000910509F420C28830910509F0B9C2B0C1FB
:103D20008091B80580FFB4C283E0F701818F80E401
:103D30008093B805118A108A8091B0059091B105E1
:103D4000009729F022E42093B8050E94B51710923D
:103D5000A2071092A1070E94C30726C18091B8054F
:103D600080FF8FC080913E068F73823109F089C039
:103D700020913D06822F90E0807F907081359105E3
:103D80000CF45BC022952F70622F70E0655070407C
:103D9000660F771F660F771F3091290520E04FE0EF
:103DA00056E041C0FA01E80FF91F36A9332329F480
:103DB000209320053093290540C0313011F42F5F46
:103DC00032C0323021F5FA01E80FF91FE7A9E430DB
:103DD000F1F42093200522E020932905FC01E15F06
:103DE000F94F30AD20E081AD90E0822B932B909382
:103DF000280580932705F1E08B359F0710F08AE5B1
:103E000091E0F701938B828B958B848B16C0FA011E
:103E1000E80FF91F87A9882329F420932005309300
:103E200029050BC0280F822F90E0861797070CF406
:103E3000B9CF209320053093290583E0F701818FC6
:103E4000809135068087809136068187809137067C
:103E5000828780913806838781E090E00E94B517C1
:103E600082E48093B805F701118A108A1092B10597
:103E70001092B0051092A2071092A1070E94C307EA
:103E800093C080E28093B8050E94C307E091BD050E
:103E9000F091BE05118EF7CC80913E0680FF2BC0BD
:103EA00044FD29C0F70180899189009709F0F0C18C
:103EB0008091B0059091B10501960E94B5172091AF
:103EC000B80520612093B8058091B0059091B105A7
:103ED000009719F022602093B8050E94C30781E083
:103EE00090E0F701918B808B88E0818F138E81E1C8
:103EF00080933E0633C185FF1CC03091430620E00D
:103F00008091440690E0282B392B8091BB0590913D
:103F1000BC05820F931F9093BC058093BB058091D5
:103F2000B0059091B105821B930B9093B1058093DE
:103F3000B0058091B0059091B105009749F044FD1E
:103F400007C02091B80522602093B8050E94B517DC
:103F500090913F0680E020914006820F911D909342
:103F6000280580932705F701248935892817390703
:103F700010F0009721F430932805209327058091B5
:103F8000270590912805F701938B828B8091B805C6
:103F900090E083709070009709F47AC11092A207A4
:103FA0001092A1070E94C3072091B80525FF09C000
:103FB0001092A2071092A107198E84E180933E0609
:103FC000CDC024FF0FC01092A2071092A10781E07C
:103FD00090E0998B888B84E0898F1B8E81E18093A0
:103FE0003E06BCC08091A1079091A2070097F1F016
:103FF00020FF03C0198A188A05C02889398921152C
:10400000310581F42A893B892817390720F4309338
:10401000A2072093A1078091A1079091A207998BF5
:10402000888B04C03093A2072093A1071B8E809138
:10403000B2059091B3059093BC058093BB05809128
:10404000A1079091A207009769F088899989009744
:1040500049F088969093B1058093B00588E18093EC
:104060003E0682C08091B80581FF12C188E290E0CF
:104070009093B1058093B00580E180933E0674C0B3
:104080008091B80580FF04C1F701118E80E1809313
:10409000B8050E94C307FCC08091B0059091B1059E
:1040A000009711F00E94B51780913E0680FF18C05E
:1040B0008091B80580FF07C087E0F701818F128EDD
:1040C000118A108A03C086E0F701818F81E090E0B9
:1040D0000E94B51780E18093B8050E94C3073BC0DA
:1040E0008091B80580FF06C085E0F701818F118AB5
:1040F000108ACEC08091B0059091B105009759F516
:10410000C7C08091B0059091B105009711F00E9451
:10411000B51780913E0680FF0EC087E0F701818FC2
:10412000128E81E090E00E94B51780E18093B8057F
:104130000E94C30710C08091B0059091B10500970F
:1041400051F4A6C08091B80580FFA2C087E0F701B6
:10415000818F128E9DC080E180933E0688E290E0C0
:104160009093B1058093B00580E580933D068885E6
:1041700080933906898580933A068A8580933B0629
:104180008B8580933C068C85809335068D85809346
:1041900036068E85809337068F858093380686E0B5
:1041A000809326068C819D81909332068093310600
:1041B0008E819F81909334068093330680910B0605
:1041C00090910C0690932A068093290680910D0603
:1041D00090910E0690932C0680932B0688819981EE
:1041E00090932E0680932D068A819B8190933006B2
:1041F00080932F06898D84FF05C01092400610928F
:104200003F0606C081E080933F068AE58093400622
:1042100080E4809325068091B0059091B10590933C
:104220001F068093200610924406109243061092B7
:104230004206109241060E94EA178095909590934D
:1042400042068093410685E480931D0610921E0667
:10425000109224061092230680911E0590911F054E
:10426000019690931F0580931E05909321068093DD
:10427000220610922806109227060E94D9178095D0
:10428000909590932806809327061092B80506C053
:104290001092B1051092B0051092B805DF91CF9140
:1042A0001F910F91FF90EF90DF9008959C011616DB
:1042B00017068CF4462F572F6093A1077093A2071F
:1042C0008091B2059091B3052817390721F0622F2C
:1042D000732F0E94A9240895EF92FF920F931F93CA
:1042E000CF93DF938C01F62EE72E10922A0540E043
:1042F00050E0A0E09A01220F331FCA01880F991FD6
:10430000880F991F880F991FF901E80FF91FE40F13
:10431000F51FE55DFA4F808191810097F9F0628188
:10432000738161157105D1F0E80128813981821707
:104330009307A1F48A819B816817790779F4A09388
:104340002A05DF011496CF2DDE2D86E009900D920F
:104350008150E1F78091830582878AC0A42FAF5FE7
:104360004F5F5F4F4830510529F640E050E070E064
:10437000642F9A01220F331FCA01880F991F880FDB
:10438000991F880F991FF901E80FF91FE40FF51F16
:10439000E55DFA4F80819181009741F4828193819C
:1043A000009721F470932A05742F09C0762F7F5F40
:1043B0004F5F5F4F48305105D9F670932A0578302A
:1043C00009F042C0B0918305CB2FD0E060E0A0E0BF
:1043D00040E050E0CA01880F991F9A01220F331F55
:1043E000220F331F220F331FFC01E20FF31FE40FD4
:1043F000F51FE55DFA4FE285CE018E1B9109262F50
:1044000030E0281739071CF46B2F6E1BA42F4F5F69
:104410005F4F48305105F1F660938405A093850500
:10442000A0932A052A2F30E0F901EE0FFF1FC901E2
:10443000880F991F880F991F880F991FE80FF91F80
:10444000E20FF31FE55DFA4FD8014D915D916D913B
:104450007C91DF014D935D936D937D93CF2DDE2D88
:1044600086E009900D928150E1F780918305828763
:10447000DF91CF911F910F91FF90EF90089580E011
:1044800090E0FC01EE0FFF1F9C01220F331F220F53
:10449000331F220F331FE20FF31FE80FF91FE55DF3
:1044A000FA4F1082118212821382282F2F5F2093DD
:1044B0002A0501968830910521F70895809183059A
:1044C0008F5F8093830510922A0580E090E0FC01C5
:1044D000EE0FFF1F9C01220F331F220F331F220FED
:1044E000331FE20FF31FE80FF91FE55DFA4F8281DA
:1044F000938120813181822B932B009769F08091E9
:10450000830590E02285821B91098837910524F06C
:10451000108211821282138280912A058F5F80930C
:104520002A05883098F208950F931F93CF93DF9355
:104530008091B0059091B1058A32910528F41092CE
:10454000B1051092B005A4C01092B1051092B0054B
:10455000809123069091240621E08030920731F06B
:1045600022E08030920709F093C075C02091350693
:104570003091360680910B0690910C06281739076A
:1045800009F086C0209137063091380680910D06DB
:1045900090910E062817390709F07AC0CBE2D6E0D1
:1045A0008E0106501040CE01B8010E946C2180E0BF
:1045B00092E090932406809323062496F80186E0E7
:1045C000019009928150E1F7A5E2B6E0E8E1F5E05B
:1045D00086E001900D928150E1F7A5E1B6E0E8E1B7
:1045E000F5E086E001900D928150E1F7EFE0F6E012
:1045F000DF01B09686E001900D928150E1F7A5E3CE
:10460000B6E0FD013A9780819181909336068093C0
:10461000350618978D919C91119790933806809349
:10462000370680910B0690910C06918380838091D0
:104630000D0690910E0611969C938E9388E096E05D
:1046400090931C0680931B068AE290E09093B1053C
:104650008093B0051DC020913506309136068091BB
:104660000B0690910C062817390791F42091370614
:104670003091380680910D0690910E062817390763
:1046800039F48BE296E0BC01665070400E946C21C8
:10469000DF91CF911F910F910895CF93DF934091B8
:1046A0002D0650912E062FEF4F3F520791F4809127
:1046B0002F0690913006AFEF8F3F9A0751F4AFE08D
:1046C000B6E0E9E7F3E086E001900D928150E1F772
:1046D000E2C080910B0690910C06842795272091CB
:1046E00007063091080682239323009791F4609186
:1046F0002F067091300620910D0630910E06262768
:1047000037278091090690910A0682239323009708
:1047100089F0809103069091040690938705809319
:1047200086058091050690910606909389058093F1
:10473000880508C0509387054093860570938905C6
:1047400060938805A0918605B0918705C091880582
:10475000D091890540E050E070E0642FCA01880FD5
:10476000991F9A01220F331F220F331F220F331F6D
:10477000FC01E20FF31FE40FF51FE55DFA4F8081A6
:104780009181A817B90749F482819381C817D90785
:1047900021F470932A05742F09C0762F7F5F4F5F35
:1047A0005F4F48305105C9F670932A05783009F0FB
:1047B0006AC0CFE0D6E0CE016FEF70E046E050E097
:1047C0000E94B224FE01B09686E0DF011D928A9518
:1047D000E9F72696E8E1F5E086E00190099281503C
:1047E000E1F7A5E2B6E0E8E1F5E086E001900D92A0
:1047F0008150E1F780918605909187059093360668
:1048000080933506809188059091890590933806AC
:104810008093370680910B0690910C0690932C069E
:1048200080932B0680910D0690910E0690932E0694
:1048300080932D0680E091E09093240680932306D8
:1048400090931E0680931D0688E090E090932006CA
:1048500080931F0686E08093210684E080932206E1
:1048600088E096E090931C0680931B0685E496E012
:104870009093BC058093BB058AE290E09093B105CC
:104880008093B00520C0AFE0B6E0349686E001909A
:104890000D928150E1F7A5E1B6E0E8E1F5E086E0B0
:1048A00001900D928150E1F788E090E090931C0612
:1048B00080931B068091B0059091B1050E96909360
:1048C000B1058093B005DF91CF910895AA1BBB1B62
:1048D00051E107C0AA1FBB1FA617B70710F0A61B00
:1048E000B70B881F991F5A95A9F780959095BC0121
:1048F000CD010895A1E21A2EAA1BBB1BFD010DC01C
:10490000AA1FBB1FEE1FFF1FA217B307E407F5077F
:1049100020F0A21BB30BE40BF50B661F771F881F5B
:10492000991F1A9469F760957095809590959B01F1
:10493000AC01BD01CF010895FB01DC0104C08D91E4
:104940000190801921F441505040C8F7881B990B01
:104950000895FB01DC0102C001900D9241505040CE
:10496000D8F70895DC0101C06D9341505040E0F745
:1049700008950F931F93CF93DF938C01E091050867
:10498000F0910608838181FF1AC0C0E0D0E005C025
:104990000995009711F0CFEFDFEFF80181918F01BA
:1049A0006091050870910608DB011896ED91FC9165
:1049B0001997882369F78AE00995009711F0CFEFDE
:1049C000DFEFCE01DF91CF911F910F9108950F93EB
:1049D0001F93CF93DF93CDB7DEB72E970FB6F89422
:1049E000DEBF0FBECDBF0D891E8986E08C831A8382
:1049F00009838FEF9FE79E838D83AE01475E5F4FF4
:104A0000CE0101966F89788D0E944E25EF81F88541
:104A1000E00FF11F10822E960FB6F894DEBF0FBE86
:104A2000CDBFDF91CF911F910F9108950F931F93E9
:104A3000CF93DF93CDB7DEB72E970FB6F894DEBFD6
:104A40000FBECDBF8C0186E08C831A83098377FF6C
:104A500002C060E070E8615070407E836D83CE01DB
:104A60000196BA01A9010E944E254D815E8157FD34
:104A70000AC02F813885421753070CF49A01020FA0
:104A8000131FF80110822E960FB6F894DEBF0FBEEA
:104A9000CDBFDF91CF911F910F9108952F923F923B
:104AA0004F925F926F927F928F929F92AF92BF923E
:104AB000CF92DF92EF92FF920F931F93CF93DF93EA
:104AC000CDB7DEB72D970FB6F894DEBF0FBECDBFC2
:104AD0003C017D876C875A01FC0117821682838115
:104AE00081FFC8C12E010894411C511CF301938120
:104AF000EC85FD8593FD859193FF8191FD87EC8782
:104B0000882309F4B3C1853241F493FD859193FF65
:104B10008191FD87EC87853229F490E0B3010E94F2
:104B20006B27E4CFFF24EE2410E01032B0F48B3278
:104B300069F08C3228F4803251F0833271F40BC06A
:104B40008D3239F0803349F411602CC0126014604A
:104B500029C0186027C0106125C017FD2EC0282F5E
:104B600020532A3098F416FF08C08F2D880FF82E96
:104B7000FF0CFF0CF80EF20E15C08E2D880FE82EDC
:104B8000EE0CEE0CE80EE20E10620CC08E3221F438
:104B900016FD6CC1106406C08C3611F4106802C09A
:104BA000883659F4EC85FD8593FD859193FF8191BD
:104BB000FD87EC87882309F0B8CF982F9554933060
:104BC00018F09052933038F424E030E0A20EB31E77
:104BD0003FE339830FC0833631F0833781F083356B
:104BE00009F05AC022C0F5018081898322E030E0BB
:104BF000A20EB31E21E0C22ED12C420114C092E0BD
:104C0000292E312C2A0C3B1CF5018080918016FF47
:104C100003C06F2D70E002C06FEF7FEFC4010E94F0
:104C200060276C0151011F7715C082E0282E312CBE
:104C30002A0C3B1CF5018080918016FF03C06F2D6C
:104C400070E002C06FEF7FEFC4010E9455276C0136
:104C50001068510113FD1CC006C080E290E0B30152
:104C60000E946B27EA948E2D90E0C816D906A8F30F
:104C70000FC0F40117FD859117FF81914F0190E05E
:104C8000B3010E946B27E110EA940894C108D1088F
:104C9000C114D10471F7E7C0843611F0893651F59B
:104CA000F50117FF07C080819181A281B38124E0C3
:104CB00030E008C080819181AA2797FDA095BA2F86
:104CC00022E030E0A20EB31E012F0F76B7FF08C01E
:104CD000B095A095909581959F4FAF4FBF4F0068BD
:104CE000BC01CD01A2012AE030E00E949727D82E16
:104CF000D4183FC0853721F41F7E2AE030E020C061
:104D0000197F8F36A9F0803720F4883509F0AEC0BE
:104D10000BC0803721F0883709F0A8C001C01061AE
:104D200014FF09C0146007C014FF08C0166006C055
:104D300028E030E005C020E130E002C020E132E0B0
:104D4000F50117FF07C0608171818281938144E082
:104D500050E006C06081718180E090E042E050E068
:104D6000A40EB51EA2010E949727D82ED418012F99
:104D70000F7706FF09C00E7FDF1430F404FF06C072
:104D800002FD04C00F7E02C01D2D01C01F2D802F0B
:104D900090E004FF0CC0FE01ED0DF11D20812033D9
:104DA00011F4097E09C002FF06C01E5F05C08678A7
:104DB0009070009709F01F5F802E992403FD12C0A8
:104DC00000FF0DC0FD2C1E1550F4FE0CF11A1E2D17
:104DD00006C080E290E0B3010E946B271F5F1E15A2
:104DE000C0F304C01E1510F4E11A01C0EE2484FEC5
:104DF0000FC080E390E0B3010E946B2782FE1FC0CA
:104E000081FE03C088E590E010C088E790E00DC007
:104E1000C40186789070009791F081FC02C080E216
:104E200001C08BE207FD8DE290E0B3010E946B2789
:104E300006C080E390E0B3010E946B27FA94DF1470
:104E4000C0F3DA94F201ED0DF11D808190E0B30121
:104E50000E946B27DD20A9F706C080E290E0B30135
:104E60000E946B27EA94EE20C1F740CEF3018681C1
:104E7000978102C08FEF9FEF2D960FB6F894DEBF9B
:104E80000FBECDBFDF91CF911F910F91FF90EF909B
:104E9000DF90CF90BF90AF909F908F907F906F905A
:104EA0005F904F903F902F900895FC0105906150C6
:104EB00070400110D8F7809590958E0F9F1F089530
:104EC000FC016150704001900110D8F780959095D9
:104ED0008E0F9F1F08950F931F93CF93DF938C0125
:104EE000EB018B8181FF1BC082FF0DC02E813F81B2
:104EF0008C819D812817390764F4E881F981019339
:104F0000F983E88306C0E885F985802F0995009725
:104F100031F48E819F8101969F838E8302C00FEFB3
:104F20001FEFC801DF91CF911F910F910895FA01F2
:104F3000AA27283051F1203181F1E8946F936E7FD8
:104F40006E5F7F4F8F4F9F4FAF4FB1E03ED0B4E0C9
:104F50003CD0670F781F891F9A1FA11D680F791F0A
:104F60008A1F911DA11D6A0F711D811D911DA11D1B
:104F700020D009F468943F912AE0269F112430192B
:104F8000305D3193DEF6CF010895462F4770405DC6
:104F90004193B3E00FD0C9F7F6CF462F4F70405D75
:104FA0004A3318F0495D31FD4052419302D0A9F7D0
:104FB000EACFB4E0A6959795879577956795BA95CA
:104FC000C9F700976105710508959B01AC010A2E90
:104FD00006945795479537952795BA95C9F7620F67
:0E4FE000731F841F951FA01D0895F894FFCF26
:104FEE00ADDE122363825363202020202045434FE1
:104FFE00544953202020202000536D617274546F49
:10500E006E657253797374656D004C6F6164696E71
:10501E00672053797374656D2E2E00204B3A46200F
:10502E00433A46204D3A4620593A4600204B3A4CD8
:10503E0020433A46204D3A4620593A4600204C6FBE
:10504E007720746F6E657220426C61636B20004C2A
:10505E006F6164696E6720746F6E65722E2E2E00FE
:10506E00204B3A4620433A4C204D3A4620593A4678
:10507E0000204C6F7720746F6E6572204379616EDD
:10508E002000204B3A4620433A46204D3A4C2059B8
:10509E003A46004C6F7720746F6E6572204D6167D3
:1050AE00656E746100204B3A4620433A46204D3AD5
:1050BE004620593A4C004C6F7720746F6E65722003
:1050CE0059656C6F77002F53797374656D312F743A
:1050DE006F6E65725F737570706C7931002F5379D6
:1050EE007374656D312F746F6E65725F737570704A
:1050FE006C7932002F53797374656D312F746F6E26
:10510E0065725F737570706C7933002F5379737499
:10511E00656D312F746F6E65725F737570706C791B
:10512E0034002564002F53797374656D312F626BD3
:10513E005F636F756E74002F53797374656D312FC5
:10514E00635F636F756E74002F53797374656D3181
:10515E002F6D5F636F756E74002F53797374656D69
:10516E00312F795F636F756E7400202020202045EB
:10517E00636F54697320202020200049503A202567
:10518E00642E25642E25642E2564202020202000E8
:10519E0049503A25642E25642E25642E2564200060
:1051AE00656E6332386A36305F6176725F636C6942
:1051BE00656E74002F230025642E25642E25642E23
:1051CE002564002F53797374656D31002F537973F5
:1051DE0074656D312F696E666F0045636F74697308
:1051EE005F53797374656D5F532F4E3A3334363196
:1051FE003233363132330000000000C0A80101FF07
:10520E00FFFF00C0A8013200BD3B330572B5039607
:10521E0000000000004B04C8000000000000000069
:10522E00000000F10C000000000000000000000073
:10523E000000000000000001000800200040008077
:10524E0000000100040157616974656420666F7285
:10525E00206E65776461746100FFFFFFFFFFFF0042
:00000001FF
