:100000000C9446000C9466000C9466000C946600F8
:100010000C9466000C9466000C9466000C946600C8
:100020000C9466000C9416140C9466000C946600F4
:100030000C9466000C9466000C9466000C946600A8
:100040000C9466000C9466000C9466000C94660098
:100050000C9466000C9466000C9466000C94660088
:100060000C9466000C9466000C9466000C94660078
:100070000C9466000C9466000C9466000C94660068
:100080000C9466000C9466000C94660011241FBE4C
:10009000CFEFD0E1DEBFCDBF13E0A0E0B1E0E4E3FD
:1000A000F5E500E00BBF02C007900D92A63AB1073C
:1000B000D9F71BBE18E0A6EAB3E001C01D92A13437
:1000C000B107E1F70E94DA110C94982A0C94000011
:1000D00086B1876886B987B1806C87B90895369AEA
:1000E0003699FECF84B195B10895CF92DF92EF9209
:1000F000FF92CF93DF938FEF93E09093B9058093B6
:10010000B8050E946F009093B5058093B40580E018
:1001100090E060E070E00E94A7036091B4057091E8
:10012000B50580E090E00E94B32520E030E048EC87
:1001300052E40E9441266B017C016091B8057091E8
:10014000B90580E090E00E94B3259B01AC01C70196
:10015000B6010E941F250E948725DC01CB019093E8
:10016000B7058093B6052DB73EB7285030400FB67F
:10017000F8943EBF0FBE2DBF4DB75EB74F5F5F4FC8
:10018000CAEBD5E0EDB7FEB7D283C18324E030E0FF
:10019000FA013383228320E031E03583248397837F
:1001A00086830E9425272DB73EB7285F3F4F0FB6A5
:1001B000F8943EBF0FBE2DBFCE010E940304DF9115
:1001C000CF91FF90EF90DF90CF900895FC0185E3F1
:1001D000808381E081836283CF01039608952FEFAE
:1001E000FC012193CF010895CF93DF93EC0181E0CF
:1001F000888389838091B3038A831B82809107015E
:1002000090910801A0910901B0910A018C839D830E
:10021000AE83BF831986188680E890E09B878A8723
:100220008091430690914406A0914506B091460600
:100230008C879D87AE87BF87188A198A1A8A1B8A7E
:100240001C8A1D8A1E8A1F8A188E198E1A8E1B8E72
:10025000CE014C96E1EBF3E0608171814091B303F4
:100260005091B4030E94E7268091B3039091B403A8
:1002700040E150E0481B590B4C968C0F9D1F60E0ED
:1002800070E00E94F026CE018C96E82FF92F80E4D2
:10029000DF011D928A95E9F7CE0184599F4FE82F1F
:1002A000F92F80E8DF011D928A95E9F7C451DF4FED
:1002B00080910B0190910C01A0910D01B0910E0164
:1002C00088839983AA83BB83DF91CF910895AF92EE
:1002D000BF92CF92DF92EF92FF920F931F93CF9333
:1002E000DF93C091F305D091F4058881823009F045
:1002F000A3C0CE01049667E071E044E050E00E94A4
:10030000DA26282F392F2115310509F097C0609181
:10031000B1037091B2034091B3035091B403CE0185
:100320004C960E94DA26282F392F2115310509F025
:1003300087C088899989AA89BB898093BD039093D6
:10034000BE03A093BF03B093C003C051DF4F4091E1
:10035000E8055091E9054C0F5D1FC417D50708F05B
:1003600069C080E00F2EF9EBAF2EF3E0BF2EF02D29
:10037000A5EBB3E069EC73E00F2EF5ECEF2EF3E0A4
:10038000FF2EF02D0F2EF1ECCF2EF3E0DF2EF02D0F
:1003900098819333D9F1943338F49330B9F096308F
:1003A000F9F09130E1F508C0963331F19F3F09F43F
:1003B00048C09533A1F51EC00A811B812C813D8167
:1003C000F601008311832283338329C00A811B81B4
:1003D0002C813D81FB0100831183228333831FC065
:1003E0000A811B812C813D81F701008311832283C7
:1003F000338315C08A8113C00A811B812C813D8102
:100400000D931D932D933C93139709C00A811B8173
:100410002C813D81F501008311832283338329815F
:1004200030E02E5F3F4FC20FD31FC417D50708F42B
:10043000AFCF07C080E005C080E003C080E001C00E
:1004400080E0DF91CF911F910F91FF90EF90DF90AF
:10045000CF90BF90AF900895CF93DF9300D000D09E
:10046000CDB7DEB79093B2038093B1037093B4031A
:100470006093B3031092A8038FEF9FEF9A83898351
:100480009C838B83CE01019660E073E40E94BC19CB
:100490009093AA038093A903009729F020E034E405
:1004A000FC01358324831092A7031092A6030F90BA
:1004B0000F900F900F90DF91CF910895CF93DF931E
:1004C0008091A6039091A70321E08131920709F45E
:1004D0004FC021E08231920718F4009761F0FBC011
:1004E00021E08532920709F4BCC021E082359207F1
:1004F00009F0F1C0E9C081E08093A80388EE93E0A1
:100500009093B0038093AF03C091F305D091F405AD
:10051000CE010E94F400CE0180519F4F61E00E9405
:10052000E600FC0187E3808383E0818391E092838E
:10053000838386E08483CF0105960E94EF0020919B
:10054000F3053091F405BC01621B730BC9010E94D5
:100550000F226091AF037091B0038BEA93E00E9489
:10056000D31681E191E09093A7038093A603B7C0CF
:100570008091F00581FD0BC08BEA93E00E94F31699
:10058000009709F4ACC08091F00581FF07C00E947C
:100590006701823019F48093A80313C08091AF03E0
:1005A0009091B0032AEE8036920730F4880F991F9D
:1005B0009093B0038093AF038091A803823009F039
:1005C000A3CF88EE93E09093B0038093AF03C091E4
:1005D000F305D091F405CE010E94F400CE018051C4
:1005E0009F4F63E00E94E600FC0186E3808324E0E5
:1005F00021838091B5039091B603A091B703B09188
:10060000B80382839383A483B58382E3868327839D
:100610004091BD035091BE036091BF037091C00330
:100620004087518762877387CF010C960E94EF0045
:100630002091F3053091F405BC01621B730BC901D5
:100640000E940F226091AF037091B0038BEA93E098
:100650000E94D31685E291E09093A7038093A603AE
:100660003EC08091F00581FD0AC08BEA93E00E94B4
:10067000F3160097A1F18091F00581FF08C00E9458
:100680006701853021F483E08093A80319C080912D
:10069000AF039091B00327E28131920760F4885153
:1006A0009C4F9093B0038093AF038091A803833055
:1006B00009F08DCF05C01092A7031092A6030FC0BA
:1006C00086EA93E00E94D90F82E591E09093A70318
:1006D0008093A60304C01092A7031092A603DF9193
:1006E000CF9108958091A803882341F41092440685
:1006F0001092430610924606109245060895D89A25
:1007000090E19A95F1F700C09BB3937C9BBB9BB3A0
:10071000880F880F892B8BBBD89880E18A95F1F7D9
:1007200000C00895CF93C82F662311F4D99801C053
:10073000D99A8C2F82958F700E947F038C2F0E94F4
:100740007F03CF91089561E00E949203089562951E
:10075000660F660F607C860F806860E00E949203DF
:10076000089585EA9EE00197F1F700C0000083E05C
:100770000E947F0387EE93E00197F1F700C000002D
:1007800083E00E947F0391E29A95F1F7000083E0F5
:100790000E947F0389EF90E00197F1F700C000000D
:1007A00082E00E947F0389EF90E00197F1F700C09B
:1007B000000088E260E00E94920389EF90E00197D8
:1007C000F1F700C000008CE060E00E94920389EF26
:1007D00090E00197F1F700C0000086E060E00E9421
:1007E000920389EF90E00197F1F700C000000895AF
:1007F00081E060E00E94920386E791E00197F1F7C3
:1008000000C0000008950F931F93CF938C01FC014B
:100810008081882351F0C0E00E94A303CF5FF801DC
:10082000EC0FF11D80818823B9F7CF911F910F91B3
:1008300008959C01FB0140E050E0C9018F77907062
:10084000220F232F221F330B31952115310529F05B
:10085000806881934F5F5F4FF0CF640F751FFB017E
:100860008083CA0101960895FC018081918195835E
:100870008483178216820895EF92FF920F931F933D
:10088000CF93DF93EC018B019A01E881F9816A81B2
:100890007B81CB0101977F01E80EF91E8C819D8140
:1008A0004E815F812115310511F18E1B9F0B840F45
:1008B000951F0E94A426E80FF91FEE16FF0610F4FC
:1008C000E881F9818E819F81009729F08C819D813B
:1008D0008E179F0761F0D8018D918D0181938E81D4
:1008E0009F8101969F838E832150304031F7822F64
:1008F000932FDF91CF911F910F91FF90EF9008956B
:100900000F931F93CF93DF93EC01F62FE72F8A010C
:100910004C815D812A813B812150304088819981C1
:10092000BC01620F731F01151105E9F08E819F81D3
:100930000097E1F0AF2FBE2F20E030E0FA01E20F88
:10094000F31F80818D936417750710F448815981D6
:100950002F5F3F4F2017310759F08E819F81281755
:10096000390760F305C020E030E002C020E030E04D
:10097000822F932FDF91CF911F910F9108950F93A5
:100980001F93CF93DF93DC01F62FE72F8A01129696
:100990008D919C91139701972D913C911197B901DD
:1009A000680F791F41155105D1F116968D919C91D3
:1009B00017970097B9F1CF2FDE2F40E050E0149643
:1009C000ED91FC9115978081899314968D919C915E
:1009D00015979C012F5F3F4F15963C932E931497CC
:1009E00016968D919C911797019717969C938E93CD
:1009F00016976217730738F48D919C91119715968D
:100A00009C938E9314974F5F5F4F4017510761F08F
:100A100016968D919C911797009789F605C040E036
:100A200050E002C040E050E0842F952FDF91CF913D
:100A30001F910F910895FC0111A6178E168E138E2B
:100A4000128E158E148E81E090E091A380A30895FC
:100A5000EF92FF920F931F93CF93DF93CDB7DEB743
:100A600063970FB6F894DEBF0FBECDBF8C01DC01DB
:100A70005296EC9152975396FC91DF010D90002015
:100A8000E9F711977D01EE1AFF0A08960E943404D7
:100A9000802F912F0E943404F80111A6178E168E14
:100AA000138E128E158E148E81E090E091A380A398
:100AB00080E1898B1D8286E08E838DE48F8381E5C2
:100AC000888789E4898783E78A8784E68B8780E73C
:100AD0008C8783E08D8782E08E87808991899F87CC
:100AE000888B9E2D8F2D9B8B8A8B802F912FBE0103
:100AF0006F5E7F4F41E050E00E943C04C7010E96BC
:100B0000BE016F5F7F4F0E941904AC01802F912FAF
:100B1000BE016F5F7F4F0E943C04802F912FBE016A
:100B20006B5F7F4F4CE050E00E943C04802F912F80
:100B3000BE016E5E7F4F42E050E00E943C04D8014F
:100B400052966D917C915397802F912FA7010E940F
:100B50003C0481E0F80181A7008CF18DE02D3097F5
:100B600011F0C801099563960FB6F894DEBF0FBE69
:100B7000CDBFDF91CF911F910F91FF90EF9008951E
:100B8000CF92DF92EF92FF920F931F93CF93DF9359
:100B9000CDB7DEB72A970FB6F894DEBF0FBECDBF34
:100BA0008C01F62EE72EE62FF72FDF010D900020A7
:100BB000E9F711976D01CE1ADF0A1F8282E8888754
:100BC000D80190968D919C9191979D838E830196EB
:100BD00091969C938E9390979C2D8D2D9A878987C3
:100BE000802F912FBE01685F7F4F41E050E00E944F
:100BF0003C04C6010596BE016F5F7F4F0E94190439
:100C0000AC01802F912FBE016F5F7F4F0E943C048B
:100C1000802F912FBE016B5F7F4F42E050E00E941A
:100C20003C04802F912FBE01675F7F4F42E050E070
:100C30000E943C04802F912F6F2D7E2DA6010E94D3
:100C40003C04802F912FBE01695F7F4F41E050E04F
:100C50000E943C04F801848D958D0196958F848FB8
:100C6000008CF18DE02D309711F0C80109952A967E
:100C70000FB6F894DEBF0FBECDBFDF91CF911F91AD
:100C80000F91FF90EF90DF90CF9008958F929F92F9
:100C9000AF92BF92CF92DF92EF92FF920F931F938A
:100CA000CF93DF93CDB7DEB727970FB6F894DEBFAB
:100CB0000FBECDBF8C01F62EE72E4A015901A62F9B
:100CC000B72FFD0101900020E9F731976F01CA1A93
:100CD000DB0A80E38F83DD82CE82802F912FBE01DD
:100CE000695F7F4F41E050E00E943C04C5010296DD
:100CF0008C0D9D1DBE016F5F7F4F0E941904AC01DA
:100D0000802F912FBE016F5F7F4F0E943C04802F88
:100D1000912FBE016B5F7F4F42E050E00E943C0488
:100D2000802F912F6F2D7E2DA6010E943C04802FD5
:100D3000912FB401A5010E943C04D8015896ED9171
:100D4000FC915997309711F0C801099527960FB675
:100D5000F894DEBF0FBECDBFDF91CF911F910F91F1
:100D6000FF90EF90DF90CF90BF90AF909F908F90CB
:100D700008950F931F93CF93DF9300D0CDB7DEB7C5
:100D80008C0180EC89831A82C801BE016F5F7F4F9E
:100D900042E050E00E943C04D8015E968D919C9107
:100DA0005F9701965F969C938E935E975896ED9110
:100DB000FC915997309711F0C80109950F900F9049
:100DC000DF91CF911F910F9108952F923F924F92F3
:100DD0005F926F927F928F929F92AF92BF92CF92CB
:100DE000DF92EF92FF920F931F93CF93DF93CDB7D4
:100DF000DEB7CB5ED0400FB6F894DEBF0FBECDBFDE
:100E00003C01CC24DD246894C3F8C80ED91E0F2EF3
:100E1000F6E0AF2EBB24F02DAC0EBD1E8824992425
:100E20000F2EFEEF2F2EFFEF3F2EF02D88E690E0E5
:100E30008C0F9D1F0296C651DF4F99838883CA5E2F
:100E4000D0400F2EF7E24F2E5524F02D4C0E5D1E94
:100E5000E6C0C601BE016F5F7F4F42E050E00E94D6
:100E6000BF048A818823C4F40F2EF3E0EF2EFF2401
:100E7000F02DEC0EFD1E8701C601B70141E050E0E8
:100E80000E94BF040894E11CF11CD8018C918823B6
:100E90001CF4EA14FB0479F7E980DE011296840160
:100EA00041E050E0B4018D9190E08F779070849F85
:100EB0009001859F300D949F300D1124020F131F58
:100EC0005695542F4427579547956F5F7F4F59F399
:100ED000FD0131978081882334F30138110508F032
:100EE0009EC0C601BE0168597F4FA8010E94BF0481
:100EF0008E2D82958F70893059F18A3030F482308E
:100F000051F0833009F08BC035C08D3061F18E30E7
:100F100009F085C017C0AA968FADAA97882361F4FF
:100F200082E0F30181A70488F589E02D309709F468
:100F300076C0C301099573C0E3E0D3019996EC93A1
:100F400099976DC0E4E0D3019996EC93999767C0A7
:100F5000D3015C968D919C915D9701975D969C93D2
:100F60008E935C975CC0F301868D978D0197978F68
:100F7000868F55C0A996FFADA997C751DF4FF8835B
:100F8000C95ED040C851DF4F1882C85ED040AA96D3
:100F90008FADAA9790E0C851DF4FE880F980C85E16
:100FA000D040E82AF92A81E2E816F104C0F5C1012F
:100FB0008E199F09080F191F0134110580F58A2D1C
:100FC0009B2DC651DF4F6881CA5ED040C551DF4FAF
:100FD0007881CB5ED0404E2D5F2D0E94E726F50133
:100FE000EE0DFF1D1082B7016E5F7F4FA8E6B0E0E7
:100FF000AC0FBD1F6A0F7B1F842D952D402F512FE5
:101000000E94E726F201E00FF11F1082D3015696ED
:10101000ED91FC915797C301B501A2010995F30128
:10102000868597858230910508F013CFC551DF4F33
:101030000FB6F894DEBF0FBECDBFDF91CF911F91E9
:101040000F91FF90EF90DF90CF90BF90AF909F9067
:101050008F907F906F905F904F903F902F9008956A
:1010600024E0FC0121A70895CF92DF92EF92FF9236
:101070000F931F93CF93DF93CDB7DEB7C058D04007
:101080000FB6F894DEBF0FBECDBFE091F505F0912D
:10109000F605048D158DC288D388F801F680E780A7
:1010A0004091F005842F90E09C0120733070211551
:1010B000310511F444233CF4C8010E94300880E15A
:1010C0008093F00528C041FF0FC06091F305709137
:1010D000F4054091E8055091E905C80108960E9481
:1010E0003C04C8010E94E5068091F005897099F0E2
:1010F0004F2D5E2DC416D50608F4A601C801BE0109
:101100006F5F7F4F0E94BF04BC01009721F0CE01AA
:1011100001960E940F22C058DF4F0FB6F894DEBF31
:101120000FBECDBFDF91CF911F910F91FF90EF9038
:10113000DF90CF900895CF93DF93EC01E62FF72F48
:10114000DF010D900020E9F71197AD014E1B5F0BF9
:10115000460F571F88818823A1F16417750798F5FA
:101160002196DB019A01BA01615070409C919F3237
:1011700019F48F3229F028C08B3231F08332C1F05C
:10118000891711F58B32A9F4CD01019684179507C3
:1011900080F411968C9111978F3259F0FD0132969F
:1011A0001196E217F30729F081918F32C9F701C038
:1011B000DB0111968991882339F0A417B507B0F2A5
:1011C00003C0DB0101C0DB01A417B50741F421E036
:1011D00030E0882311F020E030E0C90102C080E057
:1011E00090E0DF91CF910895009741F0E9EFF0E0B2
:1011F0003197F1F700C000000197C1F708953798C3
:101200001BBA8FEF8ABB84B38F6384BBE4E6F0E044
:1012100080818360808385B3807C85BBE5E6F0E0D8
:1012200080818C7F808384B3806C84BB85B38F7313
:1012300085BB0895CF93DF9380E090E060E070E09D
:101240000E94A703CFE0D1E0CE010E94030480E01A
:1012500090E060E070E00E94A70380E291E00E94CD
:1012600003048FE39DE0A3E081509040A040E1F7AC
:1012700000C00000CE010E94030480E090E061E025
:1012800070E00E94A70381E391E00E9403048FEDC8
:1012900093E9A4E081509040A040E1F700C0000035
:1012A00080E090E060E070E00E94A703CE010E9421
:1012B000030480E090E061E070E00E94A70382E414
:1012C00091E00E940304DF91CF91089580E090E0C7
:1012D00061E070E00E94A70382E491E00E940304B1
:1012E00012BA10926500089580E090E061E070E02D
:1012F0000E94A70383E591E00E9403048FED93E928
:10130000A4E081509040A040E1F700C0000080E0E0
:1013100090E060E070E00E94A70384E691E00E9404
:10132000030480E090E061E070E00E94A70386E79C
:1013300091E00E940304A7EAB1E61197F1F700C01B
:1013400000008FE39DE0A3E081509040A040E1F7D2
:1013500000C0000085B3806385BBAF9A8FE997EF2B
:10136000A3E081509040A040E1F700C00000AE9A99
:10137000A3EDB0E31197F1F700C0000085B38F73C0
:1013800085BB8FE79AE1A6E081509040A040E1F74D
:1013900000C0000085B38F7C85BB0E94900D08952E
:1013A00080E090E061E070E00E94A70387E891E0B0
:1013B0000E9403048FED93E9A4E081509040A04087
:1013C000E1F700C0000080E090E060E070E00E9483
:1013D000A70388E991E00E94030480E090E061E0C7
:1013E00070E00E94A70386E791E00E940304A7EA49
:1013F000B1E61197F1F700C000008FE39DE0A3E094
:1014000081509040A040E1F700C0000082B38063AB
:1014100082BBE5E6F0E08081816080838FE997EF11
:10142000A3E081509040A040E1F700C0000080811F
:1014300082608083A3EDB0E31197F1F700C0000054
:1014400080818C7F80838FE79AE1A6E08150904075
:10145000A040E1F700C0000082B38F7382BB0E94FE
:10146000F40D089580E090E061E070E00E94A70331
:1014700089EA91E00E9403048FED93E9A4E0815092
:101480009040A040E1F700C0000080E090E060E004
:1014900070E00E94A7038AEB91E00E94030480E0C1
:1014A00090E061E070E00E94A70386E791E00E946F
:1014B0000304A7EAB1E61197F1F700C000008FE33B
:1014C0009DE0A3E081509040A040E1F700C0000003
:1014D00082B38C6082BBE5E6F0E08081816080832E
:1014E0008FE997EFA3E081509040A040E1F700C062
:1014F0000000808182608083A3EDB0E31197F1F753
:1015000000C0000080818C7F80838FE79AE1A6E095
:1015100081509040A040E1F700C0000082B38F737B
:1015200082BB0E94580E089580E090E061E070E078
:101530000E94A7038CEC91E00E9403048FED93E9D5
:10154000A4E081509040A040E1F700C0000080E09E
:1015500090E060E070E00E94A7038DED91E00E94B2
:10156000030480E090E061E070E00E94A70386E75A
:1015700091E00E940304A7EAB1E61197F1F700C0D9
:10158000000082B3836082BBE5E6F0E08081816089
:1015900080838FE997EFA3E081509040A040E1F76E
:1015A00000C00000808182608083A3EDB0E31197CA
:1015B000F1F700C0000080818C7F80838FE79AE183
:1015C000A6E081509040A040E1F700C0000082B347
:1015D0008F7382BB0E94BC0E0895989B03C00E942B
:1015E000740908959A9B03C00E94D0090895999B9D
:1015F00003C00E94320A08959B9B02C00E94940A75
:101600000895CF93C62FC098962F9F71892B0E9463
:10161000731280E00E947312CC231CF480E00E94BD
:101620007312C09ACF910895CF93C42FC0986F7151
:10163000862B0E9473128C2F0E947312C09ACF9136
:1016400008950F931F93CF93DF93EC018B01C09804
:101650008AE30E947312209741F080E00E94731287
:10166000F80181938F012197C1F7C09ADF91CF9143
:101670001F910F9108950F931F93CF93DF93EC0168
:101680008B01C0988AE70E947312209739F0F80105
:1016900081918F010E9473122197C9F7C09ADF913F
:1016A000CF911F910F9108951F93CF93DF93182F20
:1016B000C82FD0E0C076D0708091C00590E0C817E8
:1016C000D907B9F080EA6FE143E00E94140BAE0144
:1016D00055954795559547955595479555954795F2
:1016E0005595479580E86FE10E94140B1076109392
:1016F000C005DF91CF911F910895CF93C82F0E940D
:10170000540B80E06C2F0E94010BCF9108951F9322
:10171000CF93DF93182F0E947D0BC82FD0E0812F2D
:101720008F5F0E947D0B382F20E0C22BD32B8C2F94
:101730009D2FDF91CF911F910895CF93DF93C82FF5
:10174000D62F0E94540B80E46C2F4D2F0E94140B57
:10175000DF91CF910895CF93DF93C82FD72F0E94A9
:101760009D0B8C2F8F5F6D2F0E949D0BDF91CF9172
:101770000895CF93DF93682F84ED0E949D0B82ED37
:1017800061E00E949D0B8AEE0E947D0B80FDFBCFE5
:1017900082ED60E00E949D0B88ED0E947D0BD82FAA
:1017A00080E0C82F89ED0E947D0B90E0C82BD92BDB
:1017B0008C2F9D2FDF91CF910895CF93DF93982F9A
:1017C000D62FC72F84ED692F0E949D0B86ED6D2FBC
:1017D0000E949D0B87ED6C2F0E949D0B8AEE0E944C
:1017E0007D0B80FDFBCFDF91CF9108958FEF60E0FF
:1017F0004FEF0E94140B81E090E00E94F4080895DE
:101800001F93CF93DF93EC01162FB89AC09ABC9A1E
:10181000C49A0E946A120E94F60B1092BF051092A1
:10182000BE0588E060E070E00E94AB0B8CE060E0F9
:1018300070E00E94AB0B8AE06EEF7FE00E94AB0B82
:1018400084E06FEF7FE00E94AB0B88E361EA0E94C7
:101850009D0B80EC6DE00E949D0B81EC60E00E948E
:101860009D0B80E862EC42E30E94140B86EC62E17F
:101870000E949D0B87EC6CE00E949D0B84EC62E162
:101880000E949D0B8AEC62EA71E00E94AB0B84EE31
:1018900068810E949D0B85EE69810E949D0B82EEFE
:1018A0006A810E949D0B83EE6B810E949D0B80EEEE
:1018B0006C810E949D0B81EE6D810E949D0B80E1E9
:1018C00060E071E00E94DD0B84E166E774E00E9455
:1018D000DD0B8BE160EC0E949D0B8FE164E00E94C8
:1018E0009D0B80EA6FE14CE00E94140B112399F0EC
:1018F00080E00E94B90BBC017E7F80E00E94DD0B7E
:1019000082EC0E947D0B682F70E06E7F82EC0E945B
:101910009D0B65E101C062E184EC0E949D0B80E8B3
:101920006FE144E00E94140BDF91CF911F91089565
:1019300082E70E947D0B089581E10E94B90B21E0AE
:10194000009709F420E0822F0895089580E86FE160
:1019500040E80E94140B80EA6FE140E80E94140BFB
:1019600080EA6CE142E00E94140B08950F931F93EC
:10197000CF93DF938C01EB010E94A60C82E06FEF06
:101980007FE00E94AB0BBE016150704F86E00E9469
:10199000AB0B8AE760E040E00E94140BCE01B80177
:1019A0000E943B0B80E86FE148E00E94140BDF913E
:1019B000CF911F910F9108958FE10E947D0B887048
:1019C000089508950F931F93CF93DF9389E30E94A7
:1019D0007D0B882309F441C06091BE057091BF055D
:1019E00080E00E94AB0B8AE360E00E94010B8093D1
:1019F000BE051092BF058AE360E00E94010B382FFC
:101A000020E08091BE059091BF05282B392B3093A3
:101A1000BF052093BE058AE360E00E94010B182FEA
:101A20008AE360E00E94010B082F8AE360E00E94D5
:101A3000010BC82FD0E08AE360E00E94010B382F31
:101A400020E0C22BD32BC7FF0BC0812F90E0302F9B
:101A500020E0822B932B049705C080E090E002C029
:101A600080E090E0DF91CF911F910F9108959C014C
:101A7000CB01B9010E94210B08956091BE057091C0
:101A8000BF05615070408FE06F3F780730F08CE009
:101A90006EEF7FE00E94AB0B03C08CE00E94AB0BAB
:101AA00080E86EE140E40E94140B089508950895C3
:101AB0008091D7039091D80301969093D803809397
:101AC000D7030895CF93DF93EB018DEE91E00E9451
:101AD0009B08882311F00E94740984E092E0BE0103
:101AE0000E949B08882311F00E94D0098BE192E0AC
:101AF000BE010E949B08882311F00E94320A82E3F3
:101B000092E0BE010E949B08882311F00E94940A73
:101B1000DF91CF9108958091D7039091D8030895D4
:101B2000EF92FF920F931F93CF93DF93CDB7DEB762
:101B30006E970FB6F894DEBF0FBECDBF0F2EF6E046
:101B4000EF2EF0E0FF2EF02DC7010E94D0299093D8
:101B5000D6038093D50300D000D000D0EDB7FEB7F8
:101B600031968E010F5F1F4FADB7BEB712961C9313
:101B70000E93119729E432E0338322839583848383
:101B80000E946227F80101900020E9F79F0121508F
:101B90003040201B310B8DB79EB706960FB6F894D8
:101BA0009EBF0FBE8DBF83E593E06CE472E0A80199
:101BB0000E9446066091D5037091D6036F5F7F4FF8
:101BC0007093D6036093D503C7010E94D6296E9601
:101BD0000FB6F894DEBF0FBECDBFDF91CF911F913E
:101BE0000F91FF90EF900895EF92FF920F931F9344
:101BF000CF93DF93CDB7DEB76E970FB6F894DEBF05
:101C00000FBECDBF0F2EF2E0EF2EF0E0FF2EF02D35
:101C1000C7010E94D0299093D4038093D30300D0AE
:101C200000D000D0EDB7FEB731968E010F5F1F4F89
:101C3000ADB7BEB712961C930E93119729E432E00C
:101C400033832283958384830E946227F801019065
:101C50000020E9F79F0121503040201B310B8DB748
:101C60009EB706960FB6F8949EBF0FBE8DBF83E554
:101C700093E06EE572E0A8010E9446066091D303EE
:101C80007091D4036F5F7F4F7093D4036093D3033D
:101C9000C7010E94D6296E960FB6F894DEBF0FBE1C
:101CA000CDBFDF91CF911F910F91FF90EF900895DD
:101CB000EF92FF920F931F93CF93DF93CDB7DEB7D1
:101CC0006E970FB6F894DEBF0FBECDBF0F2EF4E0B7
:101CD000EF2EF0E0FF2EF02DC7010E94D029909347
:101CE000D2038093D10300D000D000D0EDB7FEB76F
:101CF00031968E010F5F1F4FADB7BEB712961C9382
:101D00000E93119729E432E03383228395838483F1
:101D10000E946227F80101900020E9F79F012150FD
:101D20003040201B310B8DB79EB706960FB6F89446
:101D30009EBF0FBE8DBF83E593E06FE672E0A80102
:101D40000E9446066091D1037091D2036F5F7F4F6E
:101D50007093D2036093D103C7010E94D6296E9677
:101D60000FB6F894DEBF0FBECDBFDF91CF911F91AC
:101D70000F91FF90EF900895EF92FF920F931F93B2
:101D8000CF93DF93CDB7DEB76E970FB6F894DEBF73
:101D90000FBECDBF0F2EF0E0EF2EF0E0FF2EF02DA6
:101DA000C7010E94D0299093D0038093CF0300D025
:101DB00000D000D0EDB7FEB731968E010F5F1F4FF8
:101DC000ADB7BEB712961C930E93119729E432E07B
:101DD00033832283958384830E946227F8010190D4
:101DE0000020E9F79F0121503040201B310B8DB7B7
:101DF0009EB706960FB6F8949EBF0FBE8DBF83E5C3
:101E000093E060E872E0A8010E9446066091CF036B
:101E10007091D0036F5F7F4F7093D0036093CF03B7
:101E2000C7010E94D6296E960FB6F894DEBF0FBE8A
:101E3000CDBFDF91CF911F910F91FF90EF9008954B
:101E400086ED95E00E94F316009769F086ED95E027
:101E50000E94DF1680E060E070E00E94A70381E945
:101E600092E00E9403040895CF93DF93CDB7DEB7CD
:101E700060970FB6F894DEBF0FBECDBF89EC95E03A
:101E80000E94F316009709F47CC089EC95E00E944B
:101E9000DF162091430680914406209349038093E6
:101EA0004A03809145069091460690934C03809397
:101EB0004B03222381F58DB79EB70C970FB6F8948C
:101EC0009EBF0FBE8DBFEDB7FEB73196CE01019616
:101ED000ADB7BEB712969C938E93119782EA92E0AB
:101EE000938382831582148280914A0386831782AA
:101EF00080914B038087118680914C0382871386E3
:101F00000E9462278DB79EB70C960FB6F8949EBFBD
:101F10000FBE8DBF2DC0ADB7BEB71C970FB6F894DE
:101F2000BEBF0FBEADBFEDB7FEB73196CE01019675
:101F300012969C938E93119787EB92E09383828302
:101F40002483158280914A038683178280914B03F4
:101F50008087118680914C03828713860E946227B6
:101F60008DB79EB70C960FB6F8949EBF0FBE8DBF6F
:101F700080E060E070E00E94A703CE0101960E941D
:101F8000030460960FB6F894DEBF0FBECDBFDF919D
:101F9000CF91089568EE73E080E090E048E55DE061
:101FA0000E94A2131092D8031092D7030E940F141C
:101FB0000895FC018789908D909344068093430691
:101FC000818D928D9093460680934506838D948DE6
:101FD0009093400680933F06858D968D90934206A0
:101FE0008093410683A194A190933C0680933B0685
:101FF00085A196A190933E0680933D060895EF92A9
:10200000FF920F931F93CF93DF9300D000D0CDB7F3
:10201000DEB78C0185E09DE29A83898382E798E0B0
:102020009C838B83CE01019667E07BE50E94EC18D0
:102030007C010097C9F08EE190E0F801918B808BD4
:1020400087EC92E0938B828BC8010E941B05C8012C
:102050000E943404C80108960E943404C8010E94FA
:102060002805F701158F048F0F900F900F900F9098
:10207000DF91CF911F910F91FF90EF900895CF9333
:10208000DF93CDB7DEB79E01265F3F4F8D819E81E6
:102090006F8170E0488559850E949127DF91CF912B
:1020A00008950F931F93CF93DF93CDB7DEB7E197DA
:1020B0000FB6F894DEBF0FBECDBF0E944E149093B2
:1020C000E9058093E805009739F1809153069091D6
:1020D00054068830910579F481E00E947A1A809143
:1020E000E8059091E905009709F442C10E94062491
:1020F0000E940A173DC126E08830920709F038C1D6
:102100000E944D238091E8059091E905009709F41C
:102110002FC10E9445142CC182ED95E00E94F31658
:10212000009709F45CC082ED95E00E94DF1687EF0E
:1021300095E09093F6058093F50582E00E947A1A67
:102140008091E8059091E905009721F00E9406240E
:102150000E940A1787E196E09093F6058093F505B3
:1021600082E00E947A1A8091E8059091E905009733
:1021700021F00E9406240E940A178BED97E09093AD
:10218000F2058093F10585E00E947A1A8091E805B6
:102190009091E905009721F00E9406240E944514C1
:1021A0008BE098E09093F2058093F10585E00E9422
:1021B0007A1A8091E8059091E905009721F00E9434
:1021C00006240E94451485EC95E00E94F3160097C2
:1021D00031F085EC95E00E94DF160E9417230E94E3
:1021E0009C0C882319F480E28093F0058AED95E039
:1021F0000E94F316009741F08AED95E00E94DF16E9
:1022000083E593E00E94B90680917C038230A1F0BF
:102210008DEC95E00E94F316009771F08DEC95E03F
:102220000E94DF1603E513E0C8010E94FF0FC801FA
:102230006BED72E00E94C0058EED95E00E94F316F2
:10224000009709F47AC08EED95E00E94DF16DE015A
:102250005196E0E2F3E08DE101900D928150E1F7BB
:102260001EA61FA618AA19AA80914306909144069B
:1022700090934A03809349038091450690914606C6
:1022800090934C0380934B038DB79EB70D970FB679
:10229000F8949EBF0FBE8DBFEDB7FEB73196CE014D
:1022A0000196ADB7BEB712969C938E93119780E1BD
:1022B00082838EED92E094838383809149038583AA
:1022C000168280914A038783108680914B03818711
:1022D000128680914C03838714860E943F10EDB7CD
:1022E000FEB73D960FB6F894FEBF0FBEEDBF1816B1
:1022F00024F5AE014F5F5F4FDA010D900020E9F742
:102300009D0121503040241B350B03E513E0C8012B
:102310006AEE72E00E944606AE014F5E5F4FFA0120
:1023200001900020E9F79F0121503040241B350B1C
:10233000C80163EF72E00E94460681EC95E00E94BE
:10234000F3160097A9F081EC95E00E94DF164AEBA6
:1023500055E0DA010D900020E9F79D012150304051
:10236000241B350B83E593E061E073E00E94460691
:1023700085E08093D1050FC08091D105882359F461
:102380008091CD039091CE0301969093CE038093DC
:10239000CD030E94A60C0E946A14882369F7E19677
:1023A0000FB6F894DEBF0FBECDBFDF91CF911F9166
:1023B0000F9108950E94FF080E94B103EDE4F3E03D
:1023C000A9EDB3E0CF01069621912D93E817F90707
:1023D000D9F78DE493E00E9441140E941A0980917C
:1023E000D903809342058091DA038093430580915D
:1023F000DB03809344058091DC0380934505809145
:10240000DD03809346058091DE03809347050E949B
:10241000CE180E94F8220E94CA0F10924406109211
:1024200043061092460610924506109240061092FE
:102430003F06109242061092410610923C061092FE
:102440003B0610923E0610923D0689ED93E066E051
:1024500070E00E942C020E94720382ED95E064EF0E
:1024600071E00E94D31685EC95E060E177E20E946E
:10247000D3168AED95E060E375E70E94D3168DECE4
:1024800095E068EB7BE00E94D3168EED95E060E16D
:1024900077E20E94D31686ED95E068E97AE30E9420
:1024A000D31689EC95E068EC7FEA0E94D31681ECA4
:1024B00095E068EB7BE00E94D3160E9468000E94C2
:1024C00051100E9466090E94200F0E94340F0E9442
:1024D0007500F5CF87B3876087BBBB98C39A8DB172
:1024E00080658DB9089591E090933D058FB9779BF4
:1024F000FECF10923D058FB10895CF93DF930F92D9
:10250000CDB7DEB7DC01FB01009711F43097F1F095
:1025100041155105D9F081E080933D0580E090E0C0
:102520003FEF109711F02D9101C0232F2FB9779B0A
:10253000FECF309719F02FB1219302C02FB129831C
:1025400001968417950769F710923D050F90DF916A
:10255000CF9108959C01AB0180E090E0B9010E9409
:102560007D120895AB0160E070E00E947D12089535
:10257000CF93DF930F92CDB7DEB7009719F46115B3
:10258000710521F14115510509F13093E5052093BD
:10259000E40521E020933D0590933F0580933E059F
:1025A00070934105609340055093E3054093E20525
:1025B0006F9A2EB12983009739F0FC018191F09335
:1025C0003F05E0933E0501C08FEF8FB90F90DF917B
:1025D000CF9108959C01FB01DA0180E090E0B90100
:1025E000AF019D010E94B81208959B01FA0160E0BD
:1025F00070E0A9019F010E94B8120895CF93DF9364
:102600000F92CDB7DEB7E0914005F09141053097CC
:1026100039F08FB18193F0934105E093400502C0FA
:102620008FB189838091E2059091E30501979093A2
:10263000E3058093E205009779F0E0913E05F09183
:102640003F05309731F08191F0933F05E0933E05CF
:1026500001C08FEF8FB90AC010923D056F98E091CD
:10266000E405F091E505309709F009950F90DF91A9
:10267000CF91089521E020933D056115710591F0FA
:10268000E82FF92F80E090E0DF0121812FB9779BBF
:10269000FECF32962C912FB9779BFECF01968617ED
:1026A000970791F710923D050895FC0181E0809312
:1026B0003D0561157105B9F020E030E0AFEFAFB92D
:1026C000779BFECF8FB1582F40E0AFB9779BFECFFD
:1026D0008FB190E0842B952B819391932F5F3F4F87
:1026E0002617370761F710923D050895803491054C
:1026F000E9F08134910550F48830910509F1803278
:10270000910591F081309105C9F40CC021E0803031
:10271000920781F024E08030920771F080389105B3
:1027200069F406C081E0089583E0089584E0089587
:1027300085E0089586E0089587E0089580E0089593
:1027400082E008956F927F928F929F92AF92BF9294
:10275000CF92DF92EF92FF920F931F93CF93DF936D
:102760008B019C01F8945093E7054093E60515BC56
:1027700015BC85B5886085BD85B5806885BD60E080
:1027800070E185EA94EDA90198010E94B826822E95
:10279000932EA42EB52E8FEF88169104A104B104B8
:1027A000E1F0D8F0CFE7D3E00F2EFCE06F2E7724D6
:1027B000F02D6C0E7D1E09911991980140E050E0BA
:1027C000C501B4010E94B82669017A012F3F310585
:1027D0004105510509F050F403C0C22E01E010E09C
:1027E000C8010E94761380938B0303C0C615D705DA
:1027F00011F7CA94C3BC80EC86BF80E887BF789489
:10280000DF91CF911F910F91FF90EF90DF90CF90CC
:10281000BF90AF909F908F907F906F90089514BC61
:1028200080918B0385BD089515BC08951F920F926A
:102830000FB60F920BB60F9211242F933F934F9325
:102840005F936F937F938F939F93AF93BF93EF9318
:10285000FF93E091E605F091E7050995FF91EF916F
:10286000BF91AF919F918F917F916F915F914F91A8
:102870003F912F910F900BBE0F900FBE0F901F90A6
:10288000189561E00E94000C08956091E805709130
:10289000E90587E496E00E94B60C0895CF93DF9394
:1028A0000E94E20CEC01009781F081E0C139D80769
:1028B00028F00E943D0DC0E0D0E007C087E496E01C
:1028C000BE010E94370D0E943D0D8C2F9D2FDF9180
:1028D000CF9108950E94DC0C0895FC017183608300
:1028E000538342830895FC018489863059F5809191
:1028F000F00580FF29C082859385A091F505B091F0
:10290000F60552962D913C9153972817390778F484
:10291000821B930B938782878481958152962D9198
:102920003C915397820F931F9583848308C0248121
:102930003581820F931F958384831386128681E0ED
:10294000848B089580E0089580E00895CF93DF930D
:10295000EC018C89863021F48091F00582FF19C04A
:102960002A853B85E091F505F091F605628973892A
:102970006217730728F48C819D810E940F2205C085
:102980008C819D81B9010E940F2286E08C8B81E0B1
:1029900001C080E0DF91CF9108951F93CF93DF9323
:1029A000EC018A819B81009721F08C3D9105E1F437
:1029B0000DC041155105E1F07D836C835B874A872B
:1029C0001C8A0DC08CED90E09B838A83CE010E940F
:1029D0007314182FCE010E94A614812359F08A8502
:1029E0009B85009779F71C8A1B821A8282E003C0BC
:1029F00081E001C080E0DF91CF911F910895CF92D7
:102A0000DF92EF92FF920F931F93CF938C017B0184
:102A10006A01FC0182819381009721F08D3F91052D
:102A200061F51CC06115710569F1CA01FB010995C9
:102A3000F801938782878091F3059091F40595833F
:102A40008483148A8091F00582FF03C0C601F701D8
:102A500009958DEF90E0F80193838283C8010E946D
:102A60007314C82FC8010E94A6148C2369F0F801C2
:102A700082859385009731F7148AF80113821282B8
:102A800082E003C081E001C080E0CF911F910F91EF
:102A9000FF90EF90DF90CF900895FC018289938999
:102AA00020893189821B930B0895FC0184859585CB
:102AB000009771F48489823021F483E0848B80E074
:102AC00008959091F00581E091FD03C080E00895A4
:102AD00081E00895FF920F931F93CF93DF938C01B2
:102AE000F62EDC0112968D919C911397009731F090
:102AF000B1E084339B0709F08BC016C0F8016085F4
:102B0000718542895389C8010E960E946D14D801BF
:102B10001C968D919C911D970097D9F484E391E0C8
:102B200013969C938E931297C8010E945515882383
:102B300009F475C082E0F801848B8091F3059091CF
:102B4000F405978386838091E8059091E905958740
:102B50008487E8012E96A8014A5F5F4FB801645F41
:102B60007F4F22C0A881B981FA0180819181FC0147
:102B700020812C93DA018D919C91119701961196E9
:102B80009C938E9388819981019699838883FB0118
:102B9000808191810197918380838A819B810197B4
:102BA0009B838A83F21649F18A819B81009731F0D9
:102BB000DB018D919C9111970097A1F6F801848516
:102BC0009585009799F4A3CFDA01ED91FC911197C7
:102BD00020810197FB01918380838D919C911197B6
:102BE000019611969C938E93F21639F0DB018D912C
:102BF0009C911197009741F78ACFC8010E944D150B
:102C0000009731F4F801148A1382128280E008C020
:102C1000D80113961C921E92129782E001C080E0A8
:102C2000DF91CF911F910F91FF900895CF93DF9384
:102C3000EC018A819B81009731F021E08235920777
:102C400009F08FC010C0688579854A895B89CE01FB
:102C50000E960E946D148C859D850097E1F482E5A7
:102C600091E09B838A83CE010E945515882309F445
:102C70007CC08CE893E00E94F72682E08C8B8091E8
:102C8000F3059091F4059F838E838091E8059091E0
:102C9000E9059D878C872C853D85488959892417AE
:102CA0003507F8F46E817F818E859F85422F532FE3
:102CB0000E94E7268C859D852E853F85280F391F2C
:102CC0003F872E8728893989281B390B398B288B18
:102CD0002E813F81820F931F9F838E831D861C86CA
:102CE000BACF24173507D9F46E817F818E859F85F1
:102CF000422F532F0E94E7268C859D852E853F8588
:102D0000280F391F3F872E87198A188A2E813F8105
:102D1000820F931F9F838E831D861C862AC06E811F
:102D20007F818E859F850E94E726888999892E85D7
:102D30003F85280F391F3F872E872C853D85281B0F
:102D4000390B3D872C872E813F81820F931F9F83F4
:102D50008E83198A188A0DC01C8A1B821A8280E011
:102D600005C01B821A8282E001C080E0DF91CF9112
:102D70000895CE010E944D15009799F7EDCFCF939E
:102D8000DF93EC011C8A1D861C86798768875B8B24
:102D90004A8B0E960E946D14198218821B821A8229
:102DA000DF91CF910895CF93DF93EC017B836A830A
:102DB0000E948B0D99838883DF91CF910895FC0148
:102DC0008081918122813381820F931F918380833F
:102DD0000895CF93DF93EC010E948B0D9983888334
:102DE000DF91CF910895CF93DF93EC010E948B0D7B
:102DF00028813981AC01421B530B9A0181E090E09C
:102E00004A815B812417350710F480E090E0DF9160
:102E1000CF91089580915E06863009F03EC0809182
:102E2000E8059091E90581349105B8F10E944514B7
:102E300001C000000E946A148823D9F788E290E05C
:102E40009093E9058093E8051092570688E28093F5
:102E5000580610927A06109279060E94A31880955F
:102E6000909590937A06809379061092600610925E
:102E70005F060E94921880959095909360068093CB
:102E80005F068091E8059091E9050E969093E9051B
:102E90008093E8050E94451408950E944514089502
:102EA0000F931F93CF93DF9380915E06863009F0D6
:102EB00098C08091E8059091E9058134910508F466
:102EC00090C0C697EC01D695C7959E01220F331F7F
:102ED0002817390720F48E010F5F1F4F01C08E01A4
:102EE000CE0188969093E9058093E8059093570664
:102EF0008093580610927A06109279060E94A318C1
:102F00008095909590937A0680937906109260064A
:102F100010925F060E94921880959095909360069B
:102F200080935F068091E8059091E9050E96909355
:102F3000E9058093E8050E94451401C000000E9445
:102F40006A148823D9F7C80188969093E90580937D
:102F5000E80590935706809358068091F305909169
:102F6000F405BC016C0F7D1F402F512F0E94E726F6
:102F70008DE696E0BE010E9436188091EC058093A4
:102F80006D068091ED0580936E068091EE0580932D
:102F90006F068091EF058093700610927A0610926A
:102FA00079060E94A3188095909590937A06809355
:102FB00079061092600610925F060E949218809522
:102FC00090959093600680935F068091E8059091BC
:102FD000E9050E969093E9058093E8050E94451453
:102FE00002C00E944514DF91CF911F910F91089567
:102FF000CF93DF939C0141505040460F571F6417F9
:103000007507E0F4FB01B081A0E08181ED01C80FFC
:10301000D11D2C0F3D1F2C173D0710F42F5F3F4F84
:103020003296E417F50778F3CB0180959095840FDD
:10303000951F8E7F0296860F971F01C0CB018417C4
:10304000950751F4FC01508140E0240F351F2417EF
:10305000350710F42F5F3F4F822F932FDF91CF91D1
:10306000089590934905809348050895FC01838154
:10307000860F8093EF05872F99272281280F2093B1
:10308000EE0541814093ED0550815093EC0530E011
:103090002817390740F44F5F4093ED05442319F496
:1030A0005F5F5093EC058091EF0590E0707086179C
:1030B000970798F48091EE058F5F8093EE05882343
:1030C00061F48091ED058F5F8093ED05882329F4ED
:1030D0008091EC058F5F8093EC050895BC01809191
:1030E000F5059091F60508960E943618E091F505D1
:1030F000F091F6058091EC0580878091ED05818740
:103100008091EE0582878091EF05838708959C0169
:10311000AB0180E090E0B9010E94F8179827892759
:103120009827089580E090E065E576E044E150E07E
:103130000E94F817009721F098278927982708956B
:103140008FEF9FEF08950F931F93CF93DF93C7E502
:10315000D6E01091570600E080915806080F111D27
:10316000BE01665F7F4FC8010E9748E050E00E94A5
:10317000F817BE016E5E7F4FA801445150400E9477
:10318000F817009721F098278927982702C08FEF1A
:103190009FEFDF91CF911F910F9108951092380604
:1031A0001092370610923A061092390610921006C5
:1031B0001092300680E094E090934C0580934B058C
:1031C0001092E0071092DF071092100810920F087B
:1031D00082E080934A0508952F923F924F925F922A
:1031E0006F927F928F929F92AF92BF92CF92DF9217
:1031F000EF92FF920F931F93CF93DF933C012B012C
:1032000020914B0530914C05CC24DD246894D4F8F2
:1032100067EF75E0DB0159960F2EF7E12F2EF6E0F0
:103220003F2EF02D0F2EF9E1EF2EFF24F02DE20CB2
:10323000F31C0F2EFBE18F2EF6E09F2EF02D0F2EAC
:10324000FBEFAF2EF5E0BF2EF02D2F5F3F4F8DE748
:103250002030380708F47CC096017AC0E4018881E8
:1032600099818417950789F330934C0520934B057A
:1032700010924A05809110068823F9F0873011F0EA
:10328000E0E0F0E080913006882329F481E080932B
:103290004A05F80112C0873069F4309741F0D8012F
:1032A0005A969C915A97828D891718F003C0F8019D
:1032B00001C0F80182E080934A053097A1F182E0D5
:1032C000818F80914D05848780914E0585878091FF
:1032D0004F0586878091500587878AE591E0938B1B
:1032E000828B958B848B81E090E0918B808B138E09
:1032F00081E0828F83E0808F168A80E1878B8091C6
:103300004B0590914C0598278927982795838483AE
:1033100057824682E30188819981918380838A81E3
:103320009B81938382838E2F9F2FDF91CF911F915B
:103330000F91FF90EF90DF90CF90BF90AF909F9054
:103340008F907F906F905F904F903F902F90089557
:10335000522F432FFB018C91882339F0E50188819E
:1033600099818417950709F470CF8101E70188815D
:10337000882309F073CF78CFCF93DF93DC01EB0183
:103380004091DF075091E007E0910F08F09110089D
:1033900020914B0530914C0560E070E12F5F3F4F6D
:1033A0008DE72030380708F09B01922F832F4817B4
:1033B0005907A1F352C030934C0520934B0510924E
:1033C0004A058091DF079091E0070097E1F580E0E2
:1033D00001C081E090E020E330E0829FA001839F64
:1033E000500D929F500D1124FA01E552F84F39F417
:1033F00025C082E080934A05E0E0F0E01FC08091A4
:103400004B0590914C0598278927982795838483AD
:10341000D783C683109729F41082118212821382F7
:103420000BC08D919C9111979183808312968D9101
:103430009C9113979383828380E480878E2F9F2FA4
:10344000DF91CF91089581E080934A0580910F0824
:1034500090911008009769F6BCCFE817F90709F4B6
:103460009DCFA9CF10924A0520913706309138069A
:103470002817390781F4E0E0F0E002C0E1E0F0E075
:10348000EE0FFF1FE95CF94F11821082089582E070
:1034900080934A05089521E020934A05209139063A
:1034A00030913A062817390791F7E8CF10924A056C
:1034B00020913706309138062115310581F4E0E07E
:1034C000F0E002C0E1E0F0E0EE0FFF1FE95CF94F31
:1034D00091838083089582E080934A05089521E0D6
:1034E00020934A052091390630913A06211531057D
:1034F00091F7E8CFDF92EF92FF920F931F93CF9354
:10350000DF93C091F505D091F605843009F4CBC165
:103510002DE736E03093F4052093F3053093EB0567
:103520002093EA05833081F4898D8F70833009F010
:1035300068C788899989009709F063C788E08093F4
:10354000F0050E943408E9C5823009F093C08091EB
:1035500050058F5F80935005882399F480914F0523
:103560008F5F80934F05882361F480914E058F5FB4
:1035700080934E05882329F480914D058F5F8093B9
:103580004D051092E9051092E8051092DA071092A5
:10359000D907498D473011F0453041F48A8D8F5F4E
:1035A0008A8F883709F02DC7198E2BC7442309F459
:1035B00028C788899989009709F452C08A8D982F65
:1035C00091509A8F882309F01CC78B8D883031F079
:1035D000942F9150923060F4853051F4198E80E828
:1035E0008093F0050E94340884E1809376066FC6CC
:1035F000853048F423E030E0082E02C0220F331F4C
:103600000A94E2F701C020E32A8F8F5F8B8F842F0B
:1036100090E08F70907083309105E1F084309105D7
:103620004CF48130910509F44DC38230910509F0C5
:10363000E8C60DC08630910509F412C588309105A1
:1036400009F40EC58430910509F0DBC609C5109256
:1036500076063BC384E08093F0050E943408A0C541
:103660004F70433009F0CDC688E08093F0050E948A
:10367000340853C5853029F5E091F105F091F20544
:1036800084819581009709F4BCC61092F6051092CA
:10369000F50581E796E09093F4058093F305909308
:1036A000EB058093EA051092DA071092D907109281
:1036B000E9051092E80588E08093F0050E945E021B
:1036C000F2C080915506853409F09BC610915706CB
:1036D00000E080915806080F111D8091E805909137
:1036E000E9058017910708F48CC61093E90500934B
:1036F000E80580915B0690E08F739070009709F069
:1037000080C680915C06882309F07BC6C091430681
:10371000D0914406209731F4809145069091460659
:103720000097A1F08091650690916606C817D907A9
:1037300009F067C6209167063091680680914506BA
:10374000909146062817390709F05BC60E94921827
:103750002FEF8F3F920709F054C680915E068630A6
:1037600009F4F8C0813191F1813009F04AC68091A5
:103770006906883009F045C61092690680916B068B
:1037800090916C06EFEF873F9E0730F0099690937B
:103790006C0680936B0605C0089690936C06809328
:1037A0006B06E7E4F6E0828D938D90936606809336
:1037B0006506848D958D91A380A3D38FC28F809150
:1037C000450690914606958F848F18C60C5110407F
:1037D0001093E9050093E8058BED97E09093F205CF
:1037E0008093F105F8E08B339F0708F00AC66091DB
:1037F0006B0670916C06A0916906B0916A06E7E4C9
:10380000F6E0C28DD38D048D158DFC012BE338E0DD
:1038100084819581009739F18617970721F5868174
:103820009781009719F08A179B07E9F4408151812D
:103830004115510529F482819381009761F41CC0E0
:103840008FEF4F3F580739F4E280F3808FEFE8168F
:103850008FEFF80689F04C175D0729F48281938178
:103860000817190749F0F096F093F205E093F10577
:10387000E217F30768F2C5C51092F6051092F50538
:1038800082E08093F00581E796E09093F4058093C1
:10389000F3059093EB058093EA051092DA071092F6
:1038A000D9070E945E028091D9079091DA070097AC
:1038B00009F4A7C59C01245E3F4F3093E90520938E
:1038C000E8053093570620935806E091F105F091F2
:1038D000F205208520935D0621E120935E0608967F
:1038E00098278927982790936E0680936D061092EB
:1038F000700610926F068481958190936A0680937A
:1039000069068681978190936C0680936B068091FF
:1039100043069091440690936206809361068091DD
:1039200045069091460690936406809363068081D5
:10393000918190936606809365068281938190932E
:103940006806809367068DE796E09093F405809370
:10395000F30532C50E94A318EFEF8F3F9E0709F0D1
:1039600050C520916B0630916C06409169065091CC
:103970006A06E7E4F6E0628D738D048CF58DE02D28
:10398000C7EFD5E0A7E1B6E019C0D98CDD20A9F0DA
:103990008C819D812817390781F48E819F8148177A
:1039A000590759F4888199816817790731F48A8118
:1039B0009B81E817F90709F4A3C1A096AC17BD07CE
:1039C00020F7809176068F738230B1F430935205E0
:1039D0002093510540E0E42FF0E0EE0FFF1FE95C7B
:1039E000F94F808191812817390709F477C04F5F1B
:1039F000423088F340934A058091760682FD01C5E6
:103A000084E18093760688E290E09093E9058093C4
:103A1000E80586E796E020E520937506FC013697D9
:103A20003081EC01229728812083DC0117972C91AB
:103A3000FC01339740814C932083DC0118975C9103
:103A4000FC01349740814C935083FC0139974081AD
:103A500040934A05DC0115978C9180834C933F5F1E
:103A60003883332371F42F5F20937306222349F4A4
:103A7000852F8F5F80937206882319F44F5F4093E0
:103A800071068091690690916A0690935205809321
:103A9000510520916B0630916C0630936A06209395
:103AA000690690936C0680936B06E7E4F6E0828DDE
:103AB000938D9093660680936506848D958D91A372
:103AC00080A38091430690914406938F828F8091CA
:103AD000450690914606958F848F53C410924A05EF
:103AE00030E020E0C0E0D0E047EF55E001C0322FE9
:103AF000822F90E0FC01EE0FFF1FE295F295F07F20
:103B0000FE27E07FFE27E40FF51F618D662379F421
:103B100030934A059C01E901CC0FDD1FC295D29577
:103B2000D07FDC27C07FDC27C950DA4F25C0673043
:103B3000E9F4209779F0880F991F82959295907FEC
:103B40009827807F9827FA01E80FF91F928D8A8DB8
:103B5000891760F4C22FD0E0CC0FDD1FC295D2953B
:103B6000D07FDC27C07FDC27C950DA4F2F5F22309F
:103B700008F4BDCF20934A05209709F442C4D0939E
:103B8000F605C093F50583E08A8F888F1E8A84E04E
:103B90008F8B1B8E80916B0690916C069D838C831E
:103BA0008091690690916A069F838E8307E416E0F0
:103BB000F801828D938D99838883848D958D9B8365
:103BC0008A8381E0898F80914D058C8780914E0595
:103BD0008D8780914F058E87809150058F8781E07A
:103BE00090E0998B888B81A58B8780A58A8787A198
:103BF000898786A1888781E090E00E946E18F8018D
:103C000026A5822F90E0807F9070813591050CF47D
:103C100059C022952F70422F50E045505040440F1C
:103C2000551F440F551F7091530560E0980140C027
:103C3000F901E80FF91F76A9772329F460934A0563
:103C4000709353053FC0713011F46F5F31C0723013
:103C500019F5F901E80FF91FE7A9E430E9F46093D9
:103C60004A0522E020935305FC01E95BF94F30AD92
:103C700020E081AD90E0822B932B909352058093AE
:103C80005105F1E08B359F0710F08AE591E09B8BA1
:103C90008A8B9D8B8C8B16C0820F931FFC0187A98A
:103CA000882329F460934A05709353050BC0680F6D
:103CB000862F90E0841795070CF4BACF60934A05DD
:103CC0007093530580E1809376068091760682603A
:103CD0008093760682E080937D0684E080937E0662
:103CE00081E080937F068AE5809380068CE290E0F5
:103CF0009093E9058093E80580E680937506F0C20D
:103D00007E01D093F605C093F5051092F005209141
:103D1000760630E022FF07C0198E80E28093F0051E
:103D20000E9434086EC38091750682958F70880F4B
:103D3000880F80934A05081B110904511040109305
:103D4000E9050093E8058D2D8F70823031F4C901AB
:103D50008F7390708231910509F10115110529F4D5
:103D6000C901837090700097C9F090916D06F701BA
:103D70008085981709F0A8C290916E0681859817E2
:103D800009F0A2C290916F068285981709F09CC233
:103D9000909170068385981709F096C224FF4FC052
:103DA000F701608971896115710509F448C0C7017F
:103DB0000C960E943618309171068091EC053817E8
:103DC000F1F5209172068091ED052817C1F59091CB
:103DD00073068091EE05981791F5809174064091D5
:103DE000EF05841761F5F701348725879687878764
:103DF000838D8823E1F49689808D228D821B292F63
:103E0000269526952695821B282F980F968B88231A
:103E10000CF42195F7018789382F36953695831B49
:103E2000820F878B969596959695890F808F81E066
:103E30008093F005F701808D828F118A108AF70137
:103E4000418D50E0CA018F7090708430910509F463
:103E5000DCC18530910564F482309105C1F1833075
:103E600091050CF0D2C08130910509F0CAC211C091
:103E70008630910509F41FC2863091050CF4FAC111
:103E80008730910509F420C28830910509F0B9C244
:103E9000B0C18091F00580FFB4C283E0F701818F4B
:103EA00080E48093F005118A108A8091E805909152
:103EB000E905009729F022E42093F0050E946E188E
:103EC0001092DA071092D9070E94340826C1809117
:103ED000F00580FF8FC0809176068F73823109F0E4
:103EE00089C020917506822F90E0807F9070813587
:103EF00091050CF45BC022952F70622F70E0655025
:103F00007040660F771F660F771F3091530520E0D2
:103F100047E456E041C0FA01E80FF91F36A9332300
:103F200029F420934A053093530540C0313011F4F1
:103F30002F5F32C0323021F5FA01E80FF91FE7A9EF
:103F4000E430F1F420934A0522E020935305FC016C
:103F5000E95BF94F30AD20E081AD90E0822B932BEF
:103F60009093520580935105F1E08B359F0710F037
:103F70008AE591E0F701938B828B958B848B16C039
:103F8000FA01E80FF91F87A9882329F420934A052D
:103F9000309353050BC0280F822F90E086179707A8
:103FA0000CF4B9CF20934A053093530583E0F70111
:103FB000818F80916D06808780916E0681878091C8
:103FC0006F06828780917006838781E090E00E946F
:103FD0006E1882E48093F005F701118A108A10921E
:103FE000E9051092E8051092DA071092D9070E94AD
:103FF000340893C080E28093F0050E943408E09179
:10400000F505F091F605118EF7CC8091760680FFCC
:104010002BC044FD29C0F70180899189009709F0E0
:10402000F0C18091E8059091E90501960E946E1813
:104030002091F00520612093F0058091E805909192
:10404000E905009719F022602093F0050E943408DA
:1040500081E090E0F701918B808B88E0818F138E57
:1040600081E18093760633C185FF1CC030917B06C9
:1040700020E080917C0690E0282B392B8091F3057D
:104080009091F405820F931F9093F4058093F305AC
:104090008091E8059091E905821B930B9093E905C7
:1040A0008093E8058091E8059091E905009749F033
:1040B00044FD07C02091F00522602093F0050E9486
:1040C0006E189091770680E020917806820F911DFE
:1040D0009093520580935105F7012489358928175B
:1040E000390710F0009721F43093520520935105C1
:1040F0008091510590915205F701938B828B8091AD
:10410000F00590E083709070009709F47AC11092E6
:10411000DA071092D9070E9434082091F00525FF94
:1041200009C01092DA071092D907198E84E18093A2
:104130007606CDC024FF0FC01092DA071092D9077F
:1041400081E090E0998B888B84E0898F1B8E81E1E0
:1041500080937606BCC08091D9079091DA070097CA
:10416000F1F020FF03C0198A188A05C0288939890F
:104170002115310581F42A893B892817390720F454
:104180003093DA072093D9078091D9079091DA0705
:10419000998B888B04C03093DA072093D9071B8E44
:1041A0008091EA059091EB059093F4058093F305D7
:1041B0008091D9079091DA07009769F088899989E9
:1041C000009749F088969093E9058093E80588E187
:1041D0008093760682C08091F00581FF12C188E24B
:1041E00090E09093E9058093E80580E1809376065E
:1041F00074C08091F00580FF04C1F701118E80E149
:104200008093F0050E943408FCC08091E8059091ED
:10421000E905009711F00E946E188091760680FFE4
:1042200018C08091F00580FF07C087E0F701818FFB
:10423000128E118A108A03C086E0F701818F81E017
:1042400090E00E946E1880E18093F0050E9434088F
:104250003BC08091F00580FF06C085E0F701818FAB
:10426000118A108ACEC08091E8059091E9050097E7
:1042700059F5C7C08091E8059091E905009711F0C4
:104280000E946E188091760680FF0EC087E0F701CD
:10429000818F128E81E090E00E946E1880E1809301
:1042A000F0050E94340810C08091E8059091E9055E
:1042B000009751F4A6C08091F00580FFA2C087E06E
:1042C000F701818F128E9DC080E18093760688E28F
:1042D00090E09093E9058093E80580E5809375066A
:1042E0008885809371068985809372068A8580937C
:1042F00073068B85809374068C8580936D068D85FF
:1043000080936E068E8580936F068F8580937006EE
:1043100086E080935E068C819D8190936A068093EF
:1043200069068E819F8190936C0680936B068091C5
:1043300043069091440690936206809361068091B3
:1043400045069091460690936406809363068881A3
:10435000998190936606809365068A819B819093EC
:10436000680680936706898D84FF05C010927806E1
:104370001092770606C081E0809377068AE58093E5
:10438000780680E480935D068091E8059091E905C8
:10439000909357068093580610927C0610927B06E5
:1043A00010927A06109279060E94A3188095909533
:1043B00090937A068093790685E48093550610924F
:1043C000560610925C0610925B068091480590910B
:1043D00049050196909349058093480590935906A5
:1043E00080935A061092600610925F060E949218FF
:1043F000809590959093600680935F061092F005EB
:1044000006C01092E9051092E8051092F005DF91C0
:10441000CF911F910F91FF90EF90DF9008959C0135
:10442000161617068CF4462F572F6093D9077093F2
:10443000DA078091EA059091EB052817390721F0FA
:10444000622F732F0E94E7260895EF92FF920F9339
:104450001F93CF93DF938C01F62EE72E1092540515
:1044600040E050E0A0E09A01220F331FCA01880FFC
:10447000991F880F991F880F991FF901E80FF91FDD
:10448000E40FF51FEB5AFA4F808191810097F9F004
:104490006281738161157105D1F0E801288139814C
:1044A00082179307A1F48A819B816817790779F4B1
:1044B000A0935405DF011496CF2DDE2D86E00990E0
:1044C0000D928150E1F78091AD0582878AC0A42FBB
:1044D000AF5F4F5F5F4F4830510529F640E050E035
:1044E00070E0642F9A01220F331FCA01880F991FB1
:1044F000880F991F880F991FF901E80FF91FE40F22
:10450000F51FEB5AFA4F80819181009741F4828127
:104510009381009721F470935405742F09C0762F6E
:104520007F5F4F5F5F4F48305105D9F67093540558
:10453000783009F042C0B091AD05CB2FD0E060E0FB
:10454000A0E040E050E0CA01880F991F9A01220FB5
:10455000331F220F331F220F331FFC01E20FF31F03
:10456000E40FF51FEB5AFA4FE285CE018E1B91093D
:10457000262F30E0281739071CF46B2F6E1BA42F51
:104580004F5F5F4F48305105F1F66093AE05A09341
:10459000AF05A09354052A2F30E0F901EE0FFF1F5D
:1045A000C901880F991F880F991F880F991FE80F5D
:1045B000F91FE20FF31FEB5AFA4FD8014D915D91AD
:1045C0006D917C91DF014D935D936D937D93CF2D24
:1045D000DE2D86E009900D928150E1F78091AD05C6
:1045E0008287DF91CF911F910F91FF90EF900895F7
:1045F00080E090E0FC01EE0FFF1F9C01220F331FB3
:10460000220F331F220F331FE20FF31FE80FF91F92
:10461000EB5AFA4F1082118212821382282F2F5FD9
:104620002093540501968830910521F708958091D3
:10463000AD058F5F8093AD051092540580E090E04A
:10464000FC01EE0FFF1F9C01220F331F220F331FAF
:10465000220F331FE20FF31FE80FF91FEB5AFA4F37
:104660008281938120813181822B932B009769F085
:104670008091AD0590E02285821B910988379105D4
:1046800024F01082118212821382809154058F5F70
:1046900080935405883098F208950F931F93CF9319
:1046A000DF938091E8059091E9058A32910528F41D
:1046B0001092E9051092E805A4C01092E905109245
:1046C000E80580915B0690915C0621E080309207BE
:1046D00031F022E08030920709F093C075C020913C
:1046E0006D0630916E06809143069091440628171E
:1046F000390709F086C020916F06309170068091CD
:104700004506909146062817390709F07AC0C3E696
:10471000D6E08E0106501040CE01B8010E9425223D
:1047200080E092E090935C0680935B062496F8010B
:1047300086E0019009928150E1F7ADE5B6E0E2E450
:10474000F5E086E001900D928150E1F7ADE4B6E02E
:10475000E2E4F5E086E001900D928150E1F7E7E4B4
:10476000F6E0DF01B09686E001900D928150E1F70E
:10477000ADE6B6E0FD013A978081918190936E0697
:1047800080936D0618978D919C9111979093700668
:1047900080936F06809143069091440691838083B5
:1047A000809145069091460611969C938E9388E0E1
:1047B00096E090935406809353068AE290E090939B
:1047C000E9058093E8051DC020916D0630916E06C5
:1047D00080914306909144062817390791F420915F
:1047E0006F06309170068091450690914606281715
:1047F000390739F483E696E0BC01665070400E94A8
:104800002522DF91CF911F910F910895CF93DF93D0
:1048100040916506509166062FEF4F3F520791F485
:104820008091670690916806AFEF8F3F9A0751F429
:10483000A7E4B6E0EFE9F3E086E001900D92815045
:10484000E1F7E2C0809143069091440684279527C2
:1048500020913F063091400682239323009791F4E4
:104860006091670670916806209145063091460672
:104870002627372780914106909142068223932371
:10488000009789F080913B0690913C069093B1058A
:104890008093B00580913D0690913E069093B305BC
:1048A0008093B20508C05093B1054093B005709352
:1048B000B3056093B205A091B005B091B105C09168
:1048C000B205D091B30540E050E070E0642FCA011A
:1048D000880F991F9A01220F331F220F331F220FB7
:1048E000331FFC01E20FF31FE40FF51FEB5AFA4FE1
:1048F00080819181A817B90749F482819381C817F3
:10490000D90721F470935405742F09C0762F7F5F67
:104910004F5F5F4F48305105C9F6709354057830AA
:1049200009F06AC0C7E4D6E0CE016FEF70E046E060
:1049300050E00E94F026FE01B09686E0DF011D9255
:104940008A95E9F72696E2E4F5E086E0019009927F
:104950008150E1F7ADE5B6E0E2E4F5E086E00190F4
:104960000D928150E1F78091B0059091B10590933F
:104970006E0680936D068091B2059091B305909379
:10498000700680936F068091430690914406909341
:104990006406809363068091450690914606909345
:1049A00066068093650680E091E090935C068093B4
:1049B0005B06909356068093550688E090E09093AE
:1049C00058068093570686E08093590684E08093CA
:1049D0005A0688E096E090935406809353068DE73C
:1049E00096E09093F4058093F3058AE290E090932B
:1049F000E9058093E80520C0A7E4B6E0349686E098
:104A000001900D928150E1F7ADE4B6E0E2E4F5E00B
:104A100086E001900D928150E1F788E090E090935C
:104A20005406809353068091E8059091E9050E960F
:104A30009093E9058093E805DF91CF9108950CD01C
:104A4000E6C0DED040F0D5D030F021F45F3F19F061
:104A5000C7C0511110C1CAC0EBD098F39923C9F354
:104A60005523B1F3951B550BBB27AA276217730774
:104A7000840738F09F5F5F4F220F331F441FAA1F28
:104A8000A9F333D00E2E3AF0E0E830D091505040E8
:104A9000E695001CCAF729D0FE2F27D0660F771F96
:104AA000881FBB1F261737074807AB07B0E809F078
:104AB000BB0B802DBF01FF2793585F4F2AF09E3F0D
:104AC000510568F08DC0D7C05F3FECF3983EDCF332
:104AD000869577956795B795F7959F5FC9F7880F86
:104AE000911D9695879597F90895E1E0660F771FD8
:104AF000881FBB1F621773078407BA0720F0621B69
:104B0000730B840BBA0BEE1F88F7E095089598D0CD
:104B100088F09F5790F0B92F9927B751A0F0D1F0A6
:104B2000660F771F881F991F1AF0BA95C9F712C030
:104B3000B13081F09FD0B1E008959CC0672F782FED
:104B40008827B85F39F0B93FCCF38695779567959C
:104B5000B395D9F73EF490958095709561957F4F08
:104B60008F4F9F4F0895E89409C097FB3EF49095AE
:104B70008095709561957F4F8F4F9F4F9923A9F036
:104B8000F92F96E9BB279395F695879577956795C5
:104B9000B795F111F8CFFAF4BB0F11F460FF1BC009
:104BA0006F5F7F4F8F4F9F4F16C0882311F096E99C
:104BB00011C0772321F09EE8872F762F05C066234A
:104BC00071F096E8862F70E060E02AF09A95660F03
:104BD000771F881FDAF7880F9695879597F90895BC
:104BE00097F99F6780E870E060E008959FEF80ECA0
:104BF000089500240A941616170618060906089543
:104C000000240A9412161306140605060895092EA8
:104C10000394000C11F4882352F0BB0F40F4BF2B17
:104C200011F460FF04C06F5F7F4F8F4F9F4F089557
:104C300057FD9058440F551F59F05F3F71F047954D
:104C4000880F97FB991F61F09F3F79F08795089532
:104C5000121613061406551FF2CF4695F1DF08C051
:104C6000161617061806991FF1CF8695710561056E
:104C700008940895E894BB2766277727CB0197F916
:104C800008950BD0C4CFB5DF28F0BADF18F0952314
:104C900009F0A6CFABCF1124EECFCADFA0F3959FCA
:104CA000D1F3950F50E0551F629FF001729FBB2713
:104CB000F00DB11D639FAA27F00DB11DAA1F649FBF
:104CC0006627B00DA11D661F829F2227B00DA11D72
:104CD000621F739FB00DA11D621F839FA00D611DF8
:104CE000221F749F3327A00D611D231F849F600D19
:104CF000211D822F762F6A2F11249F5750408AF052
:104D0000E1F088234AF0EE0FFF1FBB1F661F771FDD
:104D1000881F91505040A9F79E3F510570F060CF19
:104D2000AACF5F3FECF3983EDCF3869577956795C5
:104D3000B795F795E7959F5FC1F7FE2B880F911DFB
:104D40009695879597F90895AA1BBB1B51E107C05B
:104D5000AA1FBB1FA617B70710F0A61BB70B881F0B
:104D6000991F5A95A9F780959095BC01CD0108959A
:104D7000A1E21A2EAA1BBB1BFD010DC0AA1FBB1F5F
:104D8000EE1FFF1FA217B307E407F50720F0A21BD1
:104D9000B30BE40BF50B661F771F881F991F1A943E
:104DA00069F760957095809590959B01AC01BD0168
:104DB000CF010895FB01DC0104C08D9101908019A1
:104DC00021F441505040C8F7881B990B0895FB010E
:104DD000DC0102C001900D9241505040D8F7089577
:104DE000DC0101C06D9341505040E0F708950F93EE
:104DF0001F93CF93DF938C01E0913D08F0913E0823
:104E0000838181FF1AC0C0E0D0E005C009950097FA
:104E100011F0CFEFDFEFF80181918F0160913D0834
:104E200070913E08DB011896ED91FC91199788234B
:104E300069F78AE00995009711F0CFEFDFEFCE0117
:104E4000DF91CF911F910F9108950F931F93CF93EF
:104E5000DF93CDB7DEB72E970FB6F894DEBF0FBE47
:104E6000CDBF0D891E898F89988D26E02C831A83EA
:104E7000098397FF02C080E090E801979E838D83AD
:104E8000AE01455E5F4FCE010196698D7A8D0E941D
:104E9000C9274D815E8157FD0AC02F813885421791
:104EA00053070CF49A01020F131FF80110822E967B
:104EB0000FB6F894DEBF0FBECDBFDF91CF911F912B
:104EC0000F9108950F931F93CF93DF93CDB7DEB764
:104ED0002E970FB6F894DEBF0FBECDBF0D891E8989
:104EE00086E08C831A8309838FEF9FE79E838D83EF
:104EF000AE01475E5F4FCE0101966F89788D0E94AB
:104F0000C927EF81F885E00FF11F10822E960FB6AA
:104F1000F894DEBF0FBECDBFDF91CF911F910F91EF
:104F200008950F931F93CF93DF93CDB7DEB72E97DE
:104F30000FB6F894DEBF0FBECDBF8C0186E08C8328
:104F40001A83098377FF02C060E070E86150704007
:104F50007E836D83CE010196BA01A9010E94C92703
:104F60004D815E8157FD0AC02F8138854217530756
:104F70000CF49A01020F131FF80110822E960FB63F
:104F8000F894DEBF0FBECDBFDF91CF911F910F917F
:104F900008952F923F924F925F926F927F928F92DD
:104FA0009F92AF92BF92CF92DF92EF92FF920F93B8
:104FB0001F93CF93DF93CDB7DEB72D970FB6F8943D
:104FC000DEBF0FBECDBF3C017D876C875A01FC015F
:104FD00017821682838181FFC8C12E010894411C6B
:104FE000511CF3019381EC85FD8593FD859193FF21
:104FF0008191FD87EC87882309F4B3C1853241F4A0
:1050000093FD859193FF8191FD87EC87853229F48B
:1050100090E0B3010E94F129E4CFFF24EE2410E0D8
:105020001032B0F48B3269F08C3228F4803251F0B7
:10503000833271F40BC08D3239F0803349F4116042
:105040002CC01260146029C0186027C0106125C0F0
:1050500017FD2EC0282F20532A3098F416FF08C0C1
:105060008F2D880FF82EFF0CFF0CF80EF20E15C0D6
:105070008E2D880FE82EEE0CEE0CE80EE20E10627C
:105080000CC08E3221F416FD6CC1106406C08C3643
:1050900011F4106802C0883659F4EC85FD8593FD43
:1050A000859193FF8191FD87EC87882309F0B8CF24
:1050B000982F9554933018F09052933038F424E0A0
:1050C00030E0A20EB31E3FE339830FC0833631F0C8
:1050D000833781F0833509F05AC022C0F501808101
:1050E000898322E030E0A20EB31E21E0C22ED12C33
:1050F000420114C092E0292E312C2A0C3B1CF501F0
:105100008080918016FF03C06F2D70E002C06FEFAA
:105110007FEFC4010E94E6296C0151011F7715C081
:1051200082E0282E312C2A0C3B1CF50180809180D6
:1051300016FF03C06F2D70E002C06FEF7FEFC40158
:105140000E94DB296C011068510113FD1CC006C0D0
:1051500080E290E0B3010E94F129EA948E2D90E064
:10516000C816D906A8F30FC0F40117FD859117FFE3
:1051700081914F0190E0B3010E94F129E110EA947E
:105180000894C108D108C114D10471F7E7C084366E
:1051900011F0893651F5F50117FF07C08081918123
:1051A000A281B38124E030E008C080819181AA27E8
:1051B00097FDA095BA2F22E030E0A20EB31E012F7A
:1051C0000F76B7FF08C0B095A095909581959F4F39
:1051D000AF4FBF4F0068BC01CD01A2012AE030E013
:1051E0000E941D2AD82ED4183FC0853721F41F7E77
:1051F0002AE030E020C0197F8F36A9F0803720F4F4
:10520000883509F0AEC00BC0803721F0883709F02F
:10521000A8C001C0106114FF09C0146007C014FFCA
:1052200008C0166006C028E030E005C020E130E08C
:1052300002C020E132E0F50117FF07C060817181F3
:105240008281938144E050E006C06081718180E0FA
:1052500090E042E050E0A40EB51EA2010E941D2A7B
:10526000D82ED418012F0F7706FF09C00E7FDF1448
:1052700030F404FF06C002FD04C00F7E02C01D2DE5
:1052800001C01F2D802F90E004FF0CC0FE01ED0D2A
:10529000F11D2081203311F4097E09C002FF06C0F0
:1052A0001E5F05C086789070009709F01F5F802E02
:1052B000992403FD12C000FF0DC0FD2C1E1550F4F3
:1052C000FE0CF11A1E2D06C080E290E0B3010E9490
:1052D000F1291F5F1E15C0F304C01E1510F4E11A5A
:1052E00001C0EE2484FE0FC080E390E0B3010E9471
:1052F000F12982FE1FC081FE03C088E590E010C046
:1053000088E790E00DC0C40186789070009791F016
:1053100081FC02C080E201C08BE207FD8DE290E0DB
:10532000B3010E94F12906C080E390E0B3010E941E
:10533000F129FA94DF14C0F3DA94F201ED0DF11DB6
:10534000808190E0B3010E94F129DD20A9F706C019
:1053500080E290E0B3010E94F129EA94EE20C1F7C7
:1053600040CEF3018681978102C08FEF9FEF2D968B
:105370000FB6F894DEBF0FBECDBFDF91CF911F9166
:105380000F91FF90EF90DF90CF90BF90AF909F90E4
:105390008F907F906F905F904F903F902F900895E7
:1053A000A8E1B0E042E050E00C947D2A0E948B2AF4
:1053B000272F0C948C2AFC0105906150704001103D
:1053C000D8F7809590958E0F9F1F0895FC0161502E
:1053D000704001900110D8F7809590958E0F9F1F17
:1053E00008950F931F93CF93DF938C01EB018B8173
:1053F00081FF1BC082FF0DC02E813F818C819D816A
:105400002817390764F4E881F9810193F983E88367
:1054100006C0E885F985802F0995009731F48E81C3
:105420009F8101969F838E8302C00FEF1FEFC801FB
:10543000DF91CF911F910F910895FA01AA2728308B
:1054400051F1203181F1E8946F936E7F6E5F7F4F51
:105450008F4F9F4FAF4FB1E03ED0B4E03CD0670FCD
:10546000781F891F9A1FA11D680F791F8A1F911D20
:10547000A11D6A0F711D811D911DA11D20D009F470
:1054800068943F912AE0269F11243019305D3193B2
:10549000DEF6CF010895462F4770405D4193B3E09B
:1054A0000FD0C9F7F6CF462F4F70405D4A3318F042
:1054B000495D31FD4052419302D0A9F7EACFB4E0F3
:1054C000A6959795879577956795BA95C9F70097AB
:1054D0006105710508959B01AC010A2E069457954C
:1054E000479537952795BA95C9F7620F731F841FA3
:1054F000951FA01D0895DC01CB01FC01E199FECFB1
:1055000006C0FFBBEEBBE09A31960DB20D92415042
:105510005040B8F70895262FE199FECF9FBB8EBB70
:105520002DBB0FB6F894E29AE19A0FBE019608954A
:04553000F894FFCF1D
:1055340025642525202000ADDE12236382536320D9
:105544002020202045434F54495320202020200070
:10555400536D617274546F6E657253797374656DB3
:10556400004C6F6164696E672053797374656D2EA6
:105574002E00204B3A4620433A46204D3A462059C5
:105584003A4600204B3A4C20433A46204D3A4620B6
:10559400593A4600204C6F7720746F6E6572204232
:1055A4006C61636B20004C6F6164696E6720746F7B
:1055B4006E65722E2E2E00204B3A4620433A4C2024
:1055C4004D3A4620593A4600204C6F7720746F6E4E
:1055D4006572204379616E2000204B3A4620433A9D
:1055E40046204D3A4C20593A46004C6F7720746F50
:1055F4006E6572204D6167656E746100204B3A469A
:1056040020433A46204D3A4620593A4C004C6F7795
:1056140020746F6E65722059656C6F77002F537913
:105624007374656D312F746F6E65725F737570700E
:105634006C7931002F53797374656D312F746F6EEB
:1056440065725F737570706C7932002F537973745F
:10565400656D312F746F6E65725F737570706C79E0
:1056640033002F53797374656D312F746F6E6572C7
:105674005F737570706C7934002564002F537973EF
:1056840074656D312F626B5F636F756E74002F5399
:10569400797374656D312F635F636F756E74002F5A
:1056A40053797374656D312F6D5F636F756E74001C
:1056B4002F53797374656D312F795F636F756E74D1
:1056C40000202020202045636F546973202020206F
:1056D400200049503A2025642E25642E25642E2569
:1056E4006420202020200049503A25642E25642E71
:1056F40025642E25642000656E6332386A36305F77
:105704006176725F636C69656E74002F2300256493
:105714002E25642E25642E2564002F537973746519
:105724006D31002F53797374656D312F696E666F17
:10573400002F53797374656D312F707265737375AF
:1057440072652D73656E736F722F76616C7565006B
:1057540045636F7469735F53797374656D5F532F19
:105764004E3A3334363132333631323300000000AE
:1057740000C0A80101FFFFFF00C0A8013200BD3B2B
:10578400330572DF039600000000007504C80000B2
:10579400000000000000000000620D000000000096
:1057A40000000000000000000000000000010008EC
:1057B400002000400080000001000401576169746A
:1057C400656420666F72206E65776461746100FFA2
:0657D400FFFFFFFFFF00D4
:00000001FF
