:100000000C9446000C9466000C9466000C946600F8
:100010000C9466000C9466000C9466000C946600C8
:100020000C9466000C94F5130C9466000C94660016
:100030000C9466000C9466000C9466000C946600A8
:100040000C9466000C9466000C9466000C94660098
:100050000C9466000C9466000C9466000C94660088
:100060000C9466000C9466000C9466000C94660078
:100070000C9466000C9466000C9466000C94660068
:100080000C9466000C9466000C94660011241FBE4C
:10009000CFEFD0E1DEBFCDBF13E0A0E0B1E0E2EFF3
:1000A000F4E500E00BBF02C007900D92A638B1073F
:1000B000D9F71BBE18E0A6E8B3E001C01D92AD3130
:1000C000B107E1F70E94BF110C94772A0C9400004D
:1000D00086B1876886B987B1806C87B90895369AEA
:1000E0003699FECF84B195B10895CF92DF92EF9209
:1000F000FF92CF93DF938FEF93E0909399058093D6
:1001000098050E946F00909395058093940580E078
:1001100090E060E070E00E94A70360919405709108
:10012000950580E090E00E94922520E030E048ECC8
:1001300052E40E9420266B017C0160919805709129
:10014000990580E090E00E9492259B01AC01C701D7
:10015000B6010E94FE240E946625DC01CB0190932B
:100160009705809396052DB73EB7285030400FB6BF
:10017000F8943EBF0FBE2DBF4DB75EB74F5F5F4FC8
:10018000CAE9D5E0EDB7FEB7D283C18324E030E001
:10019000FA013383228320E031E03583248397837F
:1001A00086830E9404272DB73EB7285F3F4F0FB6C6
:1001B000F8943EBF0FBE2DBFCE010E940304DF9115
:1001C000CF91FF90EF90DF90CF900895FC0185E3F1
:1001D000808381E081836283CF01039608952FEFAE
:1001E000FC012193CF010895CF93DF93EC0181E0CF
:1001F00088838983809193038A831B82809107017E
:1002000090910801A0910901B0910A018C839D830E
:10021000AE83BF831986188680E890E09B878A8723
:1002200080911F0690912006A0912106B091220690
:100230008C879D87AE87BF87188A198A1A8A1B8A7E
:100240001C8A1D8A1E8A1F8A188E198E1A8E1B8E72
:10025000CE014C96E1E9F3E0608171814091930316
:10026000509194030E94C626809193039091940329
:1002700040E150E0481B590B4C968C0F9D1F60E0ED
:1002800070E00E94CF26CE018C96E82FF92F80E4F3
:10029000DF011D928A95E9F7CE0184599F4FE82F1F
:1002A000F92F80E8DF011D928A95E9F7C451DF4FED
:1002B00080910B0190910C01A0910D01B0910E0164
:1002C00088839983AA83BB83DF91CF910895AF92EE
:1002D000BF92CF92DF92EF92FF920F931F93CF9333
:1002E000DF93C091CF05D091D0058881823009F08D
:1002F000A3C0CE01049667E071E044E050E00E94A4
:10030000B926282F392F2115310509F097C06091A2
:100310009103709192034091930350919403CE0105
:100320004C960E94B926282F392F2115310509F046
:1003300087C088899989AA89BB8980939D039093F6
:100340009E03A0939F03B093A003C051DF4F409141
:10035000C4055091C5054C0F5D1FC417D50708F0A3
:1003600069C080E00F2EF9E9AF2EF3E0BF2EF02D2B
:10037000A5E9B3E069EA73E00F2EF5EAEF2EF3E0AA
:10038000FF2EF02D0F2EF1EACF2EF3E0DF2EF02D11
:1003900098819333D9F1943338F49330B9F096308F
:1003A000F9F09130E1F508C0963331F19F3F09F43F
:1003B00048C09533A1F51EC00A811B812C813D8167
:1003C000F601008311832283338329C00A811B81B4
:1003D0002C813D81FB0100831183228333831FC065
:1003E0000A811B812C813D81F701008311832283C7
:1003F000338315C08A8113C00A811B812C813D8102
:100400000D931D932D933C93139709C00A811B8173
:100410002C813D81F501008311832283338329815F
:1004200030E02E5F3F4FC20FD31FC417D50708F42B
:10043000AFCF07C080E005C080E003C080E001C00E
:1004400080E0DF91CF911F910F91FF90EF90DF90AF
:10045000CF90BF90AF900895CF93DF9300D000D09E
:10046000CDB7DEB79093920380939103709394037A
:1004700060939303109288038FEF9FEF9A83898391
:100480009C838B83CE01019660E073E40E949B19EC
:1004900090938A0380938903009729F020E034E445
:1004A000FC013583248310928703109286030F90FA
:1004B0000F900F900F90DF91CF910895CF93DF931E
:1004C000809186039091870321E08131920709F49E
:1004D0004FC021E08231920718F4009761F0FBC011
:1004E00021E08532920709F4BCC021E082359207F1
:1004F00009F0F1C0E9C081E08093880388EE93E0C1
:100500009093900380938F03C091CF05D091D00535
:10051000CE010E94F400CE0180519F4F61E00E9405
:10052000E600FC0187E3808383E0818391E092838E
:10053000838386E08483CF0105960E94EF0020919B
:10054000CF053091D005BC01621B730BC9010E941D
:10055000EE2160918F03709190038BE893E00E94ED
:10056000B21681E191E09093870380938603B7C030
:100570008091CC0581FD0BC08BE893E00E94D216E0
:10058000009709F4ACC08091CC0581FF07C00E94A0
:100590006701823019F48093880313C080918F0320
:1005A000909190032AEE8036920730F4880F991FBD
:1005B0009093900380938F0380918803823009F099
:1005C000A3CF88EE93E09093900380938F03C09124
:1005D000CF05D091D005CE010E94F400CE0180510C
:1005E0009F4F63E00E94E600FC0186E3808324E0E5
:1005F00021838091950390919603A0919703B091E8
:10060000980382839383A483B58382E386832783BD
:1006100040919D0350919E0360919F037091A003B0
:100620004087518762877387CF010C960E94EF0045
:100630002091CF053091D005BC01621B730BC9011D
:100640000E94EE2160918F03709190038BE893E0FC
:100650000E94B21685E291E090938703809386030F
:100660003EC08091CC0581FD0AC08BE893E00E94DA
:10067000D2160097A1F18091CC0581FF08C00E949D
:100680006701853021F483E08093880319C080914D
:100690008F039091900327E28131920760F4885193
:1006A0009C4F9093900380938F03809188038330B5
:1006B00009F08DCF05C010928703109286030FC0FA
:1006C00086E893E00E94D90F82E591E0909387033A
:1006D0008093860304C01092870310928603DF91F3
:1006E000CF91089580918803882341F410922006C9
:1006F00010921F0610922206109221060895D89A91
:1007000090E19A95F1F700C09BB3937C9BBB9BB3A0
:10071000880F880F892B8BBBD89880E18A95F1F7D9
:1007200000C00895CF93C82F662311F4D99801C053
:10073000D99A8C2F82958F700E947F038C2F0E94F4
:100740007F03CF91089561E00E949203089562951E
:10075000660F660F607C860F806860E00E949203DF
:10076000089585EA9EE00197F1F700C0000083E05C
:100770000E947F0387EE93E00197F1F700C000002D
:1007800083E00E947F0391E29A95F1F7000083E0F5
:100790000E947F0389EF90E00197F1F700C000000D
:1007A00082E00E947F0389EF90E00197F1F700C09B
:1007B000000088E260E00E94920389EF90E00197D8
:1007C000F1F700C000008CE060E00E94920389EF26
:1007D00090E00197F1F700C0000086E060E00E9421
:1007E000920389EF90E00197F1F700C000000895AF
:1007F00081E060E00E94920386E791E00197F1F7C3
:1008000000C0000008950F931F93CF938C01FC014B
:100810008081882351F0C0E00E94A303CF5FF801DC
:10082000EC0FF11D80818823B9F7CF911F910F91B3
:1008300008959C01FB0140E050E0C9018F77907062
:10084000220F232F221F330B31952115310529F05B
:10085000806881934F5F5F4FF0CF640F751FFB017E
:100860008083CA0101960895FC018081918195835E
:100870008483178216820895EF92FF920F931F933D
:10088000CF93DF93EC018B019A01E881F9816A81B2
:100890007B81CB0101977F01E80EF91E8C819D8140
:1008A0004E815F812115310511F18E1B9F0B840F45
:1008B000951F0E948326E80FF91FEE16FF0610F41D
:1008C000E881F9818E819F81009729F08C819D813B
:1008D0008E179F0761F0D8018D918D0181938E81D4
:1008E0009F8101969F838E832150304031F7822F64
:1008F000932FDF91CF911F910F91FF90EF9008956B
:100900000F931F93CF93DF93EC01F62FE72F8A010C
:100910004C815D812A813B812150304088819981C1
:10092000BC01620F731F01151105E9F08E819F81D3
:100930000097E1F0AF2FBE2F20E030E0FA01E20F88
:10094000F31F80818D936417750710F448815981D6
:100950002F5F3F4F2017310759F08E819F81281755
:10096000390760F305C020E030E002C020E030E04D
:10097000822F932FDF91CF911F910F9108950F93A5
:100980001F93CF93DF93DC01F62FE72F8A01129696
:100990008D919C91139701972D913C911197B901DD
:1009A000680F791F41155105D1F116968D919C91D3
:1009B00017970097B9F1CF2FDE2F40E050E0149643
:1009C000ED91FC9115978081899314968D919C915E
:1009D00015979C012F5F3F4F15963C932E931497CC
:1009E00016968D919C911797019717969C938E93CD
:1009F00016976217730738F48D919C91119715968D
:100A00009C938E9314974F5F5F4F4017510761F08F
:100A100016968D919C911797009789F605C040E036
:100A200050E002C040E050E0842F952FDF91CF913D
:100A30001F910F910895FC0111A6178E168E138E2B
:100A4000128E158E148E81E090E091A380A30895FC
:100A5000EF92FF920F931F93CF93DF93CDB7DEB743
:100A600063970FB6F894DEBF0FBECDBF8C01DC01DB
:100A70005296EC9152975396FC91DF010D90002015
:100A8000E9F711977D01EE1AFF0A08960E943404D7
:100A9000802F912F0E943404F80111A6178E168E14
:100AA000138E128E158E148E81E090E091A380A398
:100AB00080E1898B1D8286E08E838DE48F8381E5C2
:100AC000888789E4898783E78A8784E68B8780E73C
:100AD0008C8783E08D8782E08E87808991899F87CC
:100AE000888B9E2D8F2D9B8B8A8B802F912FBE0103
:100AF0006F5E7F4F41E050E00E943C04C7010E96BC
:100B0000BE016F5F7F4F0E941904AC01802F912FAF
:100B1000BE016F5F7F4F0E943C04802F912FBE016A
:100B20006B5F7F4F4CE050E00E943C04802F912F80
:100B3000BE016E5E7F4F42E050E00E943C04D8014F
:100B400052966D917C915397802F912FA7010E940F
:100B50003C0481E0F80181A7008CF18DE02D3097F5
:100B600011F0C801099563960FB6F894DEBF0FBE69
:100B7000CDBFDF91CF911F910F91FF90EF9008951E
:100B8000CF92DF92EF92FF920F931F93CF93DF9359
:100B9000CDB7DEB72A970FB6F894DEBF0FBECDBF34
:100BA0008C01F62EE72EE62FF72FDF010D900020A7
:100BB000E9F711976D01CE1ADF0A1F8282E8888754
:100BC000D80190968D919C9191979D838E830196EB
:100BD00091969C938E9390979C2D8D2D9A878987C3
:100BE000802F912FBE01685F7F4F41E050E00E944F
:100BF0003C04C6010596BE016F5F7F4F0E94190439
:100C0000AC01802F912FBE016F5F7F4F0E943C048B
:100C1000802F912FBE016B5F7F4F42E050E00E941A
:100C20003C04802F912FBE01675F7F4F42E050E070
:100C30000E943C04802F912F6F2D7E2DA6010E94D3
:100C40003C04802F912FBE01695F7F4F41E050E04F
:100C50000E943C04F801848D958D0196958F848FB8
:100C6000008CF18DE02D309711F0C80109952A967E
:100C70000FB6F894DEBF0FBECDBFDF91CF911F91AD
:100C80000F91FF90EF90DF90CF9008958F929F92F9
:100C9000AF92BF92CF92DF92EF92FF920F931F938A
:100CA000CF93DF93CDB7DEB727970FB6F894DEBFAB
:100CB0000FBECDBF8C01F62EE72E4A015901A62F9B
:100CC000B72FFD0101900020E9F731976F01CA1A93
:100CD000DB0A80E38F83DD82CE82802F912FBE01DD
:100CE000695F7F4F41E050E00E943C04C5010296DD
:100CF0008C0D9D1DBE016F5F7F4F0E941904AC01DA
:100D0000802F912FBE016F5F7F4F0E943C04802F88
:100D1000912FBE016B5F7F4F42E050E00E943C0488
:100D2000802F912F6F2D7E2DA6010E943C04802FD5
:100D3000912FB401A5010E943C04D8015896ED9171
:100D4000FC915997309711F0C801099527960FB675
:100D5000F894DEBF0FBECDBFDF91CF911F910F91F1
:100D6000FF90EF90DF90CF90BF90AF909F908F90CB
:100D700008950F931F93CF93DF9300D0CDB7DEB7C5
:100D80008C0180EC89831A82C801BE016F5F7F4F9E
:100D900042E050E00E943C04D8015E968D919C9107
:100DA0005F9701965F969C938E935E975896ED9110
:100DB000FC915997309711F0C80109950F900F9049
:100DC000DF91CF911F910F9108952F923F924F92F3
:100DD0005F926F927F928F929F92AF92BF92CF92CB
:100DE000DF92EF92FF920F931F93CF93DF93CDB7D4
:100DF000DEB7CB5ED0400FB6F894DEBF0FBECDBFDE
:100E00003C01CC24DD246894C3F8C80ED91E0F2EF3
:100E1000F6E0AF2EBB24F02DAC0EBD1E8824992425
:100E20000F2EFEEF2F2EFFEF3F2EF02D88E690E0E5
:100E30008C0F9D1F0296C651DF4F99838883CA5E2F
:100E4000D0400F2EF7E24F2E5524F02D4C0E5D1E94
:100E5000E6C0C601BE016F5F7F4F42E050E00E94D6
:100E6000BF048A818823C4F40F2EF3E0EF2EFF2401
:100E7000F02DEC0EFD1E8701C601B70141E050E0E8
:100E80000E94BF040894E11CF11CD8018C918823B6
:100E90001CF4EA14FB0479F7E980DE011296840160
:100EA00041E050E0B4018D9190E08F779070849F85
:100EB0009001859F300D949F300D1124020F131F58
:100EC0005695542F4427579547956F5F7F4F59F399
:100ED000FD0131978081882334F30138110508F032
:100EE0009EC0C601BE0168597F4FA8010E94BF0481
:100EF0008E2D82958F70893059F18A3030F482308E
:100F000051F0833009F08BC035C08D3061F18E30E7
:100F100009F085C017C0AA968FADAA97882361F4FF
:100F200082E0F30181A70488F589E02D309709F468
:100F300076C0C301099573C0E3E0D3019996EC93A1
:100F400099976DC0E4E0D3019996EC93999767C0A7
:100F5000D3015C968D919C915D9701975D969C93D2
:100F60008E935C975CC0F301868D978D0197978F68
:100F7000868F55C0A996FFADA997C751DF4FF8835B
:100F8000C95ED040C851DF4F1882C85ED040AA96D3
:100F90008FADAA9790E0C851DF4FE880F980C85E16
:100FA000D040E82AF92A81E2E816F104C0F5C1012F
:100FB0008E199F09080F191F0134110580F58A2D1C
:100FC0009B2DC651DF4F6881CA5ED040C551DF4FAF
:100FD0007881CB5ED0404E2D5F2D0E94C626F50154
:100FE000EE0DFF1D1082B7016E5F7F4FA8E6B0E0E7
:100FF000AC0FBD1F6A0F7B1F842D952D402F512FE5
:101000000E94C626F201E00FF11F1082D30156960E
:10101000ED91FC915797C301B501A2010995F30128
:10102000868597858230910508F013CFC551DF4F33
:101030000FB6F894DEBF0FBECDBFDF91CF911F91E9
:101040000F91FF90EF90DF90CF90BF90AF909F9067
:101050008F907F906F905F904F903F902F9008956A
:1010600024E0FC0121A70895CF92DF92EF92FF9236
:101070000F931F93CF93DF93CDB7DEB7C058D04007
:101080000FB6F894DEBF0FBECDBFE091D105F09151
:10109000D205048D158DC288D388F801F680E780CB
:1010A0004091CC05842F90E09C0120733070211575
:1010B000310511F444233CF4C8010E94300880E15A
:1010C0008093CC0528C041FF0FC06091CF0570917F
:1010D000D0054091C4055091C505C80108960E94ED
:1010E0003C04C8010E94E5068091CC05897099F006
:1010F0004F2D5E2DC416D50608F4A601C801BE0109
:101100006F5F7F4F0E94BF04BC01009721F0CE01AA
:1011100001960E94EE21C058DF4F0FB6F894DEBF53
:101120000FBECDBFDF91CF911F910F91FF90EF9038
:10113000DF90CF900895CF93DF93EC01E62FF72F48
:10114000DF010D900020E9F71197AD014E1B5F0BF9
:10115000460F571F88818823A1F16417750798F5FA
:101160002196DB019A01BA01615070409C919F3237
:1011700019F48F3229F028C08B3231F08332C1F05C
:10118000891711F58B32A9F4CD01019684179507C3
:1011900080F411968C9111978F3259F0FD0132969F
:1011A0001196E217F30729F081918F32C9F701C038
:1011B000DB0111968991882339F0A417B507B0F2A5
:1011C00003C0DB0101C0DB01A417B50741F421E036
:1011D00030E0882311F020E030E0C90102C080E057
:1011E00090E0DF91CF910895009741F0E9EFF0E0B2
:1011F0003197F1F700C000000197C1F708953798C3
:101200001BBA8FEF8ABB84B38F6384BBE4E6F0E044
:1012100080818360808385B3807C85BBE5E6F0E0D8
:1012200080818C7F808384B3806C84BB85B38F7313
:1012300085BB0895CF93DF9380E090E060E070E09D
:101240000E94A703CFE0D1E0CE010E94030480E01A
:1012500090E060E070E00E94A70380E291E00E94CD
:1012600003048FE39DE0A3E081509040A040E1F7AC
:1012700000C00000CE010E94030480E090E061E025
:1012800070E00E94A70381E391E00E9403048FEDC8
:1012900093E9A4E081509040A040E1F700C0000035
:1012A00080E090E060E070E00E94A703CE010E9421
:1012B000030480E090E061E070E00E94A70382E414
:1012C00091E00E940304DF91CF91089580E090E0C7
:1012D00061E070E00E94A70382E491E00E940304B1
:1012E00012BA10926500089580E090E061E070E02D
:1012F0000E94A70383E591E00E9403048FED93E928
:10130000A4E081509040A040E1F700C0000080E0E0
:1013100090E060E070E00E94A70384E691E00E9404
:10132000030480E090E061E070E00E94A70386E79C
:1013300091E00E940304A7EAB1E61197F1F700C01B
:1013400000008FE39DE0A3E081509040A040E1F7D2
:1013500000C0000085B3806385BBAF9A8FE997EF2B
:10136000A3E081509040A040E1F700C00000AE9A99
:10137000A3EDB0E31197F1F700C0000085B38F73C0
:1013800085BB8FE79AE1A6E081509040A040E1F74D
:1013900000C0000085B38F7C85BB0E94900D08952E
:1013A00080E090E061E070E00E94A70387E891E0B0
:1013B0000E9403048FED93E9A4E081509040A04087
:1013C000E1F700C0000080E090E060E070E00E9483
:1013D000A70388E991E00E94030480E090E061E0C7
:1013E00070E00E94A70386E791E00E940304A7EA49
:1013F000B1E61197F1F700C000008FE39DE0A3E094
:1014000081509040A040E1F700C0000082B38063AB
:1014100082BBE5E6F0E08081816080838FE997EF11
:10142000A3E081509040A040E1F700C0000080811F
:1014300082608083A3EDB0E31197F1F700C0000054
:1014400080818C7F80838FE79AE1A6E08150904075
:10145000A040E1F700C0000082B38F7382BB0E94FE
:10146000F40D089580E090E061E070E00E94A70331
:1014700089EA91E00E9403048FED93E9A4E0815092
:101480009040A040E1F700C0000080E090E060E004
:1014900070E00E94A7038AEB91E00E94030480E0C1
:1014A00090E061E070E00E94A70386E791E00E946F
:1014B0000304A7EAB1E61197F1F700C000008FE33B
:1014C0009DE0A3E081509040A040E1F700C0000003
:1014D00082B38C6082BBE5E6F0E08081816080832E
:1014E0008FE997EFA3E081509040A040E1F700C062
:1014F0000000808182608083A3EDB0E31197F1F753
:1015000000C0000080818C7F80838FE79AE1A6E095
:1015100081509040A040E1F700C0000082B38F737B
:1015200082BB0E94580E089580E090E061E070E078
:101530000E94A7038CEC91E00E9403048FED93E9D5
:10154000A4E081509040A040E1F700C0000080E09E
:1015500090E060E070E00E94A7038DED91E00E94B2
:10156000030480E090E061E070E00E94A70386E75A
:1015700091E00E940304A7EAB1E61197F1F700C0D9
:10158000000082B3836082BBE5E6F0E08081816089
:1015900080838FE997EFA3E081509040A040E1F76E
:1015A00000C00000808182608083A3EDB0E31197CA
:1015B000F1F700C0000080818C7F80838FE79AE183
:1015C000A6E081509040A040E1F700C0000082B347
:1015D0008F7382BB0E94BC0E0895989B03C00E942B
:1015E000740908959A9B03C00E94D0090895999B9D
:1015F00003C00E94320A08959B9B02C00E94940A75
:101600000895CF93C62FC098962F9F71892B0E9463
:10161000521280E00E945212CC231CF480E00E94FF
:101620005212C09ACF910895CF93C42FC0986F7172
:10163000862B0E9452128C2F0E945212C09ACF9178
:1016400008950F931F93CF93DF93EC018B01C09804
:101650008AE30E945212209741F080E00E945212C9
:10166000F80181938F012197C1F7C09ADF91CF9143
:101670001F910F9108950F931F93CF93DF93EC0168
:101680008B01C0988AE70E945212209739F0F80126
:1016900081918F010E9452122197C9F7C09ADF9160
:1016A000CF911F910F9108951F93CF93DF93182F20
:1016B000C82FD0E0C076D0708091A00590E0C81708
:1016C000D907B9F080EA6FE143E00E94140BAE0144
:1016D00055954795559547955595479555954795F2
:1016E0005595479580E86FE10E94140B1076109392
:1016F000A005DF91CF911F910895CF93C82F0E942D
:10170000540B80E06C2F0E94010BCF9108951F9322
:10171000CF93DF93182F0E947D0BC82FD0E0812F2D
:101720008F5F0E947D0B382F20E0C22BD32B8C2F94
:101730009D2FDF91CF911F910895CF93DF93C82FF5
:10174000D62F0E94540B80E46C2F4D2F0E94140B57
:10175000DF91CF910895CF93DF93C82FD72F0E94A9
:101760009D0B8C2F8F5F6D2F0E949D0BDF91CF9172
:101770000895CF93DF93682F84ED0E949D0B82ED37
:1017800061E00E949D0B8AEE0E947D0B80FDFBCFE5
:1017900082ED60E00E949D0B88ED0E947D0BD82FAA
:1017A00080E0C82F89ED0E947D0B90E0C82BD92BDB
:1017B0008C2F9D2FDF91CF910895CF93DF93982F9A
:1017C000D62FC72F84ED692F0E949D0B86ED6D2FBC
:1017D0000E949D0B87ED6C2F0E949D0B8AEE0E944C
:1017E0007D0B80FDFBCFDF91CF9108958FEF60E0FF
:1017F0004FEF0E94140B81E090E00E94F4080895DE
:101800001F93CF93DF93EC01162FB89AC09ABC9A1E
:10181000C49A0E9449120E94F60B10929F051092E2
:101820009E0588E060E070E00E94AB0B8CE060E019
:1018300070E00E94AB0B8AE06EEF7FE00E94AB0B82
:1018400084E06FEF7FE00E94AB0B88E361EA0E94C7
:101850009D0B80EC6DE00E949D0B81EC60E00E948E
:101860009D0B80E862EC42E30E94140B86EC62E17F
:101870000E949D0B87EC6CE00E949D0B84EC62E162
:101880000E949D0B8AEC62EA71E00E94AB0B84EE31
:1018900068810E949D0B85EE69810E949D0B82EEFE
:1018A0006A810E949D0B83EE6B810E949D0B80EEEE
:1018B0006C810E949D0B81EE6D810E949D0B80E1E9
:1018C00060E071E00E94DD0B84E166E774E00E9455
:1018D000DD0B8BE160EC0E949D0B8FE164E00E94C8
:1018E0009D0B80EA6FE14CE00E94140B112399F0EC
:1018F00080E00E94B90BBC017E7F80E00E94DD0B7E
:1019000082EC0E947D0B682F70E06E7F82EC0E945B
:101910009D0B65E101C062E184EC0E949D0B80E8B3
:101920006FE144E00E94140BDF91CF911F91089565
:1019300082E70E947D0B089581E10E94B90B21E0AE
:10194000009709F420E0822F0895089580E86FE160
:1019500040E80E94140B80EA6FE140E80E94140BFB
:1019600080EA6CE142E00E94140B08950F931F93EC
:10197000CF93DF938C01EB010E94A60C82E06FEF06
:101980007FE00E94AB0BBE016150704F86E00E9469
:10199000AB0B8AE760E040E00E94140BCE01B80177
:1019A0000E943B0B80E86FE148E00E94140BDF913E
:1019B000CF911F910F9108958FE10E947D0B887048
:1019C000089508950F931F93CF93DF9389E30E94A7
:1019D0007D0B882309F441C060919E0570919F059D
:1019E00080E00E94AB0B8AE360E00E94010B8093D1
:1019F0009E0510929F058AE360E00E94010B382F3C
:101A000020E080919E0590919F05282B392B3093E3
:101A10009F0520939E058AE360E00E94010B182F2A
:101A20008AE360E00E94010B082F8AE360E00E94D5
:101A3000010BC82FD0E08AE360E00E94010B382F31
:101A400020E0C22BD32BC7FF0BC0812F90E0302F9B
:101A500020E0822B932B049705C080E090E002C029
:101A600080E090E0DF91CF911F910F9108959C014C
:101A7000CB01B9010E94210B089560919E057091E0
:101A80009F05615070408FE06F3F780730F08CE029
:101A90006EEF7FE00E94AB0B03C08CE00E94AB0BAB
:101AA00080E86EE140E40E94140B089508950895C3
:101AB0008091B7039091B80301969093B8038093F7
:101AC000B7030895CF93DF93EB018DEE91E00E9471
:101AD0009B08882311F00E94740984E092E0BE0103
:101AE0000E949B08882311F00E94D0098BE192E0AC
:101AF000BE010E949B08882311F00E94320A82E3F3
:101B000092E0BE010E949B08882311F00E94940A73
:101B1000DF91CF9108958091B7039091B803089514
:101B2000EF92FF920F931F93CF93DF93CDB7DEB762
:101B30006E970FB6F894DEBF0FBECDBF0F2EF6E046
:101B4000EF2EF0E0FF2EF02DC7010E94AF299093F9
:101B5000B6038093B50300D000D000D0EDB7FEB738
:101B600031968E010F5F1F4FADB7BEB712961C9313
:101B70000E93119729E432E0338322839583848383
:101B80000E944127F80101900020E9F79F012150B0
:101B90003040201B310B8DB79EB706960FB6F894D8
:101BA0009EBF0FBE8DBF84E393E06CE472E0A8019A
:101BB0000E9446066091B5037091B6036F5F7F4F38
:101BC0007093B6036093B503C7010E94B5296E9662
:101BD0000FB6F894DEBF0FBECDBFDF91CF911F913E
:101BE0000F91FF90EF900895EF92FF920F931F9344
:101BF000CF93DF93CDB7DEB76E970FB6F894DEBF05
:101C00000FBECDBF0F2EF2E0EF2EF0E0FF2EF02D35
:101C1000C7010E94AF299093B4038093B30300D00F
:101C200000D000D0EDB7FEB731968E010F5F1F4F89
:101C3000ADB7BEB712961C930E93119729E432E00C
:101C400033832283958384830E944127F801019086
:101C50000020E9F79F0121503040201B310B8DB748
:101C60009EB706960FB6F8949EBF0FBE8DBF84E355
:101C700093E06EE572E0A8010E9446066091B3030E
:101C80007091B4036F5F7F4F7093B4036093B3039D
:101C9000C7010E94B5296E960FB6F894DEBF0FBE3D
:101CA000CDBFDF91CF911F910F91FF90EF900895DD
:101CB000EF92FF920F931F93CF93DF93CDB7DEB7D1
:101CC0006E970FB6F894DEBF0FBECDBF0F2EF4E0B7
:101CD000EF2EF0E0FF2EF02DC7010E94AF29909368
:101CE000B2038093B10300D000D000D0EDB7FEB7AF
:101CF00031968E010F5F1F4FADB7BEB712961C9382
:101D00000E93119729E432E03383228395838483F1
:101D10000E944127F80101900020E9F79F0121501E
:101D20003040201B310B8DB79EB706960FB6F89446
:101D30009EBF0FBE8DBF84E393E06FE672E0A80103
:101D40000E9446066091B1037091B2036F5F7F4FAE
:101D50007093B2036093B103C7010E94B5296E96D8
:101D60000FB6F894DEBF0FBECDBFDF91CF911F91AC
:101D70000F91FF90EF900895EF92FF920F931F93B2
:101D8000CF93DF93CDB7DEB76E970FB6F894DEBF73
:101D90000FBECDBF0F2EF0E0EF2EF0E0FF2EF02DA6
:101DA000C7010E94AF299093B0038093AF0300D086
:101DB00000D000D0EDB7FEB731968E010F5F1F4FF8
:101DC000ADB7BEB712961C930E93119729E432E07B
:101DD00033832283958384830E944127F8010190F5
:101DE0000020E9F79F0121503040201B310B8DB7B7
:101DF0009EB706960FB6F8949EBF0FBE8DBF84E3C4
:101E000093E060E872E0A8010E9446066091AF038B
:101E10007091B0036F5F7F4F7093B0036093AF0317
:101E2000C7010E94B5296E960FB6F894DEBF0FBEAB
:101E3000CDBFDF91CF911F910F91FF90EF9008954B
:101E400082EB95E00E94D216009769F082EB95E054
:101E50000E94BE1680E060E070E00E94A70381E966
:101E600092E00E9403040895CF93DF93CDB7DEB7CD
:101E700060970FB6F894DEBF0FBECDBF8AEA95E03B
:101E80000E94D216009709F47CC08AEA95E00E946D
:101E9000BE1620911F068091200620932A0380936E
:101EA0002B03809121069091220690932D0380931D
:101EB0002C03222381F58DB79EB70C970FB6F894AB
:101EC0009EBF0FBE8DBFEDB7FEB73196CE01019616
:101ED000ADB7BEB712969C938E93119782EA92E0AB
:101EE000938382831582148280912B0386831782C9
:101EF00080912C038087118680912D038287138621
:101F00000E9441278DB79EB70C960FB6F8949EBFDE
:101F10000FBE8DBF2DC0ADB7BEB71C970FB6F894DE
:101F2000BEBF0FBEADBFEDB7FEB73196CE01019675
:101F300012969C938E93119787EB92E09383828302
:101F40002483158280912B038683178280912C0332
:101F50008087118680912D03828713860E944127F6
:101F60008DB79EB70C960FB6F8949EBF0FBE8DBF6F
:101F700080E060E070E00E94A703CE0101960E941D
:101F8000030460960FB6F894DEBF0FBECDBFDF919D
:101F9000CF91089568EE73E080E090E048E55DE061
:101FA0000E9481131092B8031092B7030E94EE139F
:101FB0000895FC018789908D9093200680931F06D9
:101FC000818D928D9093220680932106838D948D2E
:101FD00090931C0680931B06858D968D90931E060C
:101FE00080931D0683A194A19093180680931706F1
:101FF00085A196A190931A06809319060895EF92F1
:10200000FF920F931F93CF93DF9300D000D0CDB7F3
:10201000DEB78C0185E09DE29A83898382E798E0B0
:102020009C838B83CE01019667E07BE50E94CB18F1
:102030007C010097C9F08EE190E0F801918B808BD4
:1020400087EC92E0938B828BC8010E941B05C8012C
:102050000E943404C80108960E943404C8010E94FA
:102060002805F701158F048F0F900F900F900F9098
:10207000DF91CF911F910F91FF90EF900895CF9333
:10208000DF93CDB7DEB79E01265F3F4F8D819E81E6
:102090006F8170E0488559850E947027DF91CF914C
:1020A00008950F931F93CF93DF93CDB7DEB7E197DA
:1020B0000FB6F894DEBF0FBECDBF0E942D149093D3
:1020C000C5058093C405009739F180912F06909142
:1020D00030068830910579F481E00E94591A809188
:1020E000C4059091C505009709F427C10E94E52316
:1020F0000E94E91622C126E08830920709F01DC12E
:102100000E942C238091C4059091C505009709F485
:1021100014C10E94241411C18EEA95E00E94D216C7
:10212000009709F45CC08EEA95E00E94BE1683ED2C
:1021300095E09093D2058093D10582E00E94591AD0
:102140008091C4059091C505009721F00E94E52378
:102150000E94E91683EF95E09093D2058093D10514
:1021600082E00E94591A8091C4059091C50500979C
:1021700021F00E94E5230E94E91687EB97E09093F7
:10218000CE058093CD0585E00E94591A8091C40543
:102190009091C505009721F00E94E5230E94241428
:1021A00087EE97E09093CE058093CD0585E00E9461
:1021B000591A8091C4059091C505009721F00E949D
:1021C000E5230E94241481EA95E00E94D21600972C
:1021D00031F081EA95E00E94BE160E94F6220E942C
:1021E0009C0C882319F480E28093CC0586EB95E063
:1021F0000E94D216009741F086EB95E00E94BE1631
:1022000084E393E00E94B90680915D038230A1F0DF
:1022100085EA95E00E94D216009771F085EA95E074
:102220000E94BE1604E313E0C8010E94FF0FC8011C
:102230006BED72E00E94C0058AEB95E00E94D21619
:10224000009709F47AC08AEB95E00E94BE16DE0181
:102250005196E1E0F3E08DE101900D928150E1F7BC
:102260001EA61FA618AA19AA80911F0690912006E3
:1022700090932B0380932A0380912106909122064C
:1022800090932D0380932C038DB79EB70D970FB6B7
:10229000F8949EBF0FBE8DBFEDB7FEB73196CE014D
:1022A0000196ADB7BEB712969C938E93119780E1BD
:1022B00082838EED92E09483838380912A038583C9
:1022C000168280912B038783108680912C0381874F
:1022D000128680912D03838714860E943F10EDB7EC
:1022E000FEB73D960FB6F894FEBF0FBEEDBF1816B1
:1022F00024F5AE014F5F5F4FDA010D900020E9F742
:102300009D0121503040241B350B04E313E0C8012C
:102310006AEE72E00E944606AE014F5E5F4FFA0120
:1023200001900020E9F79F0121503040241B350B1C
:10233000C80163EF72E00E94460685E08093A9051C
:102340000FC08091A905882359F48091AD03909125
:10235000AE0301969093AE038093AD030E94A60C4A
:102360000E944914882369F7E1960FB6F894DEBFFE
:102370000FBECDBFDF91CF911F910F9108950E94A5
:10238000FF080E94B103EEE2F3E0A9EBB3E0CF0156
:10239000069621912D93E817F907D9F78EE293E07D
:1023A0000E9420140E941A098091B903809322058B
:1023B0008091BA03809323058091BB038093240509
:1023C0008091BC03809325058091BD0380932605F1
:1023D0008091BE03809327050E94AD180E94D722EA
:1023E0000E94CA0F1092200610921F061092220619
:1023F0001092210610921C0610921B0610921E06C7
:1024000010921D06109218061092170610921A06C6
:102410001092190689EB93E066E070E00E942C02AE
:102420000E9472038EEA95E064EF71E00E94B2169A
:1024300081EA95E060E177E20E94B21686EB95E0D2
:1024400060E375E70E94B21685EA95E068EB7BE0F1
:102450000E94B2168AEB95E060E177E20E94B21624
:1024600082EB95E068E97AE30E94B2168AEA95E089
:1024700068EC7FEA0E94B2160E9468000E94511028
:102480000E9466090E94200F0E94340F0E9475006E
:10249000F5CF87B3876087BBBB98C39A8DB1806542
:1024A0008DB9089591E090931D058FB9779BFECF6C
:1024B00010921D058FB10895CF93DF930F92CDB782
:1024C000DEB7DC01FB01009711F43097F1F0411504
:1024D0005105D9F081E080931D0580E090E03FEF49
:1024E000109711F02D9101C0232F2FB9779BFECFAC
:1024F000309719F02FB1219302C02FB12983019693
:102500008417950769F710921D050F90DF91CF9101
:1025100008959C01AB0180E090E0B9010E945C123B
:102520000895AB0160E070E00E945C120895CF93C3
:10253000DF930F92CDB7DEB7009719F461157105DF
:1025400021F14115510509F13093C1052093C005D2
:1025500021E020931D0590931F0580931E05709325
:102560002105609320055093BF054093BE056F9AE7
:102570002EB12983009739F0FC018191F0931F055A
:10258000E0931E0501C08FEF8FB90F90DF91CF91BF
:1025900008959C01FB01DA0180E090E0B901AF01F0
:1025A0009D010E94971208959B01FA0160E070E07E
:1025B000A9019F010E9497120895CF93DF930F9274
:1025C000CDB7DEB7E0912005F0912105309739F0C5
:1025D0008FB18193F0932105E093200502C08FB164
:1025E00089838091BE059091BF0501979093BF05A7
:1025F0008093BE05009779F0E0911E05F0911F05CC
:10260000309731F08191F0931F05E0931E0501C0D2
:102610008FEF8FB90AC010921D056F98E091C00529
:10262000F091C105309709F009950F90DF91CF9196
:10263000089521E020931D056115710591F0E82FA3
:10264000F92F80E090E0DF0121812FB9779BFECF49
:1026500032962C912FB9779BFECF0196861797075C
:1026600091F710921D050895FC0181E080931D05EE
:1026700061157105B9F020E030E0AFEFAFB9779B9D
:10268000FECF8FB1582F40E0AFB9779BFECF8FB10F
:1026900090E0842B952B819391932F5F3F4F2617CA
:1026A000370761F710921D05089580349105E9F010
:1026B0008134910550F48830910509F180329105FB
:1026C00091F081309105C9F40CC021E0803092076F
:1026D00081F024E08030920771F08038910569F430
:1026E00006C081E0089583E0089584E0089585E0C0
:1026F000089586E0089587E0089580E0089582E0D7
:1027000008956F927F928F929F92AF92BF92CF92D5
:10271000DF92EF92FF920F931F93CF93DF938B0182
:102720009C01F8945093C3054093C20515BC15BC99
:1027300085B5886085BD85B5806885BD60E070E140
:1027400085EA94EDA90198010E949726822E932E86
:10275000A42EB52E8FEF88169104A104B104E1F0E8
:10276000D8F0C0E6D3E00F2EFCE06F2E7724F02DDA
:102770006C0E7D1E09911991980140E050E0C50151
:10278000B4010E94972669017A012F3F3105410566
:10279000510509F050F403C0C22E01E010E0C80159
:1027A0000E94551380936C0303C0C615D70511F71B
:1027B000CA94C3BC80EC86BF80E887BF7894DF9161
:1027C000CF911F910F91FF90EF90DF90CF90BF902E
:1027D000AF909F908F907F906F90089514BC8091E0
:1027E0006C0385BD089515BC08951F920F920FB616
:1027F0000F920BB60F9211242F933F934F935F9339
:102800006F937F938F939F93AF93BF93EF93FF93B8
:10281000E091C205F091C3050995FF91EF91BF9139
:10282000AF919F918F917F916F915F914F913F9168
:102830002F910F900BBE0F900FBE0F901F90189509
:1028400061E00E94000C08956091C4057091C50577
:1028500083E296E00E94B60C0895CF93DF930E9426
:10286000E20CEC01009781F081E0C139D80728F033
:102870000E943D0DC0E0D0E007C083E296E0BE01BB
:102880000E94370D0E943D0D8C2F9D2FDF91CF911F
:1028900008950E94DC0C0895FC01718360835383CA
:1028A00042830895FC018489863059F58091CC05D6
:1028B00080FF29C082859385A091D105B091D20572
:1028C00052962D913C9153972817390778F4821B23
:1028D000930B938782878481958152962D913C91A9
:1028E0005397820F931F9583848308C02481358179
:1028F000820F931F958384831386128681E0848BD5
:10290000089580E0089580E00895CF93DF93EC016F
:102910008C89863021F48091CC0582FF19C02A85EC
:102920003B85E091D105F091D205628973896217E8
:10293000730728F48C819D810E94EE2105C08C8153
:102940009D81B9010E94EE2186E08C8B81E001C05F
:1029500080E0DF91CF9108951F93CF93DF93EC0137
:102960008A819B81009721F08C3D9105E1F40DC097
:1029700041155105E1F07D836C835B874A871C8A92
:102980000DC08CED90E09B838A83CE010E9452148F
:10299000182FCE010E948514812359F08A859B85CA
:1029A000009779F71C8A1B821A8282E003C081E0BB
:1029B00001C080E0DF91CF911F910895CF92DF9207
:1029C000EF92FF920F931F93CF938C017B016A01CB
:1029D000FC0182819381009721F08D3F910561F583
:1029E0001CC06115710569F1CA01FB010995F80167
:1029F000938782878091CF059091D00595838483BA
:102A0000148A8091CC0582FF03C0C601F7010995A5
:102A10008DEF90E0F80193838283C8010E945214E5
:102A2000C82FC8010E9485148C2369F0F8018285A3
:102A30009385009731F7148AF8011382128282E09D
:102A400003C081E001C080E0CF911F910F91FF9002
:102A5000EF90DF90CF900895FC01828993892089BF
:102A60003189821B930B0895FC018485958500971D
:102A700071F48489823021F483E0848B80E00895AE
:102A80009091CC0581E091FD03C080E0089581E044
:102A90000895FF920F931F93CF93DF938C01F62E2F
:102AA000DC0112968D919C911397009731F0B1E063
:102AB00084339B0709F08BC016C0F80160857185CF
:102AC00042895389C8010E960E944C14D8011C9665
:102AD0008D919C911D970097D9F484E391E0139612
:102AE0009C938E931297C8010E943415882309F491
:102AF00075C082E0F801848B8091CF059091D0055C
:102B0000978386838091C4059091C50595878487B6
:102B1000E8012E96A8014A5F5F4FB801645F7F4FBE
:102B200022C0A881B981FA0180819181FC012081B4
:102B30002C93DA018D919C911197019611969C939B
:102B40008E9388819981019699838883FB01808186
:102B500091810197918380838A819B8101979B83D7
:102B60008A83F21649F18A819B81009731F0DB015B
:102B70008D919C9111970097A1F6F8018485958518
:102B8000009799F4A3CFDA01ED91FC911197208180
:102B90000197FB01918380838D919C911197019600
:102BA00011969C938E93F21639F0DB018D919C91D6
:102BB0001197009741F78ACFC8010E942C15009702
:102BC00031F4F801148A1382128280E008C0D8011F
:102BD00013961C921E92129782E001C080E0DF9152
:102BE000CF911F910F91FF900895CF93DF93EC0148
:102BF0008A819B81009731F021E08235920709F0AC
:102C00008FC010C0688579854A895B89CE010E9690
:102C10000E944C148C859D850097E1F482E591E03B
:102C20009B838A83CE010E943415882309F47CC0DB
:102C30008DE693E00E94D62682E08C8B8091CF05B2
:102C40009091D0059F838E838091C4059091C50596
:102C50009D878C872C853D854889598924173507A0
:102C6000F8F46E817F818E859F85422F532F0E94BD
:102C7000C6268C859D852E853F85280F391F3F8769
:102C80002E8728893989281B390B398B288B2E816F
:102C90003F81820F931F9F838E831D861C86BACF30
:102CA00024173507D9F46E817F818E859F85422F49
:102CB000532F0E94C6268C859D852E853F85280F23
:102CC000391F3F872E87198A188A2E813F81820FEC
:102CD000931F9F838E831D861C862AC06E817F81F1
:102CE0008E859F850E94C626888999892E853F8575
:102CF000280F391F3F872E872C853D85281B390BD0
:102D00003D872C872E813F81820F931F9F838E8367
:102D1000198A188A0DC01C8A1B821A8280E005C09D
:102D20001B821A8282E001C080E0DF91CF9108957A
:102D3000CE010E942C15009799F7EDCFCF93DF932A
:102D4000EC011C8A1D861C86798768875B8B4A8B01
:102D50000E960E944C14198218821B821A82DF91EF
:102D6000CF910895CF93DF93EC017B836A830E9418
:102D70008B0D99838883DF91CF910895FC01808129
:102D8000918122813381820F931F918380830895E3
:102D9000CF93DF93EC010E948B0D99838883DF91A1
:102DA000CF910895CF93DF93EC010E948B0D288182
:102DB0003981AC01421B530B9A0181E090E04A81BA
:102DC0005B812417350710F480E090E0DF91CF910C
:102DD000089580913A06863009F03EC08091C4057E
:102DE0009091C50581349105B8F10E94241401C069
:102DF00000000E9449148823D9F788E290E090935C
:102E0000C5058093C4051092330688E2809334068A
:102E100010925606109255060E9482188095909541
:102E2000909356068093550610923C0610923B06EE
:102E30000E9471188095909590933C0680933B0674
:102E40008091C4059091C5050E969093C505809319
:102E5000C4050E94241408950E94241408950F9319
:102E60001F93CF93DF9380913A06863009F098C084
:102E70008091C4059091C5058134910508F490C0F6
:102E8000C697EC01D695C7959E01220F331F2817D0
:102E9000390720F48E010F5F1F4F01C08E01CE0154
:102EA00088969093C5058093C405909333068093CC
:102EB000340610925606109255060E94821880958C
:102EC0009095909356068093550610923C0610926A
:102ED0003B060E9471188095909590933C068093D4
:102EE0003B068091C4059091C5050E969093C5054B
:102EF0008093C4050E94241401C000000E9449145C
:102F00008823D9F7C80188969093C5058093C40596
:102F100090933306809334068091CF059091D0052D
:102F2000BC016C0F7D1F402F512F0E94C62689E4E3
:102F300096E0BE010E9415188091C805809349064D
:102F40008091C90580934A068091CA0580934B06FB
:102F50008091CB0580934C06109256061092550630
:102F60000E948218809590959093560680935506FE
:102F700010923C0610923B060E9471188095909525
:102F800090933C0680933B068091C4059091C505C3
:102F90000E969093C5058093C4050E94241402C028
:102FA0000E942414DF91CF911F910F910895CF9328
:102FB000DF939C0141505040460F571F641775071F
:102FC000E0F4FB01B081A0E08181ED01C80FD11DCB
:102FD0002C0F3D1F2C173D0710F42F5F3F4F3296EB
:102FE000E417F50778F3CB0180959095840F951F32
:102FF0008E7F0296860F971F01C0CB01841795071D
:1030000051F4FC01508140E0240F351F241735078F
:1030100010F42F5F3F4F822F932FDF91CF910895B0
:1030200090932905809328050895FC018381860FDC
:103030008093CB05872F99272281280F2093CA05DB
:1030400041814093C90550815093C80530E028174D
:10305000390740F44F5F4093C905442319F45F5F7B
:103060005093C8058091CB0590E070708617970744
:1030700098F48091CA058F5F8093CA05882361F414
:103080008091C9058F5F8093C905882329F48091B9
:10309000C8058F5F8093C8050895BC018091D10554
:1030A0009091D20508960E941518E091D105F091F3
:1030B000D2058091C80580878091C905818780915C
:1030C000CA0582878091CB05838708959C01AB0157
:1030D00080E090E0B9010E94D717982789279827A8
:1030E000089580E090E061E376E044E150E00E94E2
:1030F000D717009721F098278927982708958FEFF1
:103100009FEF08950F931F93CF93DF93C3E3D6E010
:103110001091330600E080913406080F111DBE01A6
:10312000665F7F4FC8010E9748E050E00E94D717B6
:10313000BE016E5E7F4FA801445150400E94D717D8
:10314000009721F098278927982702C08FEF9FEFDB
:10315000DF91CF911F910F91089510921406109254
:10316000130610921606109215061092EC05109296
:103170000C0680E094E090932C0580932B05109230
:10318000BC071092BB071092EC071092EB0782E08D
:1031900080932A0508952F923F924F925F926F92EB
:1031A0007F928F929F92AF92BF92CF92DF92EF92D7
:1031B000FF920F931F93CF93DF933C012B0120913C
:1031C0002B0530912C05CC24DD246894D4F863EDD4
:1031D00075E0DB0159960F2EF3EF2F2EF5E03F2E11
:1031E000F02D0F2EF9E1EF2EFF24F02DE20CF31C51
:1031F0000F2EF7EF8F2EF5E09F2EF02D0F2EF7ED0F
:10320000AF2EF5E0BF2EF02D2F5F3F4F8DE7203022
:10321000380708F47CC096017AC0E401888199815E
:103220008417950789F330932C0520932B05109272
:103230002A058091EC058823F9F0873011F0E0E051
:10324000F0E080910C06882329F481E080932A0520
:10325000F80112C0873069F4309741F0D8015A96CE
:103260009C915A97828D891718F003C0F80101C00C
:10327000F80182E080932A053097A1F182E0818FE6
:1032800080912D05848780912E05858780912F055B
:1032900086878091300587878AE591E0938B828BC2
:1032A000958B848B81E090E0918B808B138E81E0F5
:1032B000828F83E0808F168A80E1878B80912B0537
:1032C00090912C0598278927982795838483578286
:1032D0004682E30188819981918380838A819B81E1
:1032E000938382838E2F9F2FDF91CF911F910F9118
:1032F000FF90EF90DF90CF90BF90AF909F908F9016
:103300007F906F905F904F903F902F900895522F35
:10331000432FFB018C91882339F0E5018881998145
:103320008417950709F470CF8101E701888188230C
:1033300009F073CF78CFCF93DF93DC01EB0140919D
:10334000BB075091BC07E091EB07F091EC0720918F
:103350002B0530912C0560E070E12F5F3F4F8DE72A
:103360002030380708F09B01922F832F4817590708
:10337000A1F352C030932C0520932B0510922A05FF
:103380008091BB079091BC070097E1F580E001C0F8
:1033900081E090E020E330E0829FA001839F500D08
:1033A000929F500D1124FA01E954F84F39F425C0C9
:1033B00082E080932A05E0E0F0E01FC080912B05B9
:1033C00090912C0598278927982795838483D78304
:1033D000C683109729F410821182128213820BC0C7
:1033E0008D919C9111979183808312968D919C91E0
:1033F00013979383828380E480878E2F9F2FDF91A2
:10340000CF91089581E080932A058091EB079091F8
:10341000EC07009769F6BCCFE817F90709F49DCFD0
:10342000A9CF10922A05209113063091140628176F
:10343000390781F4E0E0F0E002C0E1E0F0E0EE0FF7
:10344000FF1FED5EF94F11821082089582E0809394
:103450002A05089521E020932A0520911506309130
:1034600016062817390791F7E8CF10922A05209100
:103470001306309114062115310581F4E0E0F0E0E7
:1034800002C0E1E0F0E0EE0FFF1FED5EF94F918327
:103490008083089582E080932A05089521E0209397
:1034A0002A0520911506309116062115310591F750
:1034B000E8CFDF92EF92FF920F931F93CF93DF93AA
:1034C000C091D105D091D205843009F4CBC129E552
:1034D00036E03093D0052093CF053093C705209375
:1034E000C605833081F4898D8F70833009F068C7F9
:1034F00088899989009709F063C788E08093CC0593
:103500000E943408E9C5823009F093C080913005EB
:103510008F5F80933005882399F480912F058F5F0A
:1035200080932F05882361F480912E058F5F80930F
:103530002E05882329F480912D058F5F80932D051A
:103540001092C5051092C4051092B6071092B507E7
:10355000498D473011F0453041F48A8D8F5F8A8F55
:10356000883709F02DC7198E2BC7442309F428C7C3
:1035700088899989009709F452C08A8D982F9150B3
:103580009A8F882309F01CC78B8D883031F0942FD7
:103590009150923060F4853051F4198E80E8809318
:1035A000CC050E94340884E1809352066FC68530B2
:1035B00048F423E030E0082E02C0220F331F0A94A3
:1035C000E2F701C020E32A8F8F5F8B8F842F90E07A
:1035D0008F70907083309105E1F0843091054CF448
:1035E0008130910509F44DC38230910509F0E8C698
:1035F0000DC08630910509F412C58830910509F493
:103600000EC58430910509F0DBC609C5109252063B
:103610003BC384E08093CC050E943408A0C54F7062
:10362000433009F0CDC688E08093CC050E94340871
:1036300053C5853029F5E091CD05F091CE05848103
:103640009581009709F4BCC61092D2051092D1055D
:103650008DE496E09093D0058093CF059093C705B5
:103660008093C6051092B6071092B5071092C50553
:103670001092C40588E08093CC050E945E02F2C0DF
:1036800080913106853409F09BC61091330600E025
:1036900080913406080F111D8091C4059091C505D5
:1036A0008017910708F48CC61093C5050093C405D4
:1036B0008091370690E08F739070009709F080C674
:1036C00080913806882309F07BC6C0911F06D091EF
:1036D0002006209731F480912106909122060097D0
:1036E000A1F08091410690914206C817D90709F0D0
:1036F00067C620914306309144068091210690913F
:1037000022062817390709F05BC60E9471182FEFAF
:103710008F3F920709F054C680913A06863009F42B
:10372000F8C0813191F1813009F04AC68091450697
:10373000883009F045C61092450680914706909161
:103740004806EFEF873F9E0730F0099690934806B2
:103750008093470605C008969093480680934706D5
:10376000E3E2F6E0828D938D9093420680934106CA
:10377000848D958D91A380A3D38FC28F80912106D4
:1037800090912206958F848F18C60C51104010938B
:10379000C5050093C40587EB97E09093CE05809311
:1037A000CD05F8E087319F0708F00AC6609147060B
:1037B00070914806A0914506B0914606E3E2F6E016
:1037C000C28DD38D048D158DFC0127E138E08481F5
:1037D0009581009739F18617970721F586819781A2
:1037E000009719F08A179B07E9F440815181411530
:1037F000510529F482819381009761F41CC08FEFF9
:103800004F3F580739F4E280F3808FEFE8168FEFCF
:10381000F80689F04C175D0729F482819381081717
:10382000190749F0F096F093CE05E093CD05E21725
:10383000F30768F2C5C51092D2051092D10582E057
:103840008093CC058DE496E09093D0058093CF05CE
:103850009093C7058093C6051092B6071092B507DE
:103860000E945E028091B5079091B607009709F417
:10387000A7C59C01245E3F4F3093C5052093C40526
:103880003093330620933406E091CD05F091CE05B8
:1038900020852093390621E120933A06089698273F
:1038A0008927982790934A068093490610924C06E0
:1038B00010924B068481958190934606809345062D
:1038C00086819781909348068093470680911F06D2
:1038D0009091200690933E0680933D0680912106AC
:1038E000909122069093400680933F0680819181BB
:1038F000909342068093410682819381909344067F
:103900008093430689E596E09093D0058093CF0598
:1039100032C50E948218EFEF8F3F9E0709F050C515
:103920002091470630914806409145065091460641
:10393000E3E2F6E0628D738D048CF58DE02DC3ED2E
:10394000D5E0A3EFB5E019C0D98CDD20A9F08C81BA
:103950009D812817390781F48E819F814817590767
:1039600059F4888199816817790731F48A819B819C
:10397000E817F90709F4A3C1A096AC17BD0720F713
:10398000809152068F738230B1F4309332052093C8
:10399000310540E0E42FF0E0EE0FFF1FED5EF94F40
:1039A000808191812817390709F477C04F5F423031
:1039B00088F340932A058091520682FD01C584E177
:1039C0008093520688E290E09093C5058093C405E9
:1039D00082E596E020E520935106FC013697308180
:1039E000EC01229728812083DC0117972C91FC01A0
:1039F000339740814C932083DC0118975C91FC0144
:103A0000349740814C935083FC0139974081409317
:103A10002A05DC0115978C9180834C933F5F388396
:103A2000332371F42F5F20934F06222349F4852F0F
:103A30008F5F80934E06882319F44F5F40934D06A5
:103A4000809145069091460690933205809331050A
:103A5000209147063091480630934606209345064C
:103A60009093480680934706E3E2F6E0828D938DBB
:103A70009093420680934106848D958D91A380A3F7
:103A800080911F0690912006938F828F809121064E
:103A900090912206958F848F53C410922A0530E0AE
:103AA00020E0C0E0D0E043ED55E001C0322F822F8E
:103AB00090E0FC01EE0FFF1FE295F295F07FFE27EC
:103AC000E07FFE27E40FF51F618D662379F43093C4
:103AD0002A059C01E901CC0FDD1FC295D295D07F4C
:103AE000DC27C07FDC27CD52DA4F25C06730E9F4F0
:103AF000209779F0880F991F82959295907F98274B
:103B0000807F9827FA01E80FF91F928D8A8D891717
:103B100060F4C22FD0E0CC0FDD1FC295D295D07FCC
:103B2000DC27C07FDC27CD52DA4F2F5F223008F42C
:103B3000BDCF20932A05209709F442C4D093D20523
:103B4000C093D10583E08A8F888F1E8A84E08F8B93
:103B50001B8E80914706909148069D838C838091AF
:103B60004506909146069F838E8303E216E0F80196
:103B7000828D938D99838883848D958D9B838A8391
:103B800081E0898F80912D058C8780912E058D870E
:103B900080912F058E87809130058F8781E090E09E
:103BA000998B888B81A58B8780A58A8787A1898738
:103BB00086A1888781E090E00E944D18F80126A533
:103BC000822F90E0807F9070813591050CF459C070
:103BD00022952F70422F50E045505040440F551F02
:103BE000440F551F7091330560E0980140C0F90102
:103BF000E80FF91F76A9772329F460932A057093BB
:103C000033053FC0713011F46F5F31C0723019F568
:103C1000F901E80FF91FE7A9E430E9F460932A05F8
:103C200022E020933305FC01ED5DF94F30AD20E03B
:103C300081AD90E0822B932B9093320580933105D8
:103C4000F1E08B359F0710F08AE591E09B8B8A8B22
:103C50009D8B8C8B16C0820F931FFC0187A9882334
:103C600029F460932A05709333050BC0680F862FE3
:103C700090E0841795070CF4BACF60932A057093EF
:103C8000330580E1809352068091520682608093D2
:103C9000520682E08093590684E080935A0681E0C0
:103CA00080935B068AE580935C068CE290E09093BB
:103CB000C5058093C40580E680935106F0C27E015D
:103CC000D093D205C093D1051092CC052091520615
:103CD00030E022FF07C0198E80E28093CC050E945D
:103CE00034086EC38091510682958F70880F880FBB
:103CF00080932A05081B1109045110401093C50533
:103D00000093C4058D2D8F70823031F4C9018F73FB
:103D100090708231910509F10115110529F4C9014D
:103D2000837090700097C9F090914906F7018085E3
:103D3000981709F0A8C290914A068185981709F052
:103D4000A2C290914B068285981709F09CC290916F
:103D50004C068385981709F096C224FF4FC0F701DF
:103D6000608971896115710509F448C0C7010C9615
:103D70000E94151830914D068091C8053817F1F54D
:103D800020914E068091C9052817C1F590914F06E4
:103D90008091CA05981791F5809150064091CB0506
:103DA000841761F5F7013487258796878787838D88
:103DB0008823E1F49689808D228D821B292F2695F8
:103DC00026952695821B282F980F968B88230CF416
:103DD0002195F7018789382F36953695831B820FF9
:103DE000878B969596959695890F808F81E0809325
:103DF000CC05F701808D828F118A108AF701418DE1
:103E000050E0CA018F7090708430910509F4DCC1D4
:103E10008530910564F482309105C1F183309105BC
:103E20000CF0D2C08130910509F0CAC211C08630B1
:103E3000910509F41FC2863091050CF4FAC1873050
:103E4000910509F420C28830910509F0B9C2B0C1CA
:103E50008091CC0580FFB4C283E0F701818F80E4BC
:103E60008093CC05118A108A8091C4059091C50574
:103E7000009729F022E42093CC050E944D1810925F
:103E8000B6071092B5070E94340826C18091CC0570
:103E900080FF8FC0809152068F73823109F089C0F4
:103EA00020915106822F90E0807F9070813591059E
:103EB0000CF45BC022952F70622F70E0655070404B
:103EC000660F771F660F771F3091330520E043E2BE
:103ED00056E041C0FA01E80FF91F36A9332329F44F
:103EE00020932A053093330540C0313011F42F5F01
:103EF00032C0323021F5FA01E80FF91FE7A9E430AA
:103F0000F1F420932A0522E020933305FC01ED5DB6
:103F1000F94F30AD20E081AD90E0822B932B909350
:103F2000320580933105F1E08B359F0710F08AE56B
:103F300091E0F701938B828B958B848B16C0FA01ED
:103F4000E80FF91F87A9882329F420932A053093C5
:103F500033050BC0280F822F90E0861797070CF4CB
:103F6000B9CF20932A053093330583E0F701818F81
:103F700080914906808780914A06818780914B060F
:103F8000828780914C06838781E090E00E944D18E3
:103F900082E48093CC05F701118A108A1092C5053E
:103FA0001092C4051092B6071092B5070E9434080B
:103FB00093C080E28093CC050E943408E091D10543
:103FC000F091D205118EF7CC8091520680FF2BC064
:103FD00044FD29C0F70180899189009709F0F0C15B
:103FE0008091C4059091C50501960E944D182091BD
:103FF000CC0520612093CC058091C4059091C50526
:10400000009719F022602093CC050E94340881E0CB
:1040100090E0F701918B808B88E0818F138E81E196
:104020008093520633C185FF1CC03091570620E0B3
:104030008091580690E0282B392B8091CF059091E4
:10404000D005820F931F9093D0058093CF05809168
:10405000C4059091C505821B930B9093C505809371
:10406000C4058091C4059091C505009749F044FDB1
:1040700007C02091CC0522602093CC050E944D18EA
:104080009091530680E020915406820F911D9093E9
:10409000320580933105F7012489358928173907BE
:1040A00010F0009721F43093320520933105809170
:1040B000310590913205F701938B828B8091CC056D
:1040C00090E083709070009709F47AC11092B6075F
:1040D0001092B5070E9434082091CC0525FF09C035
:1040E0001092B6071092B507198E84E1809352069C
:1040F000CDC024FF0FC01092B6071092B50781E023
:1041000090E0998B888B84E0898F1B8E81E180936E
:104110005206BCC08091B5079091B6070097F1F0A8
:1041200020FF03C0198A188A05C0288939892115FA
:10413000310581F42A893B892817390720F4309307
:10414000B6072093B5078091B5079091B607998B74
:10415000888B04C03093B6072093B5071B8E8091DF
:10416000C6059091C7059093D0058093CF058091A7
:10417000B5079091B607009769F0888999890097EB
:1041800049F088969093C5058093C40588E1809393
:10419000520682C08091CC0581FF12C188E290E076
:1041A0009093C5058093C40580E18093520674C046
:1041B0008091CC0580FF04C1F701118E80E18093CE
:1041C000CC050E943408FCC08091C4059091C505BF
:1041D000009711F00E944D188091520680FF18C080
:1041E0008091CC0580FF07C087E0F701818F128E98
:1041F000118A108A03C086E0F701818F81E090E088
:104200000E944D1880E18093CC050E9434083BC089
:104210008091CC0580FF06C085E0F701818F118A6F
:10422000108ACEC08091C4059091C505009759F5BC
:10423000C7C08091C4059091C505009711F00E94F8
:104240004D188091520680FF0EC087E0F701818FE4
:10425000128E81E090E00E944D1880E18093CC05A1
:104260000E94340810C08091C4059091C505009744
:1042700051F4A6C08091CC0580FFA2C087E0F70171
:10428000818F128E9DC080E18093520688E290E07B
:104290009093C5058093C40580E580935106888579
:1042A00080934D06898580934E068A8580934F06BC
:1042B0008B85809350068C85809349068D858093ED
:1042C0004A068E8580934B068F8580934C0686E048
:1042D00080933A068C819D81909346068093450693
:1042E0008E819F81909348068093470680911F0698
:1042F0009091200690933E0680933D068091210682
:10430000909122069093400680933F068881998180
:1043100090934206809341068A819B819093440644
:1043200080934306898D84FF05C010925406109235
:10433000530606C081E0809353068AE580935406B5
:1043400080E4809339068091C4059091C5059093CF
:104350003306809334061092580610925706109236
:104360005606109255060E9482188095909590935B
:1043700056068093550685E48093310610923206E6
:1043800010923806109237068091280590912905E1
:104390000196909329058093280590933506809384
:1043A000360610923C0610923B060E9471188095CA
:1043B000909590933C0680933B061092CC0506C0E6
:1043C0001092C5051092C4051092CC05DF91CF91D3
:1043D0001F910F91FF90EF90DF9008959C011616AA
:1043E00017068CF4462F572F6093B5077093B607C6
:1043F0008091C6059091C7052817390721F0622FD3
:10440000732F0E94C6260895EF92FF920F931F9379
:10441000CF93DF938C01F62EE72E1092340540E007
:1044200050E0A0E09A01220F331FCA01880F991FA4
:10443000880F991F880F991FF901E80FF91FE40FE2
:10444000F51FEB5CFA4F808191810097F9F0628152
:10445000738161157105D1F0E801288139818217D6
:104460009307A1F48A819B816817790779F4A09357
:104470003405DF011496CF2DDE2D86E009900D92D4
:104480008150E1F780918D0582878AC0A42FAF5FAC
:104490004F5F5F4F4830510529F640E050E070E033
:1044A000642F9A01220F331FCA01880F991F880FAA
:1044B000991F880F991FF901E80FF91FE40FF51FE5
:1044C000EB5CFA4F80819181009741F48281938166
:1044D000009721F470933405742F09C0762F7F5F05
:1044E0004F5F5F4F48305105D9F6709334057830EF
:1044F00009F042C0B0918D05CB2FD0E060E0A0E084
:1045000040E050E0CA01880F991F9A01220F331F23
:10451000220F331F220F331FFC01E20FF31FE40FA2
:10452000F51FEB5CFA4FE285CE018E1B9109262F19
:1045300030E0281739071CF46B2F6E1BA42F4F5F38
:104540005F4F48305105F1F660938E05A0938F05BB
:10455000A09334052A2F30E0F901EE0FFF1FC901A7
:10456000880F991F880F991F880F991FE80FF91F4F
:10457000E20FF31FEB5CFA4FD8014D915D916D9105
:104580007C91DF014D935D936D937D93CF2DDE2D57
:1045900086E009900D928150E1F780918D05828728
:1045A000DF91CF911F910F91FF90EF90089580E0E0
:1045B00090E0FC01EE0FFF1F9C01220F331F220F22
:1045C000331F220F331FE20FF31FE80FF91FEB5CBD
:1045D000FA4F1082118212821382282F2F5F2093AC
:1045E000340501968830910521F7089580918D0555
:1045F0008F5F80938D051092340580E090E0FC0180
:10460000EE0FFF1F9C01220F331F220F331F220FBB
:10461000331FE20FF31FE80FF91FEB5CFA4F8281A3
:10462000938120813181822B932B009769F08091B7
:104630008D0590E02285821B91098837910524F031
:104640001082118212821382809134058F5F8093D1
:104650003405883098F208950F931F93CF93DF931A
:104660008091C4059091C5058A32910528F4109275
:10467000C5051092C405A4C01092C5051092C405CA
:10468000809137069091380621E08030920731F012
:1046900022E08030920709F093C075C0209149064E
:1046A00030914A0680911F069091200628173907FD
:1046B00009F086C020914B0630914C06809121066E
:1046C000909122062817390709F07AC0CFE3D6E087
:1046D0008E0106501040CE01B8010E94042280E0F5
:1046E00092E090933806809337062496F80186E08E
:1046F000019009928150E1F7A9E3B6E0E2E2F5E02A
:1047000086E001900D928150E1F7A9E2B6E0E2E285
:10471000F5E086E001900D928150E1F7E3E2F6E0EA
:10472000DF01B09686E001900D928150E1F7A9E497
:10473000B6E0FD013A978081918190934A0680937B
:10474000490618978D919C91119790934C068093F0
:104750004B0680911F069091200691838083809163
:1047600021069091220611969C938E9388E096E004
:104770009093300680932F068AE290E09093C505CF
:104780008093C4051DC02091490630914A0680914E
:104790001F06909120062817390791F420914B06A7
:1047A00030914C06809121069091220628173907F6
:1047B00039F48FE396E0BC01665070400E940422F9
:1047C000DF91CF911F910F910895CF93DF93409187
:1047D0004106509142062FEF4F3F520791F48091CE
:1047E000430690914406AFEF8F3F9A0751F4A3E23E
:1047F000B6E0E0E8F3E086E001900D928150E1F749
:10480000E2C080911F069091200684279527209171
:104810001B0630911C0682239323009791F460912C
:1048200043067091440620912106309122062627E6
:10483000372780911D0690911E06822393230097AF
:1048400089F08091170690911806909391058093B6
:1048500090058091190690911A0690939305809384
:10486000920508C05093910540939005709393056D
:1048700060939205A0919005B0919105C091920529
:10488000D091930540E050E070E0642FCA01880F9A
:10489000991F9A01220F331F220F331F220F331F3C
:1048A000FC01E20FF31FE40FF51FEB5CFA4F808170
:1048B0009181A817B90749F482819381C817D90754
:1048C00021F470933405742F09C0762F7F5F4F5FFA
:1048D0005F4F48305105C9F670933405783009F0C0
:1048E0006AC0C3E2D6E0CE016FEF70E046E050E070
:1048F0000E94CF26FE01B09686E0DF011D928A95C8
:10490000E9F72696E2E2F5E086E00190099281500F
:10491000E1F7A9E3B6E0E2E2F5E086E001900D926E
:104920008150E1F7809190059091910590934A060E
:1049300080934906809192059091930590934C063F
:1049400080934B0680911F0690912006909340061D
:1049500080933F0680912106909122069093420613
:104960008093410680E091E090933806809337066B
:10497000909332068093310688E090E0909334065D
:104980008093330686E08093350684E08093360674
:1049900088E096E09093300680932F0689E596E0B4
:1049A0009093D0058093CF058AE290E09093C5055F
:1049B0008093C40520C0A3E2B6E0349686E001905F
:1049C0000D928150E1F7A9E2B6E0E2E2F5E086E07F
:1049D00001900D928150E1F788E090E090933006CD
:1049E00080932F068091C4059091C5050E969093F3
:1049F000C5058093C405DF91CF9108950CD0E6C022
:104A0000DED040F0D5D030F021F45F3F19F0C7C0C0
:104A1000511110C1CAC0EBD098F39923C9F35523A3
:104A2000B1F3951B550BBB27AA27621773078407A1
:104A300038F09F5F5F4F220F331F441FAA1FA9F357
:104A400033D00E2E3AF0E0E830D091505040E69549
:104A5000001CCAF729D0FE2F27D0660F771F881FAA
:104A6000BB1F261737074807AB07B0E809F0BB0B99
:104A7000802DBF01FF2793585F4F2AF09E3F5105BD
:104A800068F08DC0D7C05F3FECF3983EDCF38695AD
:104A900077956795B795F7959F5FC9F7880F911D33
:104AA0009695879597F90895E1E0660F771F881F1F
:104AB000BB1F621773078407BA0720F0621B730BD2
:104AC000840BBA0BEE1F88F7E095089598D088F014
:104AD0009F5790F0B92F9927B751A0F0D1F0660FEA
:104AE000771F881F991F1AF0BA95C9F712C0B13005
:104AF00081F09FD0B1E008959CC0672F782F882760
:104B0000B85F39F0B93FCCF3869577956795B39543
:104B1000D9F73EF490958095709561957F4F8F4FB2
:104B20009F4F0895E89409C097FB3EF490958095B7
:104B3000709561957F4F8F4F9F4F9923A9F0F92F63
:104B400096E9BB279395F695879577956795B795E1
:104B5000F111F8CFFAF4BB0F11F460FF1BC06F5FC7
:104B60007F4F8F4F9F4F16C0882311F096E911C0D9
:104B7000772321F09EE8872F762F05C0662371F0FA
:104B800096E8862F70E060E02AF09A95660F771F0E
:104B9000881FDAF7880F9695879597F9089597F902
:104BA0009F6780E870E060E008959FEF80EC0895D3
:104BB00000240A94161617061806090608950024FC
:104BC0000A9412161306140605060895092E039476
:104BD000000C11F4882352F0BB0F40F4BF2B11F4EA
:104BE00060FF04C06F5F7F4F8F4F9F4F089557FD49
:104BF0009058440F551F59F05F3F71F04795880F4B
:104C000097FB991F61F09F3F79F0879508951216E1
:104C100013061406551FF2CF4695F1DF08C016168D
:104C200017061806991FF1CF86957105610508943E
:104C30000895E894BB2766277727CB0197F9089555
:104C40000BD0C4CFB5DF28F0BADF18F0952309F0F8
:104C5000A6CFABCF1124EECFCADFA0F3959FD1F33F
:104C6000950F50E0551F629FF001729FBB27F00D1A
:104C7000B11D639FAA27F00DB11DAA1F649F66276F
:104C8000B00DA11D661F829F2227B00DA11D621FBE
:104C9000739FB00DA11D621F839FA00D611D221F78
:104CA000749F3327A00D611D231F849F600D211D5C
:104CB000822F762F6A2F11249F5750408AF0E1F0FF
:104CC00088234AF0EE0FFF1FBB1F661F771F881F48
:104CD00091505040A9F79E3F510570F060CFAACF88
:104CE0005F3FECF3983EDCF3869577956795B79533
:104CF000F795E7959F5FC1F7FE2B880F911D96955D
:104D0000879597F90895AA1BBB1B51E107C0AA1FFD
:104D1000BB1FA617B70710F0A61BB70B881F991F5C
:104D20005A95A9F780959095BC01CD010895A1E20F
:104D30001A2EAA1BBB1BFD010DC0AA1FBB1FEE1F15
:104D4000FF1FA217B307E407F50720F0A21BB30B60
:104D5000E40BF50B661F771F881F991F1A9469F7DC
:104D600060957095809590959B01AC01BD01CF0138
:104D70000895FB01DC0104C08D910190801921F49C
:104D800041505040C8F7881B990B0895FB01DC0186
:104D900002C001900D9241505040D8F70895DC01B7
:104DA00001C06D9341505040E0F708950F931F9359
:104DB000CF93DF938C01E0911908F0911A08838159
:104DC00081FF1AC0C0E0D0E005C00995009711F03E
:104DD000CFEFDFEFF80181918F0160911908709199
:104DE0001A08DB011896ED91FC911997882369F751
:104DF0008AE00995009711F0CFEFDFEFCE01DF9148
:104E0000CF911F910F9108950F931F93CF93DF932D
:104E1000CDB7DEB72E970FB6F894DEBF0FBECDBF6D
:104E20000D891E898F89988D26E02C831A8309832A
:104E300097FF02C080E090E801979E838D83AE01CA
:104E4000455E5F4FCE010196698D7A8D0E94A8273D
:104E50004D815E8157FD0AC02F8138854217530767
:104E60000CF49A01020F131FF80110822E960FB650
:104E7000F894DEBF0FBECDBFDF91CF911F910F9190
:104E800008950F931F93CF93DF93CDB7DEB72E977F
:104E90000FB6F894DEBF0FBECDBF0D891E8986E028
:104EA0008C831A8309838FEF9FE79E838D83AE01E6
:104EB000475E5F4FCE0101966F89788D0E94A827CB
:104EC000EF81F885E00FF11F10822E960FB6F8944F
:104ED000DEBF0FBECDBFDF91CF911F910F9108951F
:104EE0000F931F93CF93DF93CDB7DEB72E970FB6F7
:104EF000F894DEBF0FBECDBF8C0186E08C831A8391
:104F0000098377FF02C060E070E8615070407E83E3
:104F10006D83CE010196BA01A9010E94A8274D8197
:104F20005E8157FD0AC02F813885421753070CF464
:104F30009A01020F131FF80110822E960FB6F894F3
:104F4000DEBF0FBECDBFDF91CF911F910F910895AE
:104F50002F923F924F925F926F927F928F929F9289
:104F6000AF92BF92CF92DF92EF92FF920F931F9377
:104F7000CF93DF93CDB7DEB72D970FB6F894DEBF92
:104F80000FBECDBF3C017D876C875A01FC011782A3
:104F90001682838181FFC8C12E010894411C511CD7
:104FA000F3019381EC85FD8593FD859193FF8191BC
:104FB000FD87EC87882309F4B3C1853241F493FD62
:104FC000859193FF8191FD87EC87853229F490E0EC
:104FD000B3010E94D029E4CFFF24EE2410E0103268
:104FE000B0F48B3269F08C3228F4803251F0833285
:104FF00071F40BC08D3239F0803349F411602CC04C
:105000001260146029C0186027C0106125C017FD08
:105010002EC0282F20532A3098F416FF08C08F2D59
:10502000880FF82EFF0CFF0CF80EF20E15C08E2D17
:10503000880FE82EEE0CEE0CE80EE20E10620CC0AB
:105040008E3221F416FD6CC1106406C08C3611F44A
:10505000106802C0883659F4EC85FD8593FD859172
:1050600093FF8191FD87EC87882309F0B8CF982FB3
:105070009554933018F09052933038F424E030E097
:10508000A20EB31E3FE339830FC0833631F083375E
:1050900081F0833509F05AC022C0F50180818983EF
:1050A00022E030E0A20EB31E21E0C22ED12C42013C
:1050B00014C092E0292E312C2A0C3B1CF501808073
:1050C000918016FF03C06F2D70E002C06FEF7FEF7D
:1050D000C4010E94C5296C0151011F7715C082E0EF
:1050E000282E312C2A0C3B1CF5018080918016FF64
:1050F00003C06F2D70E002C06FEF7FEFC4010E940C
:10510000BA296C011068510113FD1CC006C080E271
:1051100090E0B3010E94D029EA948E2D90E0C81649
:10512000D906A8F30FC0F40117FD859117FF8191EF
:105130004F0190E0B3010E94D029E110EA94089455
:10514000C108D108C114D10471F7E7C0843611F049
:10515000893651F5F50117FF07C080819181A28141
:10516000B38124E030E008C080819181AA2797FDB7
:10517000A095BA2F22E030E0A20EB31E012F0F76C9
:10518000B7FF08C0B095A095909581959F4FAF4F00
:10519000BF4F0068BC01CD01A2012AE030E00E94AF
:1051A000FC29D82ED4183FC0853721F41F7E2AE071
:1051B00030E020C0197F8F36A9F0803720F4883581
:1051C00009F0AEC00BC0803721F0883709F0A8C0C5
:1051D00001C0106114FF09C0146007C014FF08C0AB
:1051E000166006C028E030E005C020E130E002C0D3
:1051F00020E132E0F50117FF07C0608171818281F3
:10520000938144E050E006C06081718180E090E0CD
:1052100042E050E0A40EB51EA2010E94FC29D82E47
:10522000D418012F0F7706FF09C00E7FDF1430F46A
:1052300004FF06C002FD04C00F7E02C01D2D01C088
:105240001F2D802F90E004FF0CC0FE01ED0DF11D1D
:105250002081203311F4097E09C002FF06C01E5FC1
:1052600005C086789070009709F01F5F802E992402
:1052700003FD12C000FF0DC0FD2C1E1550F4FE0CE6
:10528000F11A1E2D06C080E290E0B3010E94D029E1
:105290001F5F1E15C0F304C01E1510F4E11A01C0F3
:1052A000EE2484FE0FC080E390E0B3010E94D02979
:1052B00082FE1FC081FE03C088E590E010C088E731
:1052C00090E00DC0C40186789070009791F081FC49
:1052D00002C080E201C08BE207FD8DE290E0B301E5
:1052E0000E94D02906C080E390E0B3010E94D0293B
:1052F000FA94DF14C0F3DA94F201ED0DF11D808110
:1053000090E0B3010E94D029DD20A9F706C080E219
:1053100090E0B3010E94D029EA94EE20C1F740CE7C
:10532000F3018681978102C08FEF9FEF2D960FB614
:10533000F894DEBF0FBECDBFDF91CF911F910F91CB
:10534000FF90EF90DF90CF90BF90AF909F908F90A5
:105350007F906F905F904F903F902F900895A8E1BD
:10536000B0E042E050E00C945C2A0E946A2A272FA9
:105370000C946B2AFC010590615070400110D8F725
:10538000809590958E0F9F1F0895FC01615070408D
:1053900001900110D8F7809590958E0F9F1F08956A
:1053A0000F931F93CF93DF938C01EB018B8181FFD0
:1053B0001BC082FF0DC02E813F818C819D812817EB
:1053C000390764F4E881F9810193F983E88306C021
:1053D000E885F985802F0995009731F48E819F81AA
:1053E00001969F838E8302C00FEF1FEFC801DF91EC
:1053F000CF911F910F910895FA01AA27283051F1FA
:10540000203181F1E8946F936E7F6E5F7F4F8F4FF5
:105410009F4FAF4FB1E03ED0B4E03CD0670F781F54
:10542000891F9A1FA11D680F791F8A1F911DA11D39
:105430006A0F711D811D911DA11D20D009F4689472
:105440003F912AE0269F11243019305D3193DEF61A
:10545000CF010895462F4770405D4193B3E00FD0D0
:10546000C9F7F6CF462F4F70405D4A3318F0495DBB
:1054700031FD4052419302D0A9F7EACFB4E0A6959E
:105480009795879577956795BA95C9F700976105C0
:10549000710508959B01AC010A2E06945795479516
:1054A00037952795BA95C9F7620F731F841F951F0B
:1054B000A01D0895DC01CB01FC01E199FECF06C0DF
:1054C000FFBBEEBBE09A31960DB20D9241505040B9
:1054D000B8F70895262FE199FECF9FBB8EBB2DBB59
:1054E0000FB6F894E29AE19A0FBE01960895F894E7
:0254F000FFCFEC
:1054F20025642525202000ADDE122363825363201C
:105502002020202045434F544953202020202000B2
:10551200536D617274546F6E657253797374656DF5
:10552200004C6F6164696E672053797374656D2EE8
:105532002E00204B3A4620433A46204D3A46205907
:105542003A4600204B3A4C20433A46204D3A4620F8
:10555200593A4600204C6F7720746F6E6572204274
:105562006C61636B20004C6F6164696E6720746FBD
:105572006E65722E2E2E00204B3A4620433A4C2066
:105582004D3A4620593A4600204C6F7720746F6E90
:105592006572204379616E2000204B3A4620433ADF
:1055A20046204D3A4C20593A46004C6F7720746F92
:1055B2006E6572204D6167656E746100204B3A46DC
:1055C20020433A46204D3A4620593A4C004C6F77D8
:1055D20020746F6E65722059656C6F77002F537956
:1055E2007374656D312F746F6E65725F7375707051
:1055F2006C7931002F53797374656D312F746F6E2E
:1056020065725F737570706C7932002F53797374A1
:10561200656D312F746F6E65725F737570706C7922
:1056220033002F53797374656D312F746F6E657209
:105632005F737570706C7934002564002F53797331
:1056420074656D312F626B5F636F756E74002F53DB
:10565200797374656D312F635F636F756E74002F9C
:1056620053797374656D312F6D5F636F756E74005E
:105672002F53797374656D312F795F636F756E7413
:1056820000202020202045636F54697320202020B1
:10569200200049503A2025642E25642E25642E25AB
:1056A2006420202020200049503A25642E25642EB3
:1056B20025642E25642000656E6332386A36305FB9
:1056C2006176725F636C69656E74002F23002564D6
:1056D2002E25642E25642E2564002F53797374655C
:1056E2006D31002F53797374656D312F696E666F5A
:1056F2000045636F7469735F53797374656D5F53AB
:105702002F4E3A33343631323336313233000000E1
:105712000000C0A80101FFFFFF00C0A8013200BDC8
:105722003B330572BF039600000000005504C80019
:1057320000000000000000000000620D00000000F8
:105742000000000000000000000000000000010056
:105752000800200040008000000100040157616938
:1057620074656420666F72206E657764617461008F
:06577200FFFFFFFFFFFF37
:00000001FF
